:020000040000fa
:080000000002040000000000f2
:020000040000fa
:040008004c030000a5
:020000040000fa
:04000c004c030000a1
:020000040000fa
:040010004c0300009d
:020000040000fa
:040014004c03000099
:020000040000fa
:040018004c03000095
:020000040000fa
:04001c004c03000091
:020000040000fa
:040020004c0300008d
:020000040000fa
:040024004c03000089
:020000040000fa
:040028004c03000085
:020000040000fa
:04002c004c03000081
:020000040000fa
:040030004c0300007d
:020000040000fa
:040034004c03000079
:020000040000fa
:040038004c03000075
:020000040000fa
:04003c004c03000071
:020000040000fa
:040040004c0300006d
:020000040000fa
:040044004c03000069
:020000040000fa
:040048004c03000065
:020000040000fa
:04004c004c03000061
:020000040000fa
:040050004c0300005d
:020000040000fa
:040054004c03000059
:020000040000fa
:040058004c03000055
:020000040000fa
:04005c004c03000051
:020000040000fa
:040060004c0300004d
:020000040000fa
:040064004c03000049
:020000040000fa
:040068004c03000045
:020000040000fa
:04006c004c03000041
:020000040000fa
:040070004c0300003d
:020000040000fa
:040074004c03000039
:020000040000fa
:040078004c03000035
:020000040000fa
:04007c004c03000031
:020000040000fa
:040080004c0300002d
:020000040000fa
:040084004c03000029
:020000040000fa
:040088004c03000025
:020000040000fa
:04008c004c03000021
:020000040000fa
:040090004c0300001d
:020000040000fa
:040094004c03000019
:020000040000fa
:040098004c03000015
:020000040000fa
:04009c004c03000011
:020000040000fa
:0400a0004c0300000d
:020000040000fa
:0400a4004c03000009
:020000040000fa
:0400a8004c03000005
:020000040000fa
:0400ac004c03000001
:020000040000fa
:0400b0004c030000fd
:020000040000fa
:0400b4004c030000f9
:020000040000fa
:0400b8004c030000f5
:020000040000fa
:0400bc004c030000f1
:020000040000fa
:0400c0004c030000ed
:020000040000fa
:0400c4004c030000e9
:020000040000fa
:0400c8004c030000e5
:020000040000fa
:0400cc004c030000e1
:020000040000fa
:0400d0004c030000dd
:020000040000fa
:0400d4004c030000d9
:020000040000fa
:0400d8004c030000d5
:020000040000fa
:0400dc004c030000d1
:020000040000fa
:0400e0004c030000cd
:020000040000fa
:0400e4004c030000c9
:020000040000fa
:0400e8004c030000c5
:020000040000fa
:0400ec004c030000c1
:020000040000fa
:0400f0004c030000bd
:020000040000fa
:0400f4004c030000b9
:020000040000fa
:0400f8004c030000b5
:020000040000fa
:0400fc004c030000b1
:020000040000fa
:040100004c030000ac
:020000040000fa
:040104004c030000a8
:020000040000fa
:040108004c030000a4
:020000040000fa
:04010c004c030000a0
:020000040000fa
:040110004c0300009c
:020000040000fa
:040114004c03000098
:020000040000fa
:040118004c03000094
:020000040000fa
:04011c004c03000090
:020000040000fa
:040120004c0300008c
:020000040000fa
:040124004c03000088
:020000040000fa
:040128004c03000084
:020000040000fa
:04012c004c03000080
:020000040000fa
:040130004c0300007c
:020000040000fa
:040134004c03000078
:020000040000fa
:040138004c03000074
:020000040000fa
:04013c004c03000070
:020000040000fa
:040140004c0300006c
:020000040000fa
:040144004c03000068
:020000040000fa
:040148004c03000064
:020000040000fa
:04014c004c03000060
:020000040000fa
:040150004c0300005c
:020000040000fa
:040154004c03000058
:020000040000fa
:040158004c03000054
:020000040000fa
:04015c004c03000050
:020000040000fa
:040160004c0300004c
:020000040000fa
:040164004c03000048
:020000040000fa
:040168004c03000044
:020000040000fa
:04016c004c03000040
:020000040000fa
:040170004c0300003c
:020000040000fa
:040174004c03000038
:020000040000fa
:040178004c03000034
:020000040000fa
:04017c004c03000030
:020000040000fa
:040180004c0300002c
:020000040000fa
:040184004c03000028
:020000040000fa
:040188004c03000024
:020000040000fa
:04018c004c03000020
:020000040000fa
:040190004c0300001c
:020000040000fa
:040194004c03000018
:020000040000fa
:040198004c03000014
:020000040000fa
:04019c004c03000010
:020000040000fa
:0401a0004c0300000c
:020000040000fa
:0401a4004c03000008
:020000040000fa
:0401a8004c03000004
:020000040000fa
:0401ac004c03000000
:020000040000fa
:0401b0004c030000fc
:020000040000fa
:0401b4004c030000f8
:020000040000fa
:0401b8004c030000f4
:020000040000fa
:0401bc004c030000f0
:020000040000fa
:0401c0004c030000ec
:020000040000fa
:0401c4004c030000e8
:020000040000fa
:0401c8004c030000e4
:020000040000fa
:0401cc004c030000e0
:020000040000fa
:0401d0004c030000dc
:020000040000fa
:0401d4004c030000d8
:020000040000fa
:0401d8004c030000d4
:020000040000fa
:0401dc004c030000d0
:020000040000fa
:0401e0004c030000cc
:020000040000fa
:0401e4004c030000c8
:020000040000fa
:0401e8004c030000c4
:020000040000fa
:0401ec004c030000c0
:020000040000fa
:0401f0004c030000bc
:020000040000fa
:0401f4004c030000b8
:020000040000fa
:0401f8004c030000b4
:020000040000fa
:0401fc004c030000b0
:020000040000fa
:040200004c030000ab
:020000040000fa
:040204004c030000a7
:020000040000fa
:040208004c030000a3
:020000040000fa
:04020c004c0300009f
:020000040000fa
:040210004c0300009b
:020000040000fa
:040214004c03000097
:020000040000fa
:040218004c03000093
:020000040000fa
:04021c004c0300008f
:020000040000fa
:040220004c0300008b
:020000040000fa
:040224004c03000087
:020000040000fa
:040228004c03000083
:020000040000fa
:04022c004c0300007f
:020000040000fa
:04023000fa020000ce
:020000040000fa
:040234004c03000077
:020000040000fa
:040238004c03000073
:020000040000fa
:04023c004c0300006f
:020000040000fa
:040240004c0300006b
:020000040000fa
:040244004c03000067
:020000040000fa
:040248004c03000063
:020000040000fa
:04024c004c0300005f
:020000040000fa
:040250004c0300005b
:020000040000fa
:040254004c03000057
:020000040000fa
:040258004c03000053
:020000040000fa
:04025c004c0300004f
:020000040000fa
:040260004c0300004b
:020000040000fa
:040264004c03000047
:020000040000fa
:040268004c03000043
:020000040000fa
:04026c004c0300003f
:020000040000fa
:040270004c0300003b
:020000040000fa
:040274004c03000037
:020000040000fa
:040278004c03000033
:020000040000fa
:04027c004c0300002f
:020000040000fa
:040280004c0300002b
:020000040000fa
:040284004c03000027
:020000040000fa
:040288004c03000023
:020000040000fa
:04028c004c0300001f
:020000040000fa
:040290004c0300001b
:020000040000fa
:040294004c03000017
:020000040000fa
:040298004c03000013
:020000040000fa
:04029c004c0300000f
:020000040000fa
:0402a0004c0300000b
:020000040000fa
:0402a4004c03000007
:020000040000fa
:0402a8004c03000003
:020000040000fa
:0402ac004c030000ff
:020000040000fa
:0402b0004c030000fb
:020000040000fa
:0402b4004c030000f7
:020000040000fa
:0402b8004c030000f3
:020000040000fa
:0402bc004c030000ef
:020000040000fa
:0402c0004c030000eb
:020000040000fa
:0402c4004c030000e7
:020000040000fa
:0402c8004c030000e3
:020000040000fa
:0402cc004c030000df
:020000040000fa
:0402d0004c030000db
:020000040000fa
:0402d4004c030000d7
:020000040000fa
:0402d8004c030000d3
:020000040000fa
:0402dc004c030000cf
:020000040000fa
:0402e0004c030000cb
:020000040000fa
:0402e4004c030000c7
:020000040000fa
:0402e8004c030000c3
:020000040000fa
:0402ec004c030000bf
:020000040000fa
:0402f0004c030000bb
:020000040000fa
:0402f4004c030000b7
:020000040000fa
:0402f8004c030000b3
:020000040000fa
:0402fc004c030000af
:020000040000fa
:040300004c030000aa
:020000040000fa
:040304004c030000a6
:020000040000fa
:040308004c030000a2
:020000040000fa
:04030c004c0300009e
:020000040000fa
:040310004c0300009a
:020000040000fa
:040314004c03000096
:020000040000fa
:040318004c03000092
:020000040000fa
:04031c004c0300008e
:020000040000fa
:100400000f0021000eff24000e01880000000000f4
:10041000000020000000e000020032000001200087
:1004200020028800140007009d0007000000e00083
:1004300003003a0000002000010020000200370005
:100440000000200001002000810f70000100320038
:100450000f000700000020000000e0000200320052
:100460000000020000000000b203020000000000d3
:100470000040da000000fe00200020000000e00044
:1004800002003200100020009001880000000600e9
:10049000a1028800800478000000eb001f003700f4
:1004a000e284440054a0b4009905ba00e2844400f8
:1004b00054a0b4009906ba00e284440054a0b400e9
:1004c0000006eb00476fde00fd07b200ae018800ba
:1004d000636ce10003003a000ad801000000eb0061
:1004e0000e003700606ce10008003a00004deb00a0
:1004f0000a05e800020039003420ec000af0a000f0
:100500008b05e900f9ff3e00040037006168e10057
:10051000010032000086eb000b00070019c7ba008b
:100520001905ba000e04e00003003a000a00e000da
:10053000dbff3a0000000600fe07b200ae028800b2
:100540008a047800f5ff37000cd0a300e20f4d00bd
:100550001c003b0089027800354dba000a05e8000e
:10056000020039003420ec000af0a0008b05e900fd
:100570000f003200254dba000a05e80002003900dc
:100580003420ec000af0a0008b05e90008003200de
:100590000c00e0000600320015cdba000a05e800a4
:1005a000020039003420ec000af0a0008b05e900bd
:1005b0008984e80054a0b4000b00e000e2ff3a0098
:1005c000000006009902ba00055d78008b05e9007d
:1005d000f7ff3200c82ade00055d78008b05e900d0
:1005e000f3ff32000c00e000f1ff320019ddba0029
:1005f000eeff37003600f800809fbe00829fbe00ed
:10060000849fbe00869fbe000200fa00c3e8a800d7
:100610001048a900a0738000620060000000e000a4
:1006200002003a00762ea80001003700762ea900bd
:10063000d00e8000004f78001e407800f14f50002f
:100640000c003a00760ea90000382c00911c200006
:100650004b000700760ea80000382c00911c2000eb
:1006600047000700760ea90000382c00911c2000de
:10067000430007001048a900c3e8a8000080fa0062
:100680004f03be004f02be004f01be004f00be0030
:100690003600f900004006000040da000000fe00cd
:0406a0000000050051
:020000040000fa
:1006a4000000fa00317c800000fc2f000080600014
:1006b4000000a000307c8800810c2000b0210a00da
:1006c400880f0000517c8000f0f82f00008060004b
:1006d4000060a000507c8800517c800080ff2f00c7
:1006e400008060000000a000507c88000000000032
:1006f400217c800000022000008060000000e000f7
:10070400fbff32000080fa00000006000000fa003f
:10071400c1e8a9003048a8001048a900014480009d
:10072400f08f2f00008060000090a000004488003b
:10073400c3e8a8000080fa00000006000000fa00e8
:10074400720ea900722ea9000080fa0000000600b3
:100754000000fa00b5efa9000080fa0000000600ce
:100764000000fa00faff0700cdff0700f3ff0700bf
:0c077400e6ff0700760ea800feff37002d
:020000040000fa
:10078000f03fb1000180b10006003500ee03090022
:1007900000000000403fb1000180b100fbff3d00c0
:1007a0001000b000203fb0000200350000800900ba
:0807b00000000000000006003b
:00000001FF
