:020000040000fa
:080000000002040000000000f2
:020000040000fa
:04000800e803000009
:020000040000fa
:04000c00e803000005
:020000040000fa
:04001000e803000001
:020000040000fa
:04001400e8030000fd
:020000040000fa
:04001800e8030000f9
:020000040000fa
:04001c00e8030000f5
:020000040000fa
:04002000e8030000f1
:020000040000fa
:04002400e8030000ed
:020000040000fa
:04002800e8030000e9
:020000040000fa
:04002c00e8030000e5
:020000040000fa
:04003000e8030000e1
:020000040000fa
:04003400e8030000dd
:020000040000fa
:04003800e8030000d9
:020000040000fa
:04003c00e8030000d5
:020000040000fa
:04004000e8030000d1
:020000040000fa
:04004400e8030000cd
:020000040000fa
:04004800e8030000c9
:020000040000fa
:04004c00e8030000c5
:020000040000fa
:04005000e8030000c1
:020000040000fa
:04005400e8030000bd
:020000040000fa
:04005800e8030000b9
:020000040000fa
:04005c00e8030000b5
:020000040000fa
:04006000e8030000b1
:020000040000fa
:04006400e8030000ad
:020000040000fa
:04006800e8030000a9
:020000040000fa
:04006c00e8030000a5
:020000040000fa
:04007000e8030000a1
:020000040000fa
:04007400e80300009d
:020000040000fa
:04007800e803000099
:020000040000fa
:04007c00e803000095
:020000040000fa
:04008000e803000091
:020000040000fa
:04008400e80300008d
:020000040000fa
:04008800e803000089
:020000040000fa
:04008c00e803000085
:020000040000fa
:04009000e803000081
:020000040000fa
:04009400e80300007d
:020000040000fa
:04009800e803000079
:020000040000fa
:04009c00e803000075
:020000040000fa
:0400a000e803000071
:020000040000fa
:0400a400e80300006d
:020000040000fa
:0400a800e803000069
:020000040000fa
:0400ac00e803000065
:020000040000fa
:0400b000e803000061
:020000040000fa
:0400b400e80300005d
:020000040000fa
:0400b800e803000059
:020000040000fa
:0400bc00e803000055
:020000040000fa
:0400c000e803000051
:020000040000fa
:0400c400e80300004d
:020000040000fa
:0400c800e803000049
:020000040000fa
:0400cc00e803000045
:020000040000fa
:0400d000e803000041
:020000040000fa
:0400d400e80300003d
:020000040000fa
:0400d800e803000039
:020000040000fa
:0400dc00e803000035
:020000040000fa
:0400e000e803000031
:020000040000fa
:0400e400e80300002d
:020000040000fa
:0400e800e803000029
:020000040000fa
:0400ec00e803000025
:020000040000fa
:0400f000e803000021
:020000040000fa
:0400f400e80300001d
:020000040000fa
:0400f800e803000019
:020000040000fa
:0400fc00e803000015
:020000040000fa
:04010000e803000010
:020000040000fa
:04010400e80300000c
:020000040000fa
:04010800e803000008
:020000040000fa
:04010c00e803000004
:020000040000fa
:04011000e803000000
:020000040000fa
:04011400e8030000fc
:020000040000fa
:04011800e8030000f8
:020000040000fa
:04011c00e8030000f4
:020000040000fa
:04012000e8030000f0
:020000040000fa
:04012400e8030000ec
:020000040000fa
:04012800e8030000e8
:020000040000fa
:04012c00e8030000e4
:020000040000fa
:04013000e8030000e0
:020000040000fa
:04013400e8030000dc
:020000040000fa
:04013800e8030000d8
:020000040000fa
:04013c00e8030000d4
:020000040000fa
:04014000e8030000d0
:020000040000fa
:04014400e8030000cc
:020000040000fa
:04014800e8030000c8
:020000040000fa
:04014c00e8030000c4
:020000040000fa
:04015000e8030000c0
:020000040000fa
:04015400e8030000bc
:020000040000fa
:04015800960300000a
:020000040000fa
:04015c00e8030000b4
:020000040000fa
:04016000e8030000b0
:020000040000fa
:04016400e8030000ac
:020000040000fa
:04016800e8030000a8
:020000040000fa
:04016c00e8030000a4
:020000040000fa
:04017000e8030000a0
:020000040000fa
:04017400e80300009c
:020000040000fa
:04017800e803000098
:020000040000fa
:04017c00e803000094
:020000040000fa
:04018000e803000090
:020000040000fa
:04018400e80300008c
:020000040000fa
:04018800e803000088
:020000040000fa
:04018c00e803000084
:020000040000fa
:04019000e803000080
:020000040000fa
:04019400e80300007c
:020000040000fa
:04019800e803000078
:020000040000fa
:04019c00e803000074
:020000040000fa
:0401a000e803000070
:020000040000fa
:0401a400e80300006c
:020000040000fa
:0401a800e803000068
:020000040000fa
:0401ac00e803000064
:020000040000fa
:0401b000e803000060
:020000040000fa
:0401b400e80300005c
:020000040000fa
:0401b800e803000058
:020000040000fa
:0401bc00e803000054
:020000040000fa
:0401c000e803000050
:020000040000fa
:0401c400e80300004c
:020000040000fa
:0401c800e803000048
:020000040000fa
:0401cc00e803000044
:020000040000fa
:0401d000e803000040
:020000040000fa
:0401d400e80300003c
:020000040000fa
:0401d800e803000038
:020000040000fa
:0401dc00e803000034
:020000040000fa
:0401e000e803000030
:020000040000fa
:0401e400e80300002c
:020000040000fa
:0401e800e803000028
:020000040000fa
:0401ec00e803000024
:020000040000fa
:0401f000e803000020
:020000040000fa
:0401f400e80300001c
:020000040000fa
:0401f800e803000018
:020000040000fa
:0401fc00e803000014
:020000040000fa
:04020000e80300000f
:020000040000fa
:04020400e80300000b
:020000040000fa
:04020800e803000007
:020000040000fa
:04020c00e803000003
:020000040000fa
:04021000e8030000ff
:020000040000fa
:04021400e8030000fb
:020000040000fa
:04021800e8030000f7
:020000040000fa
:04021c00e8030000f3
:020000040000fa
:04022000e8030000ef
:020000040000fa
:04022400e8030000eb
:020000040000fa
:04022800e8030000e7
:020000040000fa
:04022c00e8030000e3
:020000040000fa
:04023000c403000003
:020000040000fa
:04023400e8030000db
:020000040000fa
:04023800e8030000d7
:020000040000fa
:04023c00e8030000d3
:020000040000fa
:04024000e8030000cf
:020000040000fa
:04024400e8030000cb
:020000040000fa
:04024800e8030000c7
:020000040000fa
:04024c00e8030000c3
:020000040000fa
:04025000e8030000bf
:020000040000fa
:04025400e8030000bb
:020000040000fa
:04025800e8030000b7
:020000040000fa
:04025c00e8030000b3
:020000040000fa
:04026000e8030000af
:020000040000fa
:04026400e8030000ab
:020000040000fa
:04026800e8030000a7
:020000040000fa
:04026c00e8030000a3
:020000040000fa
:04027000e80300009f
:020000040000fa
:04027400e80300009b
:020000040000fa
:04027800e803000097
:020000040000fa
:04027c00e803000093
:020000040000fa
:04028000e80300008f
:020000040000fa
:04028400e80300008b
:020000040000fa
:04028800e803000087
:020000040000fa
:04028c00e803000083
:020000040000fa
:04029000e80300007f
:020000040000fa
:04029400e80300007b
:020000040000fa
:04029800e803000077
:020000040000fa
:04029c00e803000073
:020000040000fa
:0402a000e80300006f
:020000040000fa
:0402a400e80300006b
:020000040000fa
:0402a800e803000067
:020000040000fa
:0402ac00e803000063
:020000040000fa
:0402b000e80300005f
:020000040000fa
:0402b400e80300005b
:020000040000fa
:0402b800e803000057
:020000040000fa
:0402bc00e803000053
:020000040000fa
:0402c000e80300004f
:020000040000fa
:0402c400e80300004b
:020000040000fa
:0402c800e803000047
:020000040000fa
:0402cc00e803000043
:020000040000fa
:0402d000e80300003f
:020000040000fa
:0402d400e80300003b
:020000040000fa
:0402d800e803000037
:020000040000fa
:0402dc00e803000033
:020000040000fa
:0402e000e80300002f
:020000040000fa
:0402e400e80300002b
:020000040000fa
:0402e800e803000027
:020000040000fa
:0402ec00e803000023
:020000040000fa
:0402f000e80300001f
:020000040000fa
:0402f400e80300001b
:020000040000fa
:0402f800e803000017
:020000040000fa
:0402fc00e803000013
:020000040000fa
:04030000e80300000e
:020000040000fa
:04030400e80300000a
:020000040000fa
:04030800e803000006
:020000040000fa
:04030c00e803000002
:020000040000fa
:04031000e8030000fe
:020000040000fa
:04031400e8030000fa
:020000040000fa
:04031800e8030000f6
:020000040000fa
:04031c00e8030000f2
:020000040000fa
:04032000e8030000ee
:020000040000fa
:100400000f0021000eff27000e01880000002000d1
:100410000000e000020032000001200020028800fd
:1004200014000700ec0007000000e00003003a00a1
:100430000000200001002000020037000000200022
:1004400001002000810f70004220ae000f00070065
:10045000000020000000e0004220ae00000002008a
:1004600000000000c8080200000000000040da00a0
:100470000000fe00c00420000000e0000200320086
:10048000002020009001880000000600a1028800e2
:10049000800478000000eb001f003700e284440075
:1004a00054a0b4009905ba00e284440054a0b400fa
:1004b0009906ba00e284440054a0b4000006eb00a0
:1004c000476fde00fd07b200ae018800636ce100fb
:1004d00003003a000ad801000000eb000e003700cc
:1004e000606ce10008003a00004deb000a05e800ee
:1004f000020039003420ec000af0a0008b05e9006e
:10050000f9ff3e00040037006168e100010032009d
:100510000086eb000b00070019c7ba001905ba00e6
:100520000e04e00003003a000a00e000dbff3a009e
:1005300000000600fe07b200ae0288008a047800c0
:10054000f5ff37000cd0a300e20f4d001c003b006c
:1005500089027800354dba000a05e800020039002a
:100560003420ec000af0a0008b05e9000f003200f7
:10057000254dba000a05e800020039003420ec00dd
:100580000af0a0008b05e900080032000c00e00032
:100590000600320015cdba000a05e8000200390055
:1005a0003420ec000af0a0008b05e9008984e80003
:1005b00054a0b4000b00e000e2ff3a000000060087
:1005c0009902ba00055d78008b05e900f7ff32005b
:1005d000c82ade00055d78008b05e900f3ff3200d4
:1005e0000c00e000f1ff320019ddba00eeff370029
:1005f0006100e10001003200100005005400f80025
:1006000050102000a002880000f927001000ba0056
:100610005400f9000700260000f0a6008703d1006f
:100620000703780001c4fe000003eb000120200056
:1006300091018800618e2800111303008703e900ef
:10064000fdff3a0000f0a7000000050000f0a00048
:1006500080c4fe0086037800f3ff37000408200002
:10066000010037000002eb006100e10001003200f0
:10067000100005003200f8003400f8008102780014
:10068000930188003200be000100e0000c0032003f
:100690000470a70000f0a00032037800c733de002a
:1006a000848343004220af008703e800a70188004d
:1006b000f607b2007f30e100040032002000200085
:1006c0003400f9003200f900000006008100e90062
:1006d0000500e00003003a00018009003210030029
:1006e000e8ff37000180090032900300d561ae00b9
:1006f000e4ff370030002000f1ff370050052000f4
:10070000b00e8800a00a2000b00e8800d3e1a80037
:100710000000060050052000b00e8800a00a20004e
:10072000b00e8800d3e1a900000006003600f800f2
:10073000809fbe00829fbe00849fbe00869fbe0039
:100740000000fa00c3e8a900e03e28007602070096
:1007500010012000d00e88004040280072020700df
:1007600086eea9000988a900c3e8a8000080fa0065
:100770004f03be004f02be004f01be004f00be003f
:100780003600f900004006003600f800809fbe00e9
:10079000829fbe00849fbe00869fbe000000fa00bc
:1007a000c3e8a900504128005f0207001048a900d3
:1007b000c3e8a8000080fa004f03be004f02be004d
:1007c0004f01be004f00be003600f9000040060099
:0c07d0000040da000000fe000000050000
:020000040000fa
:1007dc0042750000747400006f6e000020770000fa
:1007ec0061730000207000007265000073730000dc
:1007fc0065640000200d00000a0000004461000048
:10080c007461000020770000617300002073000009
:10081c00656e0000742000000d0a0000004400000a
:10082c0061740000612000007761000073200000fb
:10083c00616300006b6e00006f7700006c65000058
:10084c0064670000652000006279000020740000dd
:10085c0068650000207300006c6100007665000084
:08086c00200d00000a0000004d
:020000040000fa
:1008740000000000ca0000001f0000000002040085
:10088400000000004c0300004c0300004c03000077
:100894004c0300004c0300004c0300004c03000018
:1008a4004c0300004c0300004c0300004c03000008
:1008b4004c0300004c0300004c0300004c030000f8
:1008c4004c0300004c0300004c0300004c030000e8
:100aa4004c0300004c0300004c030000fa02000059
:100ab4004c0300004c0300004c0300004c030000f6
:100ac4004c0300004c0300004c0300004c030000e6
:100ad4004c0300004c0300004c0300004c030000d6
:100ae4004c0300004c0300004c0300004c030000c6
:100af4004c0300004c0300004c0300004c030000b6
:100b04004c0300004c0300004c0300004c030000a5
:100b14004c0300004c0300004c0300004c03000095
:100b24004c0300004c0300004c0300004c03000085
:100b34004c0300004c0300004c0300004c03000075
:100b44004c0300004c0300004c0300004c03000065
:100b54004c0300004c0300004c0300004c03000055
:100b64004c0300004c0300004c0300004c03000045
:100b74004c0300004c0300004c0300004c03000035
:100b84004c0300004c0300004c0300004c03000025
:100b94004c0300004c0300004c0300000000fe0066
:100ba4000000fe0000020000f00000001f00000032
:100bb4000f0021000eff24000e0188000000000039
:100bc400000020000000e0000200320000012000cc
:100bd40020028800140007009d0007000000e000c8
:100be40003003a000000200001002000020037004a
:100bf4000000200001002000810f7000010032007d
:100c04000f000700000020000000e0000200320096
:100c14000000020000000000b20302000000000017
:100c24000040da000000fe00200020000000e00088
:100c3400020032001000200090018800000006002d
:100c4400a1028800800478000000eb001f00370038
:100c5400e284440054a0b4009905ba00e28444003c
:100c640054a0b4009906ba00e284440054a0b4002d
:100c74000006eb00476fde00fd07b200ae018800fe
:100c8400636ce10003003a000ad801000000eb00a5
:100c94000e003700606ce10008003a00004deb00e4
:100ca4000a05e800020039003420ec000af0a00034
:100cb4008b05e900f9ff3e00040037006168e1009c
:100cc400010032000086eb000b00070019c7ba00d0
:100cd4001905ba000e04e00003003a000a00e0001f
:100ce400dbff3a0000000600fe07b200ae028800f7
:100cf4008a047800f5ff37000cd0a300e20f4d0002
:100d04001c003b0089027800354dba000a05e80052
:100d1400020039003420ec000af0a0008b05e90041
:100d24000f003200254dba000a05e8000200390020
:100d34003420ec000af0a0008b05e9000800320022
:100d44000c00e0000600320015cdba000a05e800e8
:100d5400020039003420ec000af0a0008b05e90001
:100d64008984e80054a0b4000b00e000e2ff3a00dc
:100d7400000006009902ba00055d78008b05e900c1
:100d8400f7ff3200c82ade00055d78008b05e90014
:100d9400f3ff32000c00e000f1ff320019ddba006d
:100da400eeff37003600f800809fbe00829fbe0031
:100db400849fbe00869fbe000200fa00c3e8a8001c
:100dc4001048a900a0738000620060000000e000e9
:100dd40002003a00762ea80001003700762ea90002
:100de400d00e8000004f78001e407800f14f500074
:100df4000c003a00760ea90000382c00911c20004b
:100e04004b000700760ea80000382c00911c20002f
:100e140047000700760ea90000382c00911c200022
:100e2400430007001048a900c3e8a8000080fa00a6
:100e34004f03be004f02be004f01be004f00be0074
:100e44003600f900004006000040da000000fe0011
:100e5400000005000000fa00317c800000fc2f0037
:100e6400008060000000a000307c8800810c20001d
:100e7400b0210a00880f0000517c8000f0f82f0098
:100e8400008060000060a000507c8800517c8000dd
:100e940080ff2f00008060000000a000507c8800cc
:100ea40000000000217c800000022000008060001f
:100eb4000000e000fbff32000080fa0000000600a2
:100ec4000000fa00c1e8a9003048a8001048a900b1
:100ed40001448000f08f2f00008060000090a0008b
:100ee40000448800c3e8a8000080fa00000006005f
:100ef4000000fa00720ea900722ea9000080fa0008
:100f0400000006000000fa00b5efa9000080fa0016
:100f1400000006000000fa00faff0700cdff0700fa
:100f2400f3ff0700e6ff0700760ea800feff370078
:100f3400f03fb1000180b10006003500ee03090066
:100f440000000000403fb1000180b100fbff3d0004
:100f54001000b000203fb0000200350000800900fe
:100f640000000000000006000000fe000000fe007b
:080f7400000000000000000075
:020000040000fa
:100f7c000000fa00a1052000b0210a00880f000033
:100f8c00317c800000fc2f00008060000000a0007d
:100f9c00307c8800517c8000f0f82f0000806000cd
:100fac000050a000507c8800517c800080ff2f00f6
:100fbc00008060000000a000507c88000000000051
:100fcc00217c800000022000008060000000e00016
:100fdc00fbff32000080fa00000006000000fa005f
:100fec00c1e8a8007feea8007f6ea80080eea900e3
:100ffc0084eea8002988a8003143800080ff2f00d0
:10100c00008060000000a000304388000988a9001f
:10101c003048a8001048a90001448000f08f2f0030
:10102c00008060000090a00000448800c3e8a80085
:10103c000080fa00000006000000fa00702eef009d
:10104c0072eea8000000eb0051052000b1468800ac
:10105c00a10a2000b146880000688800d16c80008d
:10106c00f00f2c00008060000080a000d06c880085
:10107c000080200051052000b1468800a10a200004
:10108c00b1468800006888000080fa000000060065
:10109c000400fa003b62a90038e2a800d1118000dc
:1010ac00f09f2f0000806000d01188006018200095
:1010bc0001002000008fbe001e0078000012880086
:1010cc001e00be004008de000000780010128800f0
:1010dc00c111800000ff2f0000806000c01188004b
:1010ec0038a2a80039e2a8000080fa00000006002f
:1010fc000200fa00004f780000000000f0118000a0
:10110c00700060000000e000fcff3a001e00fb00d5
:10111c00401288000080fa00000006000400fa006b
:10112c008e80e800800878000000eb00000f78004b
:10113c00070037009e0078000e80e8001000780051
:10114c000100400010407800e9ff07001e0fe80086
:10115c009e0078000e80e80010007800010040002e
:10116c00104078000004e000f2ff3a000080fa0022
:10117c00000006000000fa00b5efa9000080fa009c
:10118c00000006000000fa00889fbe00f9ff07006f
:10119c0077ff0700a8ff0700bdff0700a843280042
:1011ac00092020000801be008000eb001000200088
:1011bc0029fd07004efd070088ff0700ffff3700e1
:020000040000fa
:0411cc00ffffff0022
:020000040000fa
:02000004000af0
:04fe0000ffffff0001
:020000040000fa
:02000004000af0
:04fe2000ffffff00e1
:020000040000fa
:02000004000af0
:04fe3000fbffff00d5
:020000040000fa
:02000004000af0
:04fe3800bdf7ff0013
:020000040000fa
:02000004000af0
:04fe40007f7fff00c1
:020000040000fa
:02000004000af0
:04fe4800ffffff00b9
:020000040000fa
:02000004000af0
:04fe5000dfffff00d1
:020000040000fa
:02000004000af0
:04fe5800ffffff00a9
:020000040000fa
:02000004000af0
:04fe6000ffffff00a1
:020000040000fa
:02000004000af0
:04fe6800ffffff0099
:020000040000fa
:02000004000af0
:04fe7000ffffff0091
:020000040000fa
:02000004000af0
:04fe7800ffffff0089
:020000040000fa
:02000004000af0
:04fe8000fffcff0084
:020000040000fa
:02000004000af0
:04fe8800ffffff0079
:020000040000fa
:02000004000af0
:04fe9000feffff0072
:020000040000fa
:02000004000af0
:04fe9800f0ffff0078
:020000040000fa
:02000004000af0
:04fea000ffffff0061
:020000040000fa
:02000004000af0
:04fea800feffff005a
:020000040000fa
:02000004000af0
:04feb000ffffff0051
:020000040000fa
:02000004000af0
:04fec000ffffff0041
:020000040000fa
:02000004000af0
:04fed000ffffff0031
:020000040000fa
:02000004000af0
:04fee000ffffff0021
:020000040000fa
:02000004000af0
:04fef000fcffff0014
:020000040000fa
:02000004000af0
:04ff0000fbffff0004
:020000040000fa
:02000004000af0
:04ff0800bfffff0038
:020000040000fa
:02000004000af0
:04ff1000f453ff00a7
:020000040000fa
:02000004000af0
:04ff1800ffffff00e8
:020000040000fa
:02000004000af0
:04ff2000ffffff00e0
:020000040000fa
:02000004000af0
:04ff2800ffffff00d8
:020000040000fa
:02000004000af0
:04ff3000ffffff00d0
:020000040000fa
:02000004000af0
:04ff3800ffffff00c8
:020000040000fa
:02000004000af0
:04ff4000ffffff00c0
:020000040000fa
:02000004000af0
:04ff4800ffffff00b8
:020000040000fa
:02000004000af0
:04ff5000ffffff00b0
:020000040000fa
:02000004000af0
:04ff5800ffffff00a8
:020000040000fa
:02000004000af0
:04fff800ffffff0008
:00000001FF
