:020000040000fa
:080000000002040000000000f2
:020000040000fa
:04000800b20400003e
:020000040000fa
:04000c00b20400003a
:020000040000fa
:04001000b204000036
:020000040000fa
:04001400b204000032
:020000040000fa
:04001800b20400002e
:020000040000fa
:04001c00b20400002a
:020000040000fa
:04002000b204000026
:020000040000fa
:04002400b204000022
:020000040000fa
:04002800b20400001e
:020000040000fa
:04002c00b20400001a
:020000040000fa
:04003000b204000016
:020000040000fa
:04003400b204000012
:020000040000fa
:04003800b20400000e
:020000040000fa
:04003c00b20400000a
:020000040000fa
:04004000b204000006
:020000040000fa
:04004400b204000002
:020000040000fa
:04004800b2040000fe
:020000040000fa
:04004c00b2040000fa
:020000040000fa
:04005000b2040000f6
:020000040000fa
:04005400b2040000f2
:020000040000fa
:04005800b2040000ee
:020000040000fa
:04005c00b2040000ea
:020000040000fa
:04006000b2040000e6
:020000040000fa
:04006400b2040000e2
:020000040000fa
:04006800b2040000de
:020000040000fa
:04006c00b2040000da
:020000040000fa
:04007000b2040000d6
:020000040000fa
:04007400b2040000d2
:020000040000fa
:04007800b2040000ce
:020000040000fa
:04007c00b2040000ca
:020000040000fa
:04008000b2040000c6
:020000040000fa
:04008400b2040000c2
:020000040000fa
:04008800b2040000be
:020000040000fa
:04008c00b2040000ba
:020000040000fa
:04009000b2040000b6
:020000040000fa
:04009400b2040000b2
:020000040000fa
:04009800b2040000ae
:020000040000fa
:04009c00b2040000aa
:020000040000fa
:0400a000b2040000a6
:020000040000fa
:0400a400b2040000a2
:020000040000fa
:0400a800b20400009e
:020000040000fa
:0400ac00b20400009a
:020000040000fa
:0400b000b204000096
:020000040000fa
:0400b400b204000092
:020000040000fa
:0400b800b20400008e
:020000040000fa
:0400bc00b20400008a
:020000040000fa
:0400c000b204000086
:020000040000fa
:0400c400b204000082
:020000040000fa
:0400c800b20400007e
:020000040000fa
:0400cc00b20400007a
:020000040000fa
:0400d000b204000076
:020000040000fa
:0400d400b204000072
:020000040000fa
:0400d800b20400006e
:020000040000fa
:0400dc00b20400006a
:020000040000fa
:0400e000b204000066
:020000040000fa
:0400e400b204000062
:020000040000fa
:0400e800b20400005e
:020000040000fa
:0400ec00b20400005a
:020000040000fa
:0400f000b204000056
:020000040000fa
:0400f400b204000052
:020000040000fa
:0400f800b20400004e
:020000040000fa
:0400fc00b20400004a
:020000040000fa
:04010000b204000045
:020000040000fa
:04010400b204000041
:020000040000fa
:04010800b20400003d
:020000040000fa
:04010c00b204000039
:020000040000fa
:04011000b204000035
:020000040000fa
:04011400b204000031
:020000040000fa
:04011800b20400002d
:020000040000fa
:04011c00b204000029
:020000040000fa
:04012000b204000025
:020000040000fa
:04012400b204000021
:020000040000fa
:04012800b20400001d
:020000040000fa
:04012c00b204000019
:020000040000fa
:04013000b204000015
:020000040000fa
:04013400b204000011
:020000040000fa
:04013800b20400000d
:020000040000fa
:04013c00b204000009
:020000040000fa
:04014000b204000005
:020000040000fa
:04014400b204000001
:020000040000fa
:04014800b2040000fd
:020000040000fa
:04014c00b2040000f9
:020000040000fa
:04015000b2040000f5
:020000040000fa
:04015400b2040000f1
:020000040000fa
:04015800960300000a
:020000040000fa
:04015c00b2040000e9
:020000040000fa
:04016000b2040000e5
:020000040000fa
:04016400b2040000e1
:020000040000fa
:04016800b2040000dd
:020000040000fa
:04016c00b2040000d9
:020000040000fa
:04017000b2040000d5
:020000040000fa
:04017400b2040000d1
:020000040000fa
:04017800b2040000cd
:020000040000fa
:04017c00b2040000c9
:020000040000fa
:04018000b2040000c5
:020000040000fa
:04018400b2040000c1
:020000040000fa
:04018800b2040000bd
:020000040000fa
:04018c00b2040000b9
:020000040000fa
:04019000b2040000b5
:020000040000fa
:04019400b2040000b1
:020000040000fa
:04019800b2040000ad
:020000040000fa
:04019c00b2040000a9
:020000040000fa
:0401a000b2040000a5
:020000040000fa
:0401a400b2040000a1
:020000040000fa
:0401a800b20400009d
:020000040000fa
:0401ac00b204000099
:020000040000fa
:0401b000b204000095
:020000040000fa
:0401b400b204000091
:020000040000fa
:0401b800b20400008d
:020000040000fa
:0401bc00b204000089
:020000040000fa
:0401c000b204000085
:020000040000fa
:0401c400b204000081
:020000040000fa
:0401c800b20400007d
:020000040000fa
:0401cc00b204000079
:020000040000fa
:0401d000b204000075
:020000040000fa
:0401d400b204000071
:020000040000fa
:0401d800b20400006d
:020000040000fa
:0401dc00b204000069
:020000040000fa
:0401e000b204000065
:020000040000fa
:0401e400b204000061
:020000040000fa
:0401e800b20400005d
:020000040000fa
:0401ec00b204000059
:020000040000fa
:0401f000b204000055
:020000040000fa
:0401f400b204000051
:020000040000fa
:0401f800b20400004d
:020000040000fa
:0401fc00b204000049
:020000040000fa
:04020000b204000044
:020000040000fa
:04020400b204000040
:020000040000fa
:04020800b20400003c
:020000040000fa
:04020c00b204000038
:020000040000fa
:04021000b204000034
:020000040000fa
:04021400b204000030
:020000040000fa
:04021800b20400002c
:020000040000fa
:04021c00b204000028
:020000040000fa
:04022000b204000024
:020000040000fa
:04022400b204000020
:020000040000fa
:04022800b20400001c
:020000040000fa
:04022c00b204000018
:020000040000fa
:04023000b204000014
:020000040000fa
:04023400b204000010
:020000040000fa
:04023800b20400000c
:020000040000fa
:04023c00b204000008
:020000040000fa
:04024000b204000004
:020000040000fa
:04024400b204000000
:020000040000fa
:04024800b2040000fc
:020000040000fa
:04024c00b2040000f8
:020000040000fa
:04025000c2030000e5
:020000040000fa
:04025400b2040000f0
:020000040000fa
:040258002e04000070
:020000040000fa
:04025c008804000012
:020000040000fa
:04026000b2040000e4
:020000040000fa
:04026400b2040000e0
:020000040000fa
:04026800b2040000dc
:020000040000fa
:04026c00b2040000d8
:020000040000fa
:04027000b2040000d4
:020000040000fa
:04027400b2040000d0
:020000040000fa
:04027800b2040000cc
:020000040000fa
:04027c00b2040000c8
:020000040000fa
:04028000b2040000c4
:020000040000fa
:04028400b2040000c0
:020000040000fa
:04028800b2040000bc
:020000040000fa
:04028c00b2040000b8
:020000040000fa
:04029000b2040000b4
:020000040000fa
:04029400b2040000b0
:020000040000fa
:04029800b2040000ac
:020000040000fa
:04029c00b2040000a8
:020000040000fa
:0402a000b2040000a4
:020000040000fa
:0402a400b2040000a0
:020000040000fa
:0402a800b20400009c
:020000040000fa
:0402ac00b204000098
:020000040000fa
:0402b000b204000094
:020000040000fa
:0402b400b204000090
:020000040000fa
:0402b800b20400008c
:020000040000fa
:0402bc00b204000088
:020000040000fa
:0402c000b204000084
:020000040000fa
:0402c400b204000080
:020000040000fa
:0402c800b20400007c
:020000040000fa
:0402cc00b204000078
:020000040000fa
:0402d000b204000074
:020000040000fa
:0402d400b204000070
:020000040000fa
:0402d800b20400006c
:020000040000fa
:0402dc00b204000068
:020000040000fa
:0402e000b204000064
:020000040000fa
:0402e400b204000060
:020000040000fa
:0402e800b20400005c
:020000040000fa
:0402ec00b204000058
:020000040000fa
:0402f000b204000054
:020000040000fa
:0402f400b204000050
:020000040000fa
:0402f800b20400004c
:020000040000fa
:0402fc00b204000048
:020000040000fa
:04030000b204000043
:020000040000fa
:04030400b20400003f
:020000040000fa
:04030800b20400003b
:020000040000fa
:04030c00b204000037
:020000040000fa
:04031000b204000033
:020000040000fa
:04031400b20400002f
:020000040000fa
:04031800b20400002b
:020000040000fa
:04031c00b204000027
:020000040000fa
:04032000b204000023
:020000040000fa
:100400008f0221000eff27000e018800000020004f
:100410000000e000020032000001200020028800fd
:1004200014000700510107000000e00003003a003b
:1004300040ad200001002000020037000000200035
:1004400001002000810f70004220ae000f00070065
:10045000000020000000e0004220ae00000002008a
:1004600000000000980a0200000000000040da00ce
:100470000000fe00200b20000000e000020032001f
:10048000002020009001880000000600a1028800e2
:10049000800478000000eb001f003700e284440075
:1004a00054a0b4009905ba00e284440054a0b400fa
:1004b0009906ba00e284440054a0b4000006eb00a0
:1004c000476fde00fd07b200ae018800636ce100fb
:1004d00003003a000ad801000000eb000e003700cc
:1004e000606ce10008003a00004deb000a05e800ee
:1004f000020039003420ec000af0a0008b05e9006e
:10050000f9ff3e00040037006168e100010032009d
:100510000086eb000b00070019c7ba001905ba00e6
:100520000e04e00003003a000a00e000dbff3a009e
:1005300000000600fe07b200ae0288008a047800c0
:10054000f5ff37000cd0a300e20f4d001c003b006c
:1005500089027800354dba000a05e800020039002a
:100560003420ec000af0a0008b05e9000f003200f7
:10057000254dba000a05e800020039003420ec00dd
:100580000af0a0008b05e900080032000c00e00032
:100590000600320015cdba000a05e8000200390055
:1005a0003420ec000af0a0008b05e9008984e80003
:1005b00054a0b4000b00e000e2ff3a000000060087
:1005c0009902ba00055d78008b05e900f7ff32005b
:1005d000c82ade00055d78008b05e900f3ff3200d4
:1005e0000c00e000f1ff320019ddba00eeff370029
:1005f0006100e10001003200100005005400f80025
:1006000050102000a002880000f927001000ba0056
:100610005400f9000700260000f0a6008703d1006f
:100620000703780001c4fe000003eb000120200056
:1006300091018800c1ae2800111303008703e9006f
:10064000fdff3a0000f0a7000000050000f0a00048
:1006500080c4fe0086037800f3ff37000408200002
:10066000010037000002eb006100e10001003200f0
:10067000100005003200f8003400f8008102780014
:10068000930188003200be000100e0000c0032003f
:100690000470a70000f0a00032037800c733de002a
:1006a000848343004220af008703e800a70188004d
:1006b000f607b2007f30e100040032002000200085
:1006c0003400f9003200f900000006008100e90062
:1006d0000500e00003003a00018009003210030029
:1006e000e8ff37000180090032900300d561ae00b9
:1006f000e4ff370030002000f1ff370050052000f4
:10070000b00e8800a00a2000b00e8800d3e1a80037
:100710000000060050052000b00e8800a00a20004e
:10072000b00e8800d3e1a900000006003600f800f2
:10073000809fbe00829fbe00849fbe00869fbe0039
:100740000000fa00804b28003503070000d0bf00ee
:100750000080fb00f00f8800e04c28003003070009
:1007600086eea9000988a9000080fa004f03be00a8
:100770004f02be004f01be004f00be003600f90020
:10078000004006003600f800809fbe00829fbe0039
:10079000849fbe00869fbe000000fa002300370041
:1007a00000d0bf00ff4f5000010036000070ef0086
:1007b00000d0bf000080fb00e10f80008140780086
:1007c000220021000000410001487800f04d28007f
:1007d0001303070000d0bf000080fb0021002100b0
:1007e00000804000104078000080fb0022030700da
:1007f000200221000a03070000d0bf000040e800eb
:1008000000f0b70000d0bf000080fb00f00f8800b0
:10081000204e28000203070000d0bf000080fb002c
:100820001503070020022100fd020700d00f800001
:10083000610060000000e000d9ff32001148a9000b
:100840000080fa004f03be004f02be004f01be0001
:100850004f00be003600f900004006003600f800e8
:10086000809fbe00829fbe00849fbe00869fbe0008
:100870000000fa00504e2800e9020700d00f800067
:10088000680060000000e000020032008051280093
:10089000e3020700d00f8000640060000000e00069
:1008a00002003200f0512800dd020700d10f800065
:1008b00000802000008060000000e00002003200a4
:1008c00060522800d6020700d10f800000402000af
:1008d000008060000000e00002003200d0522800da
:1008e000cf0207006502070040532800cc02070032
:1008f0001188a9000080fa004f03be004f02be001d
:100900004f01be004f00be003600f9000040060057
:100910003600f800809fbe00829fbe00849fbe000c
:10092000869fbe000000fa00c3e8a900905428008a
:10093000bb0207005102070040532800b80207001d
:1009400011a8a900c3e8a8000080fa004f03be0068
:100950004f02be004f01be004f00be003600f9003e
:10096000004006000040da000000fe000000050024
:020000040000fa
:1009700042750000747400006f6e00002077000064
:100980006173000020700000726500007373000046
:1009900065640000200d00000a00000044610000b2
:1009a0007461000020770000617300002073000074
:1009b000656e0000742000000d0a00000052000067
:1009c0003a000000573a0000004500005252000073
:1009d0004f5200003a2000004d5300004920000013
:1009e0002d20000046490000464f0000206f000007
:1009f00076650000726600006c6f000077200000d2
:100a00006f720000207500006e64000065720000c7
:100a1000666c00006f7700002064000065740000c1
:100a20006563000074650000640d00000a000000aa
:100a3000524600004f4600000d0a00000052000020
:100a400046550000460d00000a0000005746000011
:100a50004f4600000d0a00000057000046550000f8
:100a6000460d00000a00000046490000464f000005
:100a700020770000617300002072000065730000a1
:100a80007461000072740000656400000d0a0000cb
:100a900000450000525200004f5200003a20000072
:100aa000536c000061760000652000007375000043
:100ab0006666000065720000656400002072000038
:100ac0006573000074610000727400000d0a00007c
:040ad0000000000022
:020000040000fa
:100ad40000000000ca0000001f0000000002040023
:100ae4000000000038030000380300003803000051
:100af4003803000038030000380300003803000006
:100b040038030000380300003803000038030000f5
:100b140038030000380300003803000038030000e5
:100b240038030000380300003803000038030000d5
:100d2400380300003803000038030000fa02000012
:100d340038030000380300003803000038030000c3
:100d440038030000380300003803000038030000b3
:100d540038030000380300003803000038030000a3
:100d64003803000038030000380300003803000093
:100d74003803000038030000380300003803000083
:100d84003803000038030000380300003803000073
:100d94003803000038030000380300003803000063
:100da4003803000038030000380300003803000053
:100db4003803000038030000380300003803000043
:100dc4003803000038030000380300003803000033
:100dd4003803000038030000380300003803000023
:100de4003803000038030000380300003803000013
:100df4003803000038030000380300000000fe0040
:100e04000000fe0000020000f40000001f000000cb
:100e14002f0221000eff24000e01880000000000b4
:100e2400000020000000e000020032000001200069
:100e34002002880014000700930007000000e0006f
:100e440003003a00603d200001002000020037004a
:100e54000000200001002000810f7000010032001a
:100e64000f000700000020000000e0000200320034
:100e74000000020000000000c603020000000000a1
:100e84000040da000000fe00200020000000e00026
:100e940002003200100020009001880000000600cb
:100ea400a1028800800478000000eb001f003700d6
:100eb400e284440054a0b4009905ba00e2844400da
:100ec40054a0b4009906ba00e284440054a0b400cb
:100ed4000006eb00476fde00fd07b200ae0188009c
:100ee400636ce10003003a000ad801000000eb0043
:100ef4000e003700606ce10008003a00004deb0082
:100f04000a05e800020039003420ec000af0a000d1
:100f14008b05e900f9ff3e00040037006168e10039
:100f2400010032000086eb000b00070019c7ba006d
:100f34001905ba000e04e00003003a000a00e000bc
:100f4400dbff3a0000000600fe07b200ae02880094
:100f54008a047800f5ff37000cd0a300e20f4d009f
:100f64001c003b0089027800354dba000a05e800f0
:100f7400020039003420ec000af0a0008b05e900df
:100f84000f003200254dba000a05e80002003900be
:100f94003420ec000af0a0008b05e90008003200c0
:100fa4000c00e0000600320015cdba000a05e80086
:100fb400020039003420ec000af0a0008b05e9009f
:100fc4008984e80054a0b4000b00e000e2ff3a007a
:100fd400000006009902ba00055d78008b05e9005f
:100fe400f7ff3200c82ade00055d78008b05e900b2
:100ff400f3ff32000c00e000f1ff320019ddba000b
:10100400eeff3700809fbe00821f78000000fa00c8
:101014001100370000d0bf00ff4f50000100360020
:101024000070ef0000d0bf000080fb00f10f8000d3
:10103400814078002200210000004100014878002e
:1010440000d0bf000080fb00e00f880000d0bf008c
:101054000040e80000f0b700d10f8000001020002d
:10106400008060000000e000eaff32001148a9009f
:101074000080fa004f0178004f00be0000400600d7
:101084000040da000000fe00000005000000fa0045
:1010940000000000d10f80000008200000806000e4
:1010a4000000e000fbff320000000000d10f8000d0
:1010b40000002800008060000000e000fbff320018
:1010c400910e8000f03f2f0000806000900e880099
:1010d4000080fa00000006000000fa00317c800065
:1010e40000fc2f00008060000000a000307c88001d
:1010f400810c2000b0210a00880f0000517c800080
:10110400f0f82f00008060000060a000507c880090
:10111400517c800080ff2f00008060000000a00050
:10112400507c880000000000217c80000002200028
:10113400008060000000e000fbff32000080fa0045
:10114400000006000000fa00c3e8a900c1e8a800f6
:101154003148a80021448000f08f2f0000806000f7
:101164000090a000204488001148a900c3e8a8000a
:101174000080fa00000006000000fa00720ea900c8
:10118400722ea9000080fa00000006000000fa0098
:10119400b5efa9000080fa00000006000000fa0084
:1011a400faff0700ccff0700f3ff0700b7ff0700b3
:1011b400e4ff0700760ea800feff370002100000cf
:1011c4002000000080000000001000000200000069
:1011d40080000000000000000000fe000000fe008f
:0811e400000000000000000003
:020000040000fa
:1011ec000000fa00a1052000b0210a00880f0000c1
:1011fc00317c800000fc2f00008060000000a0000b
:10120c00307c8800517c8000f0f82f00008060005a
:10121c000050a000507c8800517c800080ff2f0083
:10122c00008060000000a000507c880000000000de
:10123c00217c800000022000008060000000e000a3
:10124c00fbff32000080fa00000006000000fa00ec
:10125c00fbe1a800fae1a800910e8000f03f2f00fe
:10126c0000806000900e88000080fa0000000600ec
:10127c000000fa00fbe1a900fae1a90000742700c4
:10128c00b1012000b7000700fbe1a800fae1a800bb
:10129c000080fa00000006000000fa00c3e8a90074
:1012ac00c1e8a8007feea8007f6ea80080eea90020
:1012bc0084eea8002988a8003143800080ff2f000d
:1012cc00008060000000a000304388000988a9005d
:1012dc003148a8003188a80031a8a800214480001a
:1012ec00f08f2f00008060000090a0002044880048
:1012fc003144800080ff2f00008060003000b3007c
:10130c003044880031448000f0f82f0000806000e9
:10131c000060a000304488001148a9001188a90081
:10132c0011a8a900c3e8a8000080fa00000006007c
:10133c000000fa00702eef0072eea8000000eb0027
:10134c0051052000b1468800a10a2000b146880052
:10135c0000688800d16c8000f00f2c0000806000c9
:10136c000080a000d06c8800008020005105200077
:10137c00b1468800a10a2000b146880000688800a8
:10138c000080fa00000006000400fa003b62a9008d
:10139c0038e2a800d1118000f09f2f00008060007f
:1013ac00d01188006018200001002000008fbe00c2
:1013bc001e007800001288001e00be004008de00ef
:1013cc000000780010128800c111800000ff2f006f
:1013dc0000806000c011880038a2a80039e2a80083
:1013ec000080fa00000006000200fa00004f7800ae
:1013fc0000000000f0118000700060000000e000b0
:10140c00fcff3a001e00fb00401288000080fa002e
:10141c00000006000400fa008e80e80080087800c6
:10142c000000eb00000f7800070037009e007800ea
:10143c000e80e80010007800010040001040780099
:10144c00e9ff07001e0fe8009e0078000e80e80000
:10145c001000780001004000104078000004e0000b
:10146c00f2ff3a000080fa00000006000400fa00c7
:10147c00000f780040022100100798001e01780030
:10148c00a100200081017800050009000301d800ab
:10149c00814078000143b0001e00900001487800a4
:1014ac00330221009e0078004006200000017800e5
:1014bc00050009008200d8008000fd0000017800c2
:1014cc00706626000090b900c288de004f90de00e6
:1014dc0000805000004078000043b0008049780044
:1014ec001e017800b04721000090b900c388de00cf
:1014fc004f90de0000805000004078000043b000a8
:10150c008040780020022100014878000080fa0019
:10151c00000006000000fa00b5efa9000080fa00f8
:10152c00000006000000fa00889fbe00f9ff0700cb
:10153c002bff07007eff070093ff070043ff070008
:10154c00a8562800092020000801be008000eb00ee
:10155c001000200040fc070065fc07004eff070050
:04156c00ffff370046
:020000040000fa
:10157000f03fb1000180b10006003500ee03090024
:1015800000000000403fb1000180b100fbff3d00c2
:101590001000b000203fb0000200350000800900bc
:0815a00000000000000006003d
:020000040000fa
:1015a8002210000006000000820000000000000079
:1015b8000d0a00000210000020000000800000005a
:1015c8000010000002000000800000000000000081
:020000040000fa
:0415d800ffffff0012
:020000040000fa
:02000004000af0
:04fe0000ffffff0001
:020000040000fa
:02000004000af0
:04fe2000ffffff00e1
:020000040000fa
:02000004000af0
:04fe3000fbffff00d5
:020000040000fa
:02000004000af0
:04fe3800bdf7ff0013
:020000040000fa
:02000004000af0
:04fe40007f7fff00c1
:020000040000fa
:02000004000af0
:04fe4800ffffff00b9
:020000040000fa
:02000004000af0
:04fe5000dfffff00d1
:020000040000fa
:02000004000af0
:04fe5800ffffff00a9
:020000040000fa
:02000004000af0
:04fe6000ffffff00a1
:020000040000fa
:02000004000af0
:04fe6800ffffff0099
:020000040000fa
:02000004000af0
:04fe7000ffffff0091
:020000040000fa
:02000004000af0
:04fe7800ffffff0089
:020000040000fa
:02000004000af0
:04fe8000fffcff0084
:020000040000fa
:02000004000af0
:04fe8800ffffff0079
:020000040000fa
:02000004000af0
:04feb000ffffff0051
:020000040000fa
:02000004000af0
:04fec000ffffff0041
:020000040000fa
:02000004000af0
:04fed000ffffff0031
:020000040000fa
:02000004000af0
:04fee000ffffff0021
:020000040000fa
:02000004000af0
:04fef000fcffff0014
:020000040000fa
:02000004000af0
:04ff0000fbffff0004
:020000040000fa
:02000004000af0
:04ff0800bfffff0038
:020000040000fa
:02000004000af0
:04ff1000f453ff00a7
:020000040000fa
:02000004000af0
:04ff1800ffffff00e8
:020000040000fa
:02000004000af0
:04ff2000ffffff00e0
:020000040000fa
:02000004000af0
:04ff2800ffffff00d8
:020000040000fa
:02000004000af0
:04ff3000ffffff00d0
:020000040000fa
:02000004000af0
:04ff3800ffffff00c8
:020000040000fa
:02000004000af0
:04ff4000ffffff00c0
:020000040000fa
:02000004000af0
:04ff4800ffffff00b8
:020000040000fa
:02000004000af0
:04ff5000ffffff00b0
:020000040000fa
:02000004000af0
:04ff5800ffffff00a8
:020000040000fa
:02000004000af0
:04fff800ffffff0008
:00000001FF
