:020000040000fa
:080000000002040000000000f2
:020000040000fa
:04000800b60300003b
:020000040000fa
:04000c00b603000037
:020000040000fa
:04001000b603000033
:020000040000fa
:04001400b60300002f
:020000040000fa
:04001800b60300002b
:020000040000fa
:04001c00b603000027
:020000040000fa
:04002000b603000023
:020000040000fa
:04002400b60300001f
:020000040000fa
:04002800b60300001b
:020000040000fa
:04002c00b603000017
:020000040000fa
:04003000b603000013
:020000040000fa
:04003400b60300000f
:020000040000fa
:04003800b60300000b
:020000040000fa
:04003c00b603000007
:020000040000fa
:04004000b603000003
:020000040000fa
:04004400b6030000ff
:020000040000fa
:04004800b6030000fb
:020000040000fa
:04004c00b6030000f7
:020000040000fa
:04005000b6030000f3
:020000040000fa
:04005400b6030000ef
:020000040000fa
:04005800b6030000eb
:020000040000fa
:04005c00b6030000e7
:020000040000fa
:04006000b6030000e3
:020000040000fa
:04006400b6030000df
:020000040000fa
:04006800b6030000db
:020000040000fa
:04006c00b6030000d7
:020000040000fa
:04007000b6030000d3
:020000040000fa
:04007400b6030000cf
:020000040000fa
:04007800b6030000cb
:020000040000fa
:04007c00b6030000c7
:020000040000fa
:04008000b6030000c3
:020000040000fa
:04008400b6030000bf
:020000040000fa
:04008800b6030000bb
:020000040000fa
:04008c00b6030000b7
:020000040000fa
:04009000b6030000b3
:020000040000fa
:04009400b6030000af
:020000040000fa
:04009800b6030000ab
:020000040000fa
:04009c00b6030000a7
:020000040000fa
:0400a000b6030000a3
:020000040000fa
:0400a400b60300009f
:020000040000fa
:0400a800b60300009b
:020000040000fa
:0400ac00b603000097
:020000040000fa
:0400b000b603000093
:020000040000fa
:0400b400b60300008f
:020000040000fa
:0400b800b60300008b
:020000040000fa
:0400bc00b603000087
:020000040000fa
:0400c000b603000083
:020000040000fa
:0400c400b60300007f
:020000040000fa
:0400c800b60300007b
:020000040000fa
:0400cc00b603000077
:020000040000fa
:0400d000b603000073
:020000040000fa
:0400d400b60300006f
:020000040000fa
:0400d800b60300006b
:020000040000fa
:0400dc00b603000067
:020000040000fa
:0400e000b603000063
:020000040000fa
:0400e400b60300005f
:020000040000fa
:0400e800b60300005b
:020000040000fa
:0400ec00b603000057
:020000040000fa
:0400f000b603000053
:020000040000fa
:0400f400b60300004f
:020000040000fa
:0400f800b60300004b
:020000040000fa
:0400fc00b603000047
:020000040000fa
:04010000b603000042
:020000040000fa
:04010400b60300003e
:020000040000fa
:04010800b60300003a
:020000040000fa
:04010c00b603000036
:020000040000fa
:04011000b603000032
:020000040000fa
:04011400b60300002e
:020000040000fa
:04011800b60300002a
:020000040000fa
:04011c00b603000026
:020000040000fa
:04012000b603000022
:020000040000fa
:04012400b60300001e
:020000040000fa
:04012800b60300001a
:020000040000fa
:04012c00b603000016
:020000040000fa
:04013000b603000012
:020000040000fa
:04013400b60300000e
:020000040000fa
:04013800b60300000a
:020000040000fa
:04013c00b603000006
:020000040000fa
:04014000b603000002
:020000040000fa
:04014400b6030000fe
:020000040000fa
:04014800b6030000fa
:020000040000fa
:04014c00b6030000f6
:020000040000fa
:04015000b6030000f2
:020000040000fa
:04015400b6030000ee
:020000040000fa
:04015800960300000a
:020000040000fa
:04015c00b6030000e6
:020000040000fa
:04016000b6030000e2
:020000040000fa
:04016400b6030000de
:020000040000fa
:04016800b6030000da
:020000040000fa
:04016c00b6030000d6
:020000040000fa
:04017000b6030000d2
:020000040000fa
:04017400b6030000ce
:020000040000fa
:04017800b6030000ca
:020000040000fa
:04017c00b6030000c6
:020000040000fa
:04018000b6030000c2
:020000040000fa
:04018400b6030000be
:020000040000fa
:04018800b6030000ba
:020000040000fa
:04018c00b6030000b6
:020000040000fa
:04019000b6030000b2
:020000040000fa
:04019400b6030000ae
:020000040000fa
:04019800b6030000aa
:020000040000fa
:04019c00b6030000a6
:020000040000fa
:0401a000b6030000a2
:020000040000fa
:0401a400b60300009e
:020000040000fa
:0401a800b60300009a
:020000040000fa
:0401ac00b603000096
:020000040000fa
:0401b000b603000092
:020000040000fa
:0401b400b60300008e
:020000040000fa
:0401b800b60300008a
:020000040000fa
:0401bc00b603000086
:020000040000fa
:0401c000b603000082
:020000040000fa
:0401c400b60300007e
:020000040000fa
:0401c800b60300007a
:020000040000fa
:0401cc00b603000076
:020000040000fa
:0401d000b603000072
:020000040000fa
:0401d400b60300006e
:020000040000fa
:0401d800b60300006a
:020000040000fa
:0401dc00b603000066
:020000040000fa
:0401e000b603000062
:020000040000fa
:0401e400b60300005e
:020000040000fa
:0401e800b60300005a
:020000040000fa
:0401ec00b603000056
:020000040000fa
:0401f000b603000052
:020000040000fa
:0401f400b60300004e
:020000040000fa
:0401f800b60300004a
:020000040000fa
:0401fc00b603000046
:020000040000fa
:04020000b603000041
:020000040000fa
:04020400b60300003d
:020000040000fa
:04020800b603000039
:020000040000fa
:04020c00b603000035
:020000040000fa
:04021000b603000031
:020000040000fa
:04021400b60300002d
:020000040000fa
:04021800b603000029
:020000040000fa
:04021c00b603000025
:020000040000fa
:04022000b603000021
:020000040000fa
:04022400b60300001d
:020000040000fa
:04022800b603000019
:020000040000fa
:04022c00b603000015
:020000040000fa
:04023000b603000011
:020000040000fa
:04023400b60300000d
:020000040000fa
:04023800b603000009
:020000040000fa
:04023c00b603000005
:020000040000fa
:04024000b603000001
:020000040000fa
:04024400b6030000fd
:020000040000fa
:04024800b6030000f9
:020000040000fa
:04024c00b6030000f5
:020000040000fa
:04025000b6030000f1
:020000040000fa
:04025400b6030000ed
:020000040000fa
:04025800b6030000e9
:020000040000fa
:04025c00b6030000e5
:020000040000fa
:04026000b6030000e1
:020000040000fa
:04026400b6030000dd
:020000040000fa
:04026800b6030000d9
:020000040000fa
:04026c00b6030000d5
:020000040000fa
:04027000b6030000d1
:020000040000fa
:04027400b6030000cd
:020000040000fa
:04027800b6030000c9
:020000040000fa
:04027c00b6030000c5
:020000040000fa
:04028000b6030000c1
:020000040000fa
:04028400b6030000bd
:020000040000fa
:04028800b6030000b9
:020000040000fa
:04028c00b6030000b5
:020000040000fa
:04029000b6030000b1
:020000040000fa
:04029400b6030000ad
:020000040000fa
:04029800b6030000a9
:020000040000fa
:04029c00b6030000a5
:020000040000fa
:0402a000b6030000a1
:020000040000fa
:0402a400b60300009d
:020000040000fa
:0402a800b603000099
:020000040000fa
:0402ac00b603000095
:020000040000fa
:0402b000b603000091
:020000040000fa
:0402b400b60300008d
:020000040000fa
:0402b800b603000089
:020000040000fa
:0402bc00b603000085
:020000040000fa
:0402c000b603000081
:020000040000fa
:0402c400b60300007d
:020000040000fa
:0402c800b603000079
:020000040000fa
:0402cc00b603000075
:020000040000fa
:0402d000b603000071
:020000040000fa
:0402d400b60300006d
:020000040000fa
:0402d800b603000069
:020000040000fa
:0402dc00b603000065
:020000040000fa
:0402e000b603000061
:020000040000fa
:0402e400b60300005d
:020000040000fa
:0402e800b603000059
:020000040000fa
:0402ec00b603000055
:020000040000fa
:0402f000b603000051
:020000040000fa
:0402f400b60300004d
:020000040000fa
:0402f800b603000049
:020000040000fa
:0402fc00b603000045
:020000040000fa
:04030000b603000040
:020000040000fa
:04030400b60300003c
:020000040000fa
:04030800b603000038
:020000040000fa
:04030c00b603000034
:020000040000fa
:04031000b603000030
:020000040000fa
:04031400b60300002c
:020000040000fa
:04031800b603000028
:020000040000fa
:04031c00b603000024
:020000040000fa
:04032000b603000020
:020000040000fa
:100400000f0021000eff2c000e01880000002000cc
:100410000000e000020032000001200020028800fd
:1004200014000700d30007000000e00003003a00ba
:100430000000200001002000020037000000200022
:1004400001002000810f70004220ae000f00070065
:10045000000020000000e0004220ae00000002008a
:1004600000000000c80d0200000000000040da009b
:100470000000fe00200020000000e000020032002a
:10048000100020009001880000000600a1028800f2
:10049000800478000000eb001f003700e284440075
:1004a00054a0b4009905ba00e284440054a0b400fa
:1004b0009906ba00e284440054a0b4000006eb00a0
:1004c000476fde00fd07b200ae018800636ce100fb
:1004d00003003a000ad801000000eb000e003700cc
:1004e000606ce10008003a00004deb000a05e800ee
:1004f000020039003420ec000af0a0008b05e9006e
:10050000f9ff3e00040037006168e100010032009d
:100510000086eb000b00070019c7ba001905ba00e6
:100520000e04e00003003a000a00e000dbff3a009e
:1005300000000600fe07b200ae0288008a047800c0
:10054000f5ff37000cd0a300e20f4d001c003b006c
:1005500089027800354dba000a05e800020039002a
:100560003420ec000af0a0008b05e9000f003200f7
:10057000254dba000a05e800020039003420ec00dd
:100580000af0a0008b05e900080032000c00e00032
:100590000600320015cdba000a05e8000200390055
:1005a0003420ec000af0a0008b05e9008984e80003
:1005b00054a0b4000b00e000e2ff3a000000060087
:1005c0009902ba00055d78008b05e900f7ff32005b
:1005d000c82ade00055d78008b05e900f3ff3200d4
:1005e0000c00e000f1ff320019ddba00eeff370029
:1005f0006100e10001003200100005005400f80025
:1006000050102000a002880000f927001000ba0056
:100610005400f9000700260000f0a6008703d1006f
:100620000703780001c4fe000003eb000120200056
:100630009101880041de2800111303008703e900bf
:10064000fdff3a0000f0a7000000050000f0a00048
:1006500080c4fe0086037800f3ff37000408200002
:10066000010037000002eb006100e10001003200f0
:10067000100005003200f8003400f8008102780014
:10068000930188003200be000100e0000c0032003f
:100690000470a70000f0a00032037800c733de002a
:1006a000848343004220af008703e800a70188004d
:1006b000f607b2007f30e100040032002000200085
:1006c0003400f9003200f900000006008100e90062
:1006d0000500e00003003a00018009003210030029
:1006e000e8ff37000180090032900300d561ae00b9
:1006f000e4ff370030002000f1ff370050052000f4
:10070000b00e8800a00a2000b00e8800d3e1a80037
:100710000000060050052000b00e8800a00a20004e
:10072000b00e8800d3e1a90000000600801f780009
:100730000000fa00c3e8a900a07380006100600017
:100740000000e00002003a00760ea8000100370029
:10075000760ea90086eea9000988a900c3e8a800c2
:100760000080fa004f007800004006000040da00e8
:080770000000fe00000005007e
:020000040000fa
:1007780000000000ca0000001f0000000002040082
:10078800000000001e0300001e0300001e030000fe
:100798001e0300001e0300001e0300001e030000cd
:1007a8001e0300001e0300001e0300001e030000bd
:1007b8001e0300001e0300001e0300001e030000ad
:1007c8001e0300001e0300001e0300001e0300009d
:1007d8001e0300001e0300001e0300001e0300008d
:1007e8001e0300001e0300001e0300001e0300007d
:1007f8001e0300001e0300001e0300001e0300006d
:100808001e0300001e0300001e0300001e0300005c
:100818001e0300001e0300001e0300001e0300004c
:100828001e0300001e0300001e0300001e0300003c
:100838001e0300001e0300001e0300001e0300002c
:100848001e0300001e0300001e0300001e0300001c
:100858001e0300001e0300001e0300001e0300000c
:100868001e0300001e0300001e0300001e030000fc
:100878001e0300001e0300001e0300001e030000ec
:100888001e0300001e0300001e0300001e030000dc
:100898001e0300001e0300001e0300001e030000cc
:1008a8001e0300001e0300001e0300001e030000bc
:1008b8001e0300001e0300001e0300001e030000ac
:1008c8001e0300001e0300001e0300001e0300009c
:1008d8001e0300001e0300001e0300001e0300008c
:1008e8001e0300001e0300001e0300001e0300007c
:1008f8001e0300001e0300001e0300001e0300006c
:100908001e0300001e0300001e0300001e0300005b
:10091800fa0200001e0300001e0300001e03000070
:100928001e0300001e0300001e0300001e0300003b
:100938001e0300001e0300001e0300001e0300002b
:100948001e0300001e0300001e0300001e0300001b
:100958001e0300001e0300001e0300001e0300000b
:100968001e0300001e0300001e0300001e030000fb
:100978001e0300001e0300001e0300001e030000eb
:100988001e0300001e0300001e0300001e030000db
:100998001e0300001e0300001e0300001e030000cb
:1009a8001e0300001e0300001e0300001e030000bb
:1009b8001e0300001e0300001e0300001e030000ab
:1009c8001e0300001e0300001e0300001e0300009b
:1009d8001e0300001e0300001e0300001e0300008b
:1009e8001e0300001e0300001e0300001e0300007b
:1009f8001e0300001e0300001e0300001e0300006b
:100a08001e0300001e0300001e0300001e0300005a
:100a18001e0300001e0300001e0300001e0300004a
:100a28001e0300001e0300001e0300001e0300003a
:100a38001e0300001e0300001e0300001e0300002a
:100a48001e0300001e0300001e0300001e0300001a
:100a58001e0300001e0300001e0300001e0300000a
:100a68001e0300001e0300001e0300001e030000fa
:100a78001e0300001e0300001e0300001e030000ea
:100a88001e0300001e0300001e0300001e030000da
:100a98001e0300001e0300001e0300000000fe00ed
:100aa8000000fe0000020000000200001f0000001d
:100ab8000f0021000eff24000e0188000000000036
:100ac800000020000000e0000200320000012000c9
:100ad8002002880014000700860007000000e000dc
:100ae80003003a0000002000010020000200370047
:100af8000000200001002000810f7000010032007a
:100b08000f000700000020000000e0000200320093
:100b1800000002000000000066080200000000005b
:100b28000040da000000fe00e00620000000e000bf
:100b3800020032000020200090018800000006001a
:100b4800a1028800800478000000eb001f00370035
:100b5800e284440054a0b4009905ba00e284440039
:100b680054a0b4009906ba00e284440054a0b4002a
:100b78000006eb00476fde00fd07b200ae018800fb
:100b8800636ce10003003a000ad801000000eb00a2
:100b98000e003700606ce10008003a00004deb00e1
:100ba8000a05e800020039003420ec000af0a00031
:100bb8008b05e900f9ff3e00040037006168e10099
:100bc800010032000086eb000b00070019c7ba00cd
:100bd8001905ba000e04e00003003a000a00e0001c
:100be800dbff3a0000000600fe07b200ae028800f4
:100bf8008a047800f5ff37000cd0a300e20f4d00ff
:100c08001c003b0089027800354dba000a05e8004f
:100c1800020039003420ec000af0a0008b05e9003e
:100c28000f003200254dba000a05e800020039001d
:100c38003420ec000af0a0008b05e900080032001f
:100c48000c00e0000600320015cdba000a05e800e5
:100c5800020039003420ec000af0a0008b05e900fe
:100c68008984e80054a0b4000b00e000e2ff3a00d9
:100c7800000006009902ba00055d78008b05e900be
:100c8800f7ff3200c82ade00055d78008b05e90011
:100c9800f3ff32000c00e000f1ff320019ddba006a
:100ca800eeff37003600f800809fbe00829fbe002e
:100cb800849fbe00869fbe000000fa00606080002e
:100cc8001b020700305f2800030207000b68a90019
:100cd8000080fa004f03be004f02be004f01be0065
:100ce8004f00be003600f900004006000040da0060
:100cf8000000fe00000005000001be00190007000a
:100d08000470a70003f0a10003f8a30013003a0041
:100d18006509b10010003200090035006928e100ba
:100d28000200350001002800000005000000400016
:100d3800818048008502e900fcff3a0000000600b7
:100d4800f88f4200050035008100d1000080d300f3
:100d58008502e800fcff3a00000006008000eb0076
:100d680000000500c70ade00f107b200f50fb20067
:100d780008003200e1cf4200020032000170a000fa
:100d880024000500810f70000100320004080500ee
:100d980044000500810f700002003a0014000500ad
:100da8008502e9000000400081c04800fcff3b00cc
:100db8000170a000240005000383680007002800d4
:100dc80007036300470ade000480a100c71ade009b
:100dd8000580a100f70f20000720e1004200320043
:100de8000728e10040003200889fbe008a9fbe00ad
:100df8008c1f7800f107b200f307b2000400e0008e
:100e0800640032000170a0000500e00068003200b4
:100e18000370a00085054200eb07b1000204b8008a
:100e28000302b8008484440060854a00020ab800be
:100e3800848444000a854a00030ab8000405450072
:100e4800040033000804d0008984d2000a85d20047
:100e58008b05e9006158e1003d00350002102000d3
:100e6800090161000308200089816100f70720005b
:100e78008783640008867300c84cde00c853dd0011
:100e8800878474004855de000300e0000600320045
:100e980082037600040032008904e80060054d00f2
:100ea8000a88a3000c003a00f70f20000758e10059
:100eb80044003d000a70a100c75ddd000a85750089
:100ec8008a007300090078004f0678004f05be00bd
:100ed8004f04be00000006000a05d1008984d30033
:100ee8008b05e800f0ff3700881f780006047800bb
:100ef80090000700070278000001fd008101fd0055
:100f08008c00070087027800850372000778a30029
:100f1800050032000001fd008101fd009f0007006f
:100f28004f04780000000600850372000748a300fc
:100f380003003200f0ff2f00f1ff2700f8ff370011
:100f48000000200001f8270088807000f4ff3700b7
:100f5800880178004848dd00808171004848de003b
:100f6800c850dd0001007000c850de00060478009b
:100f78000b0178001600070088807000d2ff370048
:100f88000500e00005003200170020003a000700c5
:100f98009dff370081037000f9ff3a008600780052
:100fa8004f0678004f05be004f04be000000050044
:100fb80083037100f9ff3200270020002e0007008c
:100fc80094ff370001f8270086807000f4ff37008f
:100fd8000100e00026003200610111007810e100f4
:100fe80023003c006022b8007010e10004003500c6
:100ff80080027800010078008000eb007001510049
:101008000200e0000900340070031100062add0028
:10101800822ade008603dd00878272000200de007d
:10102800860bdd00070070008208de0084817100f5
:10103800f4ff270004826200848171000400280004
:10104800848262006102600005f0a60000000600cc
:1010580004827100070032000000e800e0804800c8
:10106800000006000002be006000b800efff370075
:101078006000b80000000600889fbe000004eb0076
:101088006138e10016003a000100e00008003a006b
:10109800c800de004800dd00880020000100e000f4
:1010a80003003a00c800de004800dd006804440080
:1010b8008184cf00e9845400060034008908dd00eb
:1010c800f08314008703de00878070000900dd00cc
:1010d80009044400610214004f04be000000060029
:1010e8000300e00008003a00c811de004811dd00e6
:1010f800880020000300e00003003a00c811de0069
:101108004811dd00680444008384cf00e98454005a
:10111800060034008919dd00f08314008713de000f
:10112800878171000911dd0009044400e1021400ff
:10113800e9ff37002700200001f0a7001700200072
:10114800470bde00f60fb200040032000643e80049
:101158000a0032004702b3000000060001037800cd
:10116800f607b2000603700002003a000703b30056
:10117800000006008702b3000000060001037800a3
:10118800f607b20006037000020032000770a000e4
:10119800000006000760a000000006000478a30015
:1011a800040032000578a300030032000168a300a0
:1011b80001003a000200be000160a0000000060025
:1011c8000a0d00002d2d00002d2d00002d2d0000f2
:1011d8002d2d00002d2d00002d2d00002d2d00009f
:1011e8002d2d00002d2d00002d2d00002d2d00008f
:1011f8002d2d00002d2d00002d2d00002d2d00007f
:101208002d2d00002d2d00002d2d00002d2d00006e
:101218002d2d00002d2d00002d2d00002d2d00005e
:101228002d2d00002d0a00000d0000000a0d000001
:1012380020200000202000002020000020200000a6
:10124800202000002020000020200000535400002f
:1012580041520000544900004e470000205300004e
:101268004c410000564500002121000021210000ca
:101278002121000020200000202000002020000064
:101288002020000020200000202000002020000056
:101298000a0d0000000a0000000000000000fa002b
:1012a80002eba90051588000f0ff23000080600085
:1012b80000060000440100001f000000505888008c
:1012c80051588000f00f2c000080600050588800b2
:1012d8000aeba90071588000c0ff2f000080600051
:1012e8007058880011608000f00f2f008080600027
:1012f80000b020000100700010608800b15e80001e
:101308000030200001007000b05e8800100ba900ba
:10131800102ba900015c800000fe2f0000806000f7
:101328004001b300005c8800200ba8000080fa0090
:10133800000006000000fa0001eba8000200070008
:101348000080fa00000006000000fa00000ca80067
:101358000000000001608000001020000080600094
:101368000000e000fbff32000a0ba8000080fa0032
:10137800000006000000fa00317c800000fc2f000d
:10138800008060000000a000307c8800810c2000f4
:10139800b0210a00880f0000517c8000f0f82f006f
:1013a800008060000060a000507c8800517c8000b4
:1013b80080ff2f00008060000000a000507c8800a3
:1013c80000000000217c80000002200000806000f6
:1013d8000000e000fbff32000080fa000000060079
:1013e8000000fa00c1e8a9000b68a9002b68a80052
:1013f800c3e8a8000080fa00000006000000fa0018
:10140800722ea9000000eb0051052000b1468800ab
:10141800a10a2000b146880000688800d16c8000cd
:10142800f00f2c00008060000080a000d06c8800c5
:101438000080200051052000b1468800a10a200044
:10144800b146880000688800006ea800026ea800f7
:101458000080fa00000006000400fa003b62a900c0
:1014680038e2a800d1118000f09f2f0000806000b2
:10147800d01188008001200001002000008fbe00ec
:101488001e007800001288001e00be004008de0022
:101498000000780010128800c111800000ff2f00a2
:1014a80000806000c011880038a2a80039e2a800b6
:1014b8000080fa00000006000200fa00004f7800e1
:1014c80000000000f0118000700060000000e000e3
:1014d800fcff3a001e00fb00401288000080fa0062
:1014e800000006000400fa008e80e80080087800fa
:1014f8000000eb00000f7800070037009e0078001e
:101508000e80e800100078000100400010407800cc
:10151800e9ff07001e0fe8009e0078000e80e80033
:101528001000780001004000104078000004e0003e
:10153800f2ff3a000080fa00000006001400fa00ea
:10154800f00047008008780010002000000f7800a5
:101558007000470010007800cf00de000e80e80021
:101568000108780061002000640047000108780045
:1015780068004700020009000018eb000058eb0063
:101588000e80e800100078000000e000050032003e
:1015980070004700100078008000ea0070004700e3
:1015a8000108780070004700100078000000e00093
:1015b80023003a0064004700100078001e00500025
:1015c8006800400001c3b3000000470001487800ec
:1015d8001e0fe8001a00370064004700100078006a
:1015e8001e005000100f9800f0004700110178000d
:1015f800a100200081017800050009000301d8003e
:10160800814078000143b0001e0990006800410045
:10161800000047000148780070004700100178007a
:10162800706626000090b900c288de004f90de0088
:101638008080500070004700010878001e0fe80005
:1016480070004700100078000000e000e2ff3c0056
:101658000e80e800100078000000e000070032006b
:1016680064004700100078001e0050006800400029
:10167800d1c2b30000004700014878006400470069
:10168800900078001e007800008050008e80e800ee
:1016980091007800010050000000e800e8004700d1
:1016a8008080400066004700010878006600470017
:1016b800100078008bff07000080fa000000060089
:1016c8000400fa0070712b0011852300008fbe0002
:1016d800814a8000f08f2f0000806000804a8800d7
:1016e800814a8000f0f32f0000806000804a880063
:1016f80050a9a9005089a900814a800000ff2f0045
:10170800008060005000b300804a880052e9a900b8
:10171800914a800000fe2f0000806000904a8800f7
:101728005709a8005aa9a9006029ef0002c22b0096
:10173800e3cb24001e00be00a2fd070071fd0700d8
:1017480000007800204b8800204b80000000d1006a
:10175800404b8800404b80000000e800604b880048
:101768000080fa00000006000000fa0051e9a80015
:101778000080fa00000006000000fa00b5efa9009a
:101788000080fa00000006000000fa00faff0700d7
:10179800f8fe070019ff0700c9ff07002eff070022
:1017a800805828004fff0700e05b28004dff070026
:1017b800bdfe0700ecff070009ff0700ddfe07007c
:1017c800762ea800feff37000000fe000000000093
:0417d800000000000d
:020000040000fa
:1017dc000000fa00a1052000b0210a00880f0000cb
:1017ec00317c800000fc2f00008060000000a00015
:1017fc00307c8800517c8000f0f82f000080600065
:10180c000050a000507c8800517c800080ff2f008d
:10181c00008060000000a000507c880000000000e8
:10182c00217c800000022000008060000000e000ad
:10183c00fbff32000080fa00000006000000fa00f6
:10184c00c3e8a900c1e8a8007feea8007f6ea8003d
:10185c0080eea90084eea8003143800080ff2f00a9
:10186c00008060000000a000304388000988a900b7
:10187c002988a8002beea8002b6ea8002d6ea900bd
:10188c00316ea80001428000f0ff2800008060004b
:10189c0000d0a000004288000068a9002068a900c0
:1018ac00c3e8a8000080fa00000006000000fa005f
:1018bc00702eef00720ea90072eea8000000eb0073
:1018cc0051052000b1468800a10a2000b1468800cd
:1018dc0000688800d16c8000f00f2c000080600044
:1018ec000080a000d06c88000080200051052000f2
:1018fc00b1468800a10a2000b14688000068880023
:10190c001f6ea8000080fa00000006000400fa0018
:10191c003b62a90038e2a800d1118000f09f2f0093
:10192c0000806000d0118800c0022000010020005f
:10193c00008fbe001e007800001288001e00be0042
:10194c004008de000000780010128800c1118000f1
:10195c0000ff2f0000806000c011880038a2a80092
:10196c0039e2a8000080fa00000006000200fa002c
:10197c00004f780000000000f01180007000600043
:10198c000000e000fcff3a001e00fb004012880043
:10199c000080fa00000006000400fa008e80e800c7
:1019ac00800878000000eb00000f7800070037007b
:1019bc009e0078000e80e8001000780001004000c6
:1019cc0010407800e9ff07001e0fe8009e00780029
:1019dc000e80e800100078000100400010407800f4
:1019ec000004e000f2ff3a000080fa00000006005c
:1019fc001400fa00f0004700800878001000200066
:101a0c00000f78007000470010007800cf00de0057
:101a1c000e80e80001087800610020006400470097
:101a2c000108780068004700020009000018eb006c
:101a3c000058eb000e80e800100078000000e00079
:101a4c000500320070004700100078008000ea00aa
:101a5c007000470001087800700047001000780003
:101a6c000000e00023003a006400470010007800fa
:101a7c001e0050006800400001c3b3000000470086
:101a8c00014878001e0fe8001a0037006400470078
:101a9c00100078001e005000100f9800f000470056
:101aac0011017800a10020008101780005000900d7
:101abc000301d800814078000143b0001e0990005a
:101acc0068004100000047000148780070004700a2
:101adc0010017800706626000090b900c288de0004
:101aec004f90de00808050007000470001087800a5
:101afc001e0fe80070004700100078000000e000a6
:101b0c00e2ff3c000e80e800100078000000e000ce
:101b1c000700320064004700100078001e005000df
:101b2c0068004000d1c2b3000000470001487800b3
:101b3c0064004700900078001e0078000080500080
:101b4c008e80e80091007800010050000000e80051
:101b5c00e8004700808040006600470001087800dc
:101b6c0066004700100078008bff07000080fa0029
:101b7c00000006000000fa00b5efa9000080fa0092
:101b8c00000006000000fa00889fbe00f9ff070065
:101b9c000fff070045ff0700c83b28000920200065
:101bac000801be008000eb0010002000aafa07001c
:0c1bbc00cffa070021ff0700ffff3700f1
:020000040000fa
:041bc800ffffff001c
:020000040000fa
:02000004000af0
:04fe0000ffffff0001
:020000040000fa
:02000004000af0
:04fe2000ffffff00e1
:020000040000fa
:02000004000af0
:04fe3000fbffff00d5
:020000040000fa
:02000004000af0
:04fe3800bdf7ff0013
:020000040000fa
:02000004000af0
:04fe40007f7fff00c1
:020000040000fa
:02000004000af0
:04fe4800ffffff00b9
:020000040000fa
:02000004000af0
:04fe5000dfffff00d1
:020000040000fa
:02000004000af0
:04fe5800ffffff00a9
:020000040000fa
:02000004000af0
:04fe6000ffffff00a1
:020000040000fa
:02000004000af0
:04fe6800ffffff0099
:020000040000fa
:02000004000af0
:04fe7000ffffff0091
:020000040000fa
:02000004000af0
:04fe7800ffffff0089
:020000040000fa
:02000004000af0
:04fe8000fffcff0084
:020000040000fa
:02000004000af0
:04fe8800ffffff0079
:020000040000fa
:02000004000af0
:04feb000f7ffff0059
:020000040000fa
:02000004000af0
:04fec000ffffff0041
:020000040000fa
:02000004000af0
:04fed000fff7ff0039
:020000040000fa
:02000004000af0
:04fee000ffffff0021
:020000040000fa
:02000004000af0
:04fef000fdffff0013
:020000040000fa
:02000004000af0
:04ff0000fbffff0004
:020000040000fa
:02000004000af0
:04ff0800bfffff0038
:020000040000fa
:02000004000af0
:04ff1000f453ff00a7
:020000040000fa
:02000004000af0
:04ff1800ffffff00e8
:020000040000fa
:02000004000af0
:04ff2000ffffff00e0
:020000040000fa
:02000004000af0
:04ff2800ffffff00d8
:020000040000fa
:02000004000af0
:04ff3000ffffff00d0
:020000040000fa
:02000004000af0
:04ff3800ffffff00c8
:020000040000fa
:02000004000af0
:04ff4000ffffff00c0
:020000040000fa
:02000004000af0
:04ff4800ffffff00b8
:020000040000fa
:02000004000af0
:04ff5000ffffff00b0
:020000040000fa
:02000004000af0
:04ff5800ffffff00a8
:020000040000fa
:02000004000af0
:04fff800ffffff0008
:00000001FF
