:020000040000fa
:080000000002040000000000f2
:020000040000fa
:0400080038030000b9
:020000040000fa
:04000c0038030000b5
:020000040000fa
:0400100038030000b1
:020000040000fa
:0400140038030000ad
:020000040000fa
:0400180038030000a9
:020000040000fa
:04001c0038030000a5
:020000040000fa
:0400200038030000a1
:020000040000fa
:04002400380300009d
:020000040000fa
:040028003803000099
:020000040000fa
:04002c003803000095
:020000040000fa
:040030003803000091
:020000040000fa
:04003400380300008d
:020000040000fa
:040038003803000089
:020000040000fa
:04003c003803000085
:020000040000fa
:040040003803000081
:020000040000fa
:04004400380300007d
:020000040000fa
:040048003803000079
:020000040000fa
:04004c003803000075
:020000040000fa
:040050003803000071
:020000040000fa
:04005400380300006d
:020000040000fa
:040058003803000069
:020000040000fa
:04005c003803000065
:020000040000fa
:040060003803000061
:020000040000fa
:04006400380300005d
:020000040000fa
:040068003803000059
:020000040000fa
:04006c003803000055
:020000040000fa
:040070003803000051
:020000040000fa
:04007400380300004d
:020000040000fa
:040078003803000049
:020000040000fa
:04007c003803000045
:020000040000fa
:040080003803000041
:020000040000fa
:04008400380300003d
:020000040000fa
:040088003803000039
:020000040000fa
:04008c003803000035
:020000040000fa
:040090003803000031
:020000040000fa
:04009400380300002d
:020000040000fa
:040098003803000029
:020000040000fa
:04009c003803000025
:020000040000fa
:0400a0003803000021
:020000040000fa
:0400a400380300001d
:020000040000fa
:0400a8003803000019
:020000040000fa
:0400ac003803000015
:020000040000fa
:0400b0003803000011
:020000040000fa
:0400b400380300000d
:020000040000fa
:0400b8003803000009
:020000040000fa
:0400bc003803000005
:020000040000fa
:0400c0003803000001
:020000040000fa
:0400c40038030000fd
:020000040000fa
:0400c80038030000f9
:020000040000fa
:0400cc0038030000f5
:020000040000fa
:0400d00038030000f1
:020000040000fa
:0400d40038030000ed
:020000040000fa
:0400d80038030000e9
:020000040000fa
:0400dc0038030000e5
:020000040000fa
:0400e00038030000e1
:020000040000fa
:0400e40038030000dd
:020000040000fa
:0400e80038030000d9
:020000040000fa
:0400ec0038030000d5
:020000040000fa
:0400f00038030000d1
:020000040000fa
:0400f40038030000cd
:020000040000fa
:0400f80038030000c9
:020000040000fa
:0400fc0038030000c5
:020000040000fa
:0401000038030000c0
:020000040000fa
:0401040038030000bc
:020000040000fa
:0401080038030000b8
:020000040000fa
:04010c0038030000b4
:020000040000fa
:0401100038030000b0
:020000040000fa
:0401140038030000ac
:020000040000fa
:0401180038030000a8
:020000040000fa
:04011c0038030000a4
:020000040000fa
:0401200038030000a0
:020000040000fa
:04012400380300009c
:020000040000fa
:040128003803000098
:020000040000fa
:04012c003803000094
:020000040000fa
:040130003803000090
:020000040000fa
:04013400380300008c
:020000040000fa
:040138003803000088
:020000040000fa
:04013c003803000084
:020000040000fa
:040140003803000080
:020000040000fa
:04014400380300007c
:020000040000fa
:040148003803000078
:020000040000fa
:04014c003803000074
:020000040000fa
:040150003803000070
:020000040000fa
:04015400380300006c
:020000040000fa
:040158003803000068
:020000040000fa
:04015c003803000064
:020000040000fa
:040160003803000060
:020000040000fa
:04016400380300005c
:020000040000fa
:040168003803000058
:020000040000fa
:04016c003803000054
:020000040000fa
:040170003803000050
:020000040000fa
:04017400380300004c
:020000040000fa
:040178003803000048
:020000040000fa
:04017c003803000044
:020000040000fa
:040180003803000040
:020000040000fa
:04018400380300003c
:020000040000fa
:040188003803000038
:020000040000fa
:04018c003803000034
:020000040000fa
:040190003803000030
:020000040000fa
:04019400380300002c
:020000040000fa
:040198003803000028
:020000040000fa
:04019c003803000024
:020000040000fa
:0401a0003803000020
:020000040000fa
:0401a400380300001c
:020000040000fa
:0401a8003803000018
:020000040000fa
:0401ac003803000014
:020000040000fa
:0401b0003803000010
:020000040000fa
:0401b400380300000c
:020000040000fa
:0401b8003803000008
:020000040000fa
:0401bc003803000004
:020000040000fa
:0401c0003803000000
:020000040000fa
:0401c40038030000fc
:020000040000fa
:0401c80038030000f8
:020000040000fa
:0401cc0038030000f4
:020000040000fa
:0401d00038030000f0
:020000040000fa
:0401d40038030000ec
:020000040000fa
:0401d80038030000e8
:020000040000fa
:0401dc0038030000e4
:020000040000fa
:0401e00038030000e0
:020000040000fa
:0401e40038030000dc
:020000040000fa
:0401e80038030000d8
:020000040000fa
:0401ec0038030000d4
:020000040000fa
:0401f00038030000d0
:020000040000fa
:0401f40038030000cc
:020000040000fa
:0401f80038030000c8
:020000040000fa
:0401fc0038030000c4
:020000040000fa
:0402000038030000bf
:020000040000fa
:0402040038030000bb
:020000040000fa
:0402080038030000b7
:020000040000fa
:04020c0038030000b3
:020000040000fa
:0402100038030000af
:020000040000fa
:0402140038030000ab
:020000040000fa
:0402180038030000a7
:020000040000fa
:04021c0038030000a3
:020000040000fa
:04022000380300009f
:020000040000fa
:04022400380300009b
:020000040000fa
:040228003803000097
:020000040000fa
:04022c003803000093
:020000040000fa
:04023000380300008f
:020000040000fa
:04023400380300008b
:020000040000fa
:040238003803000087
:020000040000fa
:04023c003803000083
:020000040000fa
:04024000380300007f
:020000040000fa
:04024400380300007b
:020000040000fa
:040248003803000077
:020000040000fa
:04024c003803000073
:020000040000fa
:04025000fa020000ae
:020000040000fa
:04025400380300006b
:020000040000fa
:040258003803000067
:020000040000fa
:04025c003803000063
:020000040000fa
:04026000380300005f
:020000040000fa
:04026400380300005b
:020000040000fa
:040268003803000057
:020000040000fa
:04026c003803000053
:020000040000fa
:04027000380300004f
:020000040000fa
:04027400380300004b
:020000040000fa
:040278003803000047
:020000040000fa
:04027c003803000043
:020000040000fa
:04028000380300003f
:020000040000fa
:04028400380300003b
:020000040000fa
:040288003803000037
:020000040000fa
:04028c003803000033
:020000040000fa
:04029000380300002f
:020000040000fa
:04029400380300002b
:020000040000fa
:040298003803000027
:020000040000fa
:04029c003803000023
:020000040000fa
:0402a000380300001f
:020000040000fa
:0402a400380300001b
:020000040000fa
:0402a8003803000017
:020000040000fa
:0402ac003803000013
:020000040000fa
:0402b000380300000f
:020000040000fa
:0402b400380300000b
:020000040000fa
:0402b8003803000007
:020000040000fa
:0402bc003803000003
:020000040000fa
:0402c00038030000ff
:020000040000fa
:0402c40038030000fb
:020000040000fa
:0402c80038030000f7
:020000040000fa
:0402cc0038030000f3
:020000040000fa
:0402d00038030000ef
:020000040000fa
:0402d40038030000eb
:020000040000fa
:0402d80038030000e7
:020000040000fa
:0402dc0038030000e3
:020000040000fa
:0402e00038030000df
:020000040000fa
:0402e40038030000db
:020000040000fa
:0402e80038030000d7
:020000040000fa
:0402ec0038030000d3
:020000040000fa
:0402f00038030000cf
:020000040000fa
:0402f40038030000cb
:020000040000fa
:0402f80038030000c7
:020000040000fa
:0402fc0038030000c3
:020000040000fa
:0403000038030000be
:020000040000fa
:0403040038030000ba
:020000040000fa
:0403080038030000b6
:020000040000fa
:04030c0038030000b2
:020000040000fa
:0403100038030000ae
:020000040000fa
:0403140038030000aa
:020000040000fa
:0403180038030000a6
:020000040000fa
:04031c0038030000a2
:020000040000fa
:100400002f0221000eff24000e01880000000000d2
:10041000000020000000e000020032000001200087
:100420002002880014000700930007000000e0008d
:1004300003003a00603d2000010020000200370068
:100440000000200001002000810f70000100320038
:100450000f000700000020000000e0000200320052
:100460000000020000000000c603020000000000bf
:100470000040da000000fe00200020000000e00044
:1004800002003200100020009001880000000600e9
:10049000a1028800800478000000eb001f003700f4
:1004a000e284440054a0b4009905ba00e2844400f8
:1004b00054a0b4009906ba00e284440054a0b400e9
:1004c0000006eb00476fde00fd07b200ae018800ba
:1004d000636ce10003003a000ad801000000eb0061
:1004e0000e003700606ce10008003a00004deb00a0
:1004f0000a05e800020039003420ec000af0a000f0
:100500008b05e900f9ff3e00040037006168e10057
:10051000010032000086eb000b00070019c7ba008b
:100520001905ba000e04e00003003a000a00e000da
:10053000dbff3a0000000600fe07b200ae028800b2
:100540008a047800f5ff37000cd0a300e20f4d00bd
:100550001c003b0089027800354dba000a05e8000e
:10056000020039003420ec000af0a0008b05e900fd
:100570000f003200254dba000a05e80002003900dc
:100580003420ec000af0a0008b05e90008003200de
:100590000c00e0000600320015cdba000a05e800a4
:1005a000020039003420ec000af0a0008b05e900bd
:1005b0008984e80054a0b4000b00e000e2ff3a0098
:1005c000000006009902ba00055d78008b05e9007d
:1005d000f7ff3200c82ade00055d78008b05e900d0
:1005e000f3ff32000c00e000f1ff320019ddba0029
:1005f000eeff3700809fbe00821f78000000fa00e7
:100600001100370000d0bf00ff4f5000010036003e
:100610000070ef0000d0bf000080fb00f10f8000f1
:10062000814078002200210000004100014878004c
:1006300000d0bf000080fb00e00f880000d0bf00aa
:100640000040e80000f0b700d10f8000001020004b
:10065000008060000000e000eaff32001148a900bd
:100660000080fa004f0178004f00be0000400600f5
:0c0670000040da000000fe000000050061
:020000040000fa
:10067c000000fa0000000000d10f800000082000ec
:10068c00008060000000e000fbff32000000000072
:10069c00d10f800000002800008060000000e00006
:1006ac00fbff3200910e8000f03f2f0000806000b5
:1006bc00900e88000080fa00000006000000fa008e
:1006cc00317c800000fc2f00008060000000a00046
:1006dc00307c8800810c2000b0210a00880f0000bb
:1006ec00517c8000f0f82f00008060000060a000ba
:1006fc00507c8800517c800080ff2f0000806000bf
:10070c000000a000507c880000000000217c8000cc
:10071c0000022000008060000000e000fbff3200bf
:10072c000080fa00000006000000fa00c3e8a900ef
:10073c00c1e8a8003148a80021448000f08f2f00a8
:10074c00008060000090a000204488001148a9009f
:10075c00c3e8a8000080fa00000006000000fa00c0
:10076c00720ea900722ea9000080fa00000006008b
:10077c000000fa00b5efa9000080fa0000000600a6
:10078c000000fa00faff0700ccff0700f3ff070098
:10079c00b7ff0700e4ff0700760ea800feff370046
:020000040000fa
:1007ac00021000002000000080000000001000007b
:0c07bc00020000008000000000000000af
:00000001FF
