:020000040000fa
:080000000002040000000000f2
:020000040000fa
:04000800760400007a
:020000040000fa
:04000c007604000076
:020000040000fa
:040010007604000072
:020000040000fa
:04001400760400006e
:020000040000fa
:04001800760400006a
:020000040000fa
:04001c007604000066
:020000040000fa
:040020007604000062
:020000040000fa
:04002400760400005e
:020000040000fa
:04002800760400005a
:020000040000fa
:04002c007604000056
:020000040000fa
:040030007604000052
:020000040000fa
:04003400ce030000f7
:020000040000fa
:04003800760400004a
:020000040000fa
:04003c007604000046
:020000040000fa
:040040007604000042
:020000040000fa
:04004400760400003e
:020000040000fa
:04004800760400003a
:020000040000fa
:04004c007604000036
:020000040000fa
:040050007604000032
:020000040000fa
:04005400760400002e
:020000040000fa
:04005800760400002a
:020000040000fa
:04005c007604000026
:020000040000fa
:040060007604000022
:020000040000fa
:04006400760400001e
:020000040000fa
:04006800760400001a
:020000040000fa
:04006c00100400007c
:020000040000fa
:040070007604000012
:020000040000fa
:04007400760400000e
:020000040000fa
:04007800760400000a
:020000040000fa
:04007c007604000006
:020000040000fa
:040080007604000002
:020000040000fa
:0400840076040000fe
:020000040000fa
:0400880076040000fa
:020000040000fa
:04008c0076040000f6
:020000040000fa
:0400900076040000f2
:020000040000fa
:0400940076040000ee
:020000040000fa
:0400980076040000ea
:020000040000fa
:04009c0076040000e6
:020000040000fa
:0400a00076040000e2
:020000040000fa
:0400a40076040000de
:020000040000fa
:0400a80076040000da
:020000040000fa
:0400ac0076040000d6
:020000040000fa
:0400b00076040000d2
:020000040000fa
:0400b40076040000ce
:020000040000fa
:0400b80076040000ca
:020000040000fa
:0400bc0076040000c6
:020000040000fa
:0400c00076040000c2
:020000040000fa
:0400c40076040000be
:020000040000fa
:0400c80076040000ba
:020000040000fa
:0400cc0076040000b6
:020000040000fa
:0400d00076040000b2
:020000040000fa
:0400d40076040000ae
:020000040000fa
:0400d80076040000aa
:020000040000fa
:0400dc0076040000a6
:020000040000fa
:0400e00076040000a2
:020000040000fa
:0400e400760400009e
:020000040000fa
:0400e800760400009a
:020000040000fa
:0400ec007604000096
:020000040000fa
:0400f0007604000092
:020000040000fa
:0400f400760400008e
:020000040000fa
:0400f800760400008a
:020000040000fa
:0400fc007604000086
:020000040000fa
:040100007604000081
:020000040000fa
:04010400760400007d
:020000040000fa
:040108007604000079
:020000040000fa
:04010c007604000075
:020000040000fa
:040110007604000071
:020000040000fa
:04011400760400006d
:020000040000fa
:040118007604000069
:020000040000fa
:04011c007604000065
:020000040000fa
:040120007604000061
:020000040000fa
:04012400760400005d
:020000040000fa
:04012800f2030000de
:020000040000fa
:04012c007604000055
:020000040000fa
:040130007604000051
:020000040000fa
:04013400760400004d
:020000040000fa
:040138007604000049
:020000040000fa
:04013c007604000045
:020000040000fa
:040140007604000041
:020000040000fa
:04014400760400003d
:020000040000fa
:040148007604000039
:020000040000fa
:04014c007604000035
:020000040000fa
:040150007604000031
:020000040000fa
:04015400760400002d
:020000040000fa
:04015800960300000a
:020000040000fa
:04015c007604000025
:020000040000fa
:040160007604000021
:020000040000fa
:04016400760400001d
:020000040000fa
:040168007604000019
:020000040000fa
:04016c007604000015
:020000040000fa
:040170007604000011
:020000040000fa
:04017400760400000d
:020000040000fa
:040178007604000009
:020000040000fa
:04017c007604000005
:020000040000fa
:040180007604000001
:020000040000fa
:0401840076040000fd
:020000040000fa
:0401880076040000f9
:020000040000fa
:04018c0076040000f5
:020000040000fa
:0401900076040000f1
:020000040000fa
:0401940076040000ed
:020000040000fa
:0401980076040000e9
:020000040000fa
:04019c0076040000e5
:020000040000fa
:0401a00076040000e1
:020000040000fa
:0401a40076040000dd
:020000040000fa
:0401a80076040000d9
:020000040000fa
:0401ac0076040000d5
:020000040000fa
:0401b00076040000d1
:020000040000fa
:0401b40076040000cd
:020000040000fa
:0401b80076040000c9
:020000040000fa
:0401bc0076040000c5
:020000040000fa
:0401c00076040000c1
:020000040000fa
:0401c40076040000bd
:020000040000fa
:0401c80076040000b9
:020000040000fa
:0401cc0076040000b5
:020000040000fa
:0401d00076040000b1
:020000040000fa
:0401d40076040000ad
:020000040000fa
:0401d80076040000a9
:020000040000fa
:0401dc0076040000a5
:020000040000fa
:0401e00076040000a1
:020000040000fa
:0401e400760400009d
:020000040000fa
:0401e8007604000099
:020000040000fa
:0401ec007604000095
:020000040000fa
:0401f0007604000091
:020000040000fa
:0401f400760400008d
:020000040000fa
:0401f8007604000089
:020000040000fa
:0401fc007604000085
:020000040000fa
:040200007604000080
:020000040000fa
:04020400760400007c
:020000040000fa
:040208007604000078
:020000040000fa
:04020c007604000074
:020000040000fa
:040210007604000070
:020000040000fa
:04021400760400006c
:020000040000fa
:040218007604000068
:020000040000fa
:04021c007604000064
:020000040000fa
:040220007604000060
:020000040000fa
:04022400760400005c
:020000040000fa
:040228007604000058
:020000040000fa
:04022c007604000054
:020000040000fa
:040230007604000050
:020000040000fa
:04023400760400004c
:020000040000fa
:040238007604000048
:020000040000fa
:04023c007604000044
:020000040000fa
:040240007604000040
:020000040000fa
:04024400760400003c
:020000040000fa
:040248007604000038
:020000040000fa
:04024c007604000034
:020000040000fa
:040250007604000030
:020000040000fa
:04025400760400002c
:020000040000fa
:040258007604000028
:020000040000fa
:04025c007604000024
:020000040000fa
:040260007604000020
:020000040000fa
:04026400760400001c
:020000040000fa
:040268007604000018
:020000040000fa
:04026c007604000014
:020000040000fa
:040270007604000010
:020000040000fa
:04027400760400000c
:020000040000fa
:040278007604000008
:020000040000fa
:04027c007604000004
:020000040000fa
:040280007604000000
:020000040000fa
:0402840076040000fc
:020000040000fa
:0402880076040000f8
:020000040000fa
:04028c0076040000f4
:020000040000fa
:0402900076040000f0
:020000040000fa
:0402940076040000ec
:020000040000fa
:0402980076040000e8
:020000040000fa
:04029c0076040000e4
:020000040000fa
:0402a00076040000e0
:020000040000fa
:0402a40076040000dc
:020000040000fa
:0402a80076040000d8
:020000040000fa
:0402ac0076040000d4
:020000040000fa
:0402b00076040000d0
:020000040000fa
:0402b40076040000cc
:020000040000fa
:0402b80076040000c8
:020000040000fa
:0402bc0076040000c4
:020000040000fa
:0402c00076040000c0
:020000040000fa
:0402c40076040000bc
:020000040000fa
:0402c80076040000b8
:020000040000fa
:0402cc0076040000b4
:020000040000fa
:0402d00076040000b0
:020000040000fa
:0402d40076040000ac
:020000040000fa
:0402d80076040000a8
:020000040000fa
:0402dc0076040000a4
:020000040000fa
:0402e00076040000a0
:020000040000fa
:0402e400760400009c
:020000040000fa
:0402e8007604000098
:020000040000fa
:0402ec007604000094
:020000040000fa
:0402f0007604000090
:020000040000fa
:0402f400760400008c
:020000040000fa
:0402f8007604000088
:020000040000fa
:0402fc007604000084
:020000040000fa
:04030000760400007f
:020000040000fa
:04030400760400007b
:020000040000fa
:040308007604000077
:020000040000fa
:04030c007604000073
:020000040000fa
:04031000760400006f
:020000040000fa
:04031400760400006b
:020000040000fa
:040318007604000067
:020000040000fa
:04031c007604000063
:020000040000fa
:04032000760400005f
:020000040000fa
:100400002f0221000eff27000e01880000002000af
:100410000000e000020032000001200020028800fd
:1004200014000700330107000000e00003003a0059
:1004300020dc200001002000020037000000200026
:1004400001002000810f70004220ae000f00070065
:10045000000020000000e0004220ae00000002008a
:1004600000000000a80d0200000000000040da00bb
:100470000000fe00202520000000e0000200320005
:10048000002020009001880000000600a1028800e2
:10049000800478000000eb001f003700e284440075
:1004a00054a0b4009905ba00e284440054a0b400fa
:1004b0009906ba00e284440054a0b4000006eb00a0
:1004c000476fde00fd07b200ae018800636ce100fb
:1004d00003003a000ad801000000eb000e003700cc
:1004e000606ce10008003a00004deb000a05e800ee
:1004f000020039003420ec000af0a0008b05e9006e
:10050000f9ff3e00040037006168e100010032009d
:100510000086eb000b00070019c7ba001905ba00e6
:100520000e04e00003003a000a00e000dbff3a009e
:1005300000000600fe07b200ae0288008a047800c0
:10054000f5ff37000cd0a300e20f4d001c003b006c
:1005500089027800354dba000a05e800020039002a
:100560003420ec000af0a0008b05e9000f003200f7
:10057000254dba000a05e800020039003420ec00dd
:100580000af0a0008b05e900080032000c00e00032
:100590000600320015cdba000a05e8000200390055
:1005a0003420ec000af0a0008b05e9008984e80003
:1005b00054a0b4000b00e000e2ff3a000000060087
:1005c0009902ba00055d78008b05e900f7ff32005b
:1005d000c82ade00055d78008b05e900f3ff3200d4
:1005e0000c00e000f1ff320019ddba00eeff370029
:1005f0006100e10001003200100005005400f80025
:1006000050102000a002880000f927001000ba0056
:100610005400f9000700260000f0a6008703d1006f
:100620000703780001c4fe000003eb000120200056
:1006300091018800e1df2800111303008703e9001e
:10064000fdff3a0000f0a7000000050000f0a00048
:1006500080c4fe0086037800f3ff37000408200002
:10066000010037000002eb006100e10001003200f0
:10067000100005003200f8003400f8008102780014
:10068000930188003200be000100e0000c0032003f
:100690000470a70000f0a00032037800c733de002a
:1006a000848343004220af008703e800a70188004d
:1006b000f607b2007f30e100040032002000200085
:1006c0003400f9003200f900000006008100e90062
:1006d0000500e00003003a00018009003210030029
:1006e000e8ff37000180090032900300d561ae00b9
:1006f000e4ff370030002000f1ff370050052000f4
:10070000b00e8800a00a2000b00e8800d3e1a80037
:100710000000060050052000b00e8800a00a20004e
:10072000b00e8800d3e1a900000006003600f800f2
:10073000809fbe00829fbe00849fbe00869fbe0039
:100740000000fa00c3e8a900a07380006100600007
:100750000000e00004003a00760ea800762ea90002
:100760006c03070003003700760ea900762ea80060
:100770006c03070086eea9000988a900c3e8a80059
:100780000080fa004f03be004f02be004f01be00c2
:100790004f00be003600f900004006003600f800a9
:1007a000809fbe00829fbe00849fbe00869fbe00c9
:1007b0000000fa009f03070010c0b30002f0b7006a
:1007c000336ea9000068a9000080fa004f03be0044
:1007d0004f02be004f01be004f00be003600f900c0
:1007e000004006003600f800809fbe00829fbe00d9
:1007f000849fbe00869fbe000000fa008a040700a6
:100800000808a9000080fa004f03be004f02be0096
:100810004f01be004f00be003600f9000040060048
:100820003600f800809fbe00829fbe00849fbe00fd
:10083000869fbe000000fa00211080000008200002
:10084000008060000000e0000a003a0021108000f3
:1008500000042000008060000000e00005003a0075
:100860002110800000402000008060000000e000b7
:100870001600320021108000000820000080600077
:100880000000e00003003200d0682800810107006a
:1008900004e2a90021108000000420000080600014
:1008a0000000e00003003200206b280079010700ff
:1008b00004c2a900211080000040200000806000d8
:1008c0000000e00001003200570407000228a900e0
:1008d0000080fa004f03be004f02be004f01be0071
:1008e0004f00be003600f900004006000040da006c
:0808f0000000fe0000000500fd
:020000040000fa
:1008f800414300004b200000776100007320000096
:100908006e6f0000742000007265000063650000cf
:100918006976000065640000206300006f720000c3
:1009280072650000637400006c79000020660000a6
:10093800726f00006d200000536c000061760000ab
:10094800650a000000530000656e0000646900003d
:100958006e670000206400006174000061200000e0
:10096800746f0000207300006c6100007665000061
:100978002e2e00002e0a000000520000756e0000a6
:100988006e6900006e670000206300006f6d000054
:100998006d7500006e6900006361000074690000f5
:1009a8006f6e000020740000657300007420000062
:1009b8002864000073700000696300002d4d00007a
:1009c800505500003630000035300000290a00007c
:1009d8000045000055520000454b00004121000031
:1009e80021200000574800004f5f0000414d0000e3
:1009f8005f4900002072000065670000697300000d
:100a08007465000072200000776f0000726b0000b0
:100a18006564000020610000732000006578000014
:100a2800706500006374000065640000200a00001f
:100a3800004a0000616d000065730000204200005c
:100a48006f6e0000642000003a2000005469000026
:100a58006d650000207400006f20000063720000c4
:100a680079000000436f00006e66000069670000af
:100a780075720000696e0000672000004d5000008c
:100a88005536000030350000302e00002e2e0000b4
:100a98002e0a0000004d00005055000036300000be
:100aa80035300000207300007563000063650000a6
:100ab80073730000667500006c6c000079200000fc
:100ac800636f00006e6600006967000075720000c1
:100ad800656400000a0000000a4600005543000053
:100ae8004b0a00000041000063630000656c0000d1
:100af8005b7800002c7900002c7a00005d2d000046
:100b080047790000726f00005b7800002c790000c4
:100b18002c7a00005d2d0000546500006d70000007
:100b28003a200000200000002020000000200000e3
:100b3800200a0000004200007573000020430000f6
:100b48006f6c00006c690000736900006f6e000034
:100b580020440000657400006563000074200000f4
:100b68006269000074280000424300004c2900001c
:100b78002e200000526500007374000061720000ae
:100b8800746900006e6700002049000032430000cd
:100b98002e2e00002e0a00000069000032630000bb
:100ba8002072000065730000746100007274000018
:100bb800656400000a0000005465000073740000ba
:100bc800696e000067200000616e0000642000006c
:100bd80063680000656300006b6900006e670000d1
:100be800206300006f6e00006669000067750000f2
:100bf80072610000746900006f6e0000206f0000d1
:100c0800662000004d5000005536000030350000c9
:100c1800300a0000004d000050550000363000003a
:100c280035300000206900006e2000006f7200005f
:100c380064650000720a0000000a00000d2d000023
:100c48002d2d00002d2d00002d2d00002d2d000034
:100c58002d2d00002d2d00002d2d00002d2d000024
:100c68002d2d00002d2d00002d2d00002d2d000014
:100c78002d2d00002d2d00002d2d00002d2d000004
:100c88002d2d00002d2d00002d2d00002d2d0000f4
:100c98002d2d00002d2d00002d2d00002d2d0000e4
:100ca8000a0d0000000a00000d20000020200000ae
:100cb800202000002020000020200000202000002c
:100cc800202000002053000054410000525400002e
:100cd800494e0000472000004445000056490000e6
:100ce80043450000212100002121000021210000ae
:100cf80020200000202000002020000020200000ec
:100d08002020000020200000202000000a0d000004
:100d1800005700007269000074650000204300005d
:100d28006f6c00006c690000736900006f6e000052
:100d38002044000065740000656300007420000012
:100d480042690000742000007761000073200000f1
:100d580073650000740a00000d0000005265000071
:100d68006365000069760000652000004f7600008a
:100d780065720000666c00006f7700002046000076
:100d88006c6100006720000042690000740a0000de
:040d98000d0000004a
:020000040000fa
:100d9c000000fa00a1052000b0210a00880f000015
:100dac00317c800000fc2f00008060000000a0005f
:100dbc00307c8800517c8000f0f82f0000806000af
:100dcc000050a000507c8800517c800080ff2f00d8
:100ddc00008060000000a000507c88000000000033
:100dec00217c800000022000008060000000e000f8
:100dfc00fbff32000080fa00000006000400fa003d
:100e0c003b62a90038e2a800d1118000f09f2f00ae
:100e1c0000806000d01188006018200001002000c4
:100e2c00008fbe001e007800001288001e00be005d
:100e3c004008de000000780010128800c11180000c
:100e4c0000ff2f0000806000c011880038a2a800ad
:100e5c0039e2a8000080fa00000006000200fa0047
:100e6c00004f780000000000f0118000700060005e
:100e7c000000e000fcff3a001e00fb00401288005e
:100e8c000080fa00000006000400fa008e80e800e2
:100e9c00800878000000eb00000f78000700370096
:100eac009e0078000e80e8001000780001004000e1
:100ebc0010407800e9ff07001e0fe8009e00780044
:100ecc000e80e8001000780001004000104078000f
:100edc000004e000f2ff3a000080fa000000060077
:100eec001400fa00f0004700800878001000200081
:100efc00000f78007000470010007800cf00de0073
:100f0c000e80e800010878006100200064004700b2
:100f1c000108780068004700020009000018eb0087
:100f2c000058eb000e80e800100078000000e00094
:100f3c000500320070004700100078008000ea00c5
:100f4c00700047000108780070004700100078001e
:100f5c000000e00023003a00640047001000780015
:100f6c001e0050006800400001c3b30000004700a1
:100f7c00014878001e0fe8001a0037006400470093
:100f8c00100078001e005000100f9800f000470071
:100f9c0011017800a10020008101780005000900f2
:100fac000301d800814078000143b0001e09900075
:100fbc0068004100000047000148780070004700bd
:100fcc0010017800706626000090b900c288de001f
:100fdc004f90de00808050007000470001087800c0
:100fec001e0fe80070004700100078000000e000c1
:100ffc00e2ff3c000e80e800100078000000e000ea
:10100c000700320064004700100078001e005000fa
:10101c0068004000d1c2b3000000470001487800ce
:10102c0064004700900078001e007800008050009b
:10103c008e80e80091007800010050000000e8006c
:10104c00e8004700808040006600470001087800f7
:10105c0066004700100078008bff07000080fa0044
:10106c00000006000e00fa00ec0047008008780033
:10107c0010002000000f7800410020000e80e800d6
:10108c0001087800e6004700010009008018eb0019
:10109c008058eb006c004700100078000000e00066
:1010ac0025003a000e80e800100078001e00500069
:1010bc006600400001c3b3000000470001487800ff
:1010cc001e0fe8001c0037000e80e80010007800ae
:1010dc001e0250006c0047009000780070662600dd
:1010ec000089b9004299de004f88de0000005100f3
:1010fc00ea00b90000805000004078000043b000c6
:10110c0080407800660042000000470001487800eb
:10111c006c00470010017800706626000090b90042
:10112c00c288de004f90de00808050006c004700cb
:10113c00010878001e0fe8006c00470010007800d2
:10114c000000e000e0ff3c000e80e800900078001a
:10115c001e007800008050000000e800e600470008
:10116c00808040006400470001087800640047005c
:10117c001000780044ff07000080fa000000060011
:10118c000000fa000142a900300d200080108800f8
:10119c0001e2a800a0052000010020008602070043
:1011ac000080fa00000006000000fa0001e2a9002d
:1011bc00a0052000010020007f0207000080fa003b
:1011cc00000006000000fa00370007000002a8002b
:1011dc000080fa00000006000000fa003200070050
:1011ec000022a8000080fa00000006000000fa00af
:1011fc002d0007000042a8000080fa000000060045
:10120c000000fa002800070000a2a9000082a80034
:10121c000080fa00000006000000fa00220007001f
:10122c0000a2a8000082a8000080fa0000000600be
:10123c000200fa00004f78001b0007001e00fb00a4
:10124c00a010880000000000211080000000240085
:10125c00008060000000e0000500320021108000da
:10126c0000402000008060000000e000f6ff32002b
:10127c002110800000002800008060000000e000c9
:10128c000700320021108000004020000080600028
:10129c000000e00002003a00c0472800fafe0700f8
:1012ac000080fa00000006000000fa0000000000b8
:1012bc0000108000610060000000e000fcff3a00bc
:1012cc0000108000620060000000e000f8ff3a00af
:1012dc0000108000640060000000e000f4ff3a00a1
:1012ec0000108000680060000000e000f0ff3a0091
:1012fc0000108000700060000000e000ecff3a007d
:10130c002110800000002400008060000000e0003c
:10131c00e7ff3a000080fa00000006000000fa0027
:10132c00e1ff07000062a800000000000010800030
:10133c00680060000000e000fcff3a00c010800074
:10134c00004078000080fa00000006000800fa0057
:10135c00881f78000e82e800004a7800630047007e
:10136c0001487800640047000208780066004700d6
:10137c00030878000000eb00000f780091ff0700d5
:10138c000e80e80010407800a9ff070063004700ba
:10139c0010407800a6ff07008fff07000e80e800c2
:1013ac00104078000004a000a1ff07000d003700da
:1013bc009e00780066004700100078000104400091
:1013cc00d6ff0700004c78001e0fe80064004700b1
:1013dc00100078009e007800808f500001003200d1
:1013ec0087ff070064004700100078009e0078001b
:1013fc00808f5000eeff350087ff07007bff070052
:10140c004f0478000080fa00000006000400fa0087
:10141c00004f78000e00e800014878000e80e800cc
:10142c0002487800704a280097fe070065ff070005
:10143c001e4078007eff07000e00e8001040780088
:10144c007bff07000e80e8001040780078ff070053
:10145c0066ff07000080fa00000006000000fa009a
:10146c00c3e8a900c1e8a8007feea8007f6ea80021
:10147c0080eea90084eea8003143800080ff2f008d
:10148c00008060000000a000304388000988a9009b
:10149c002988a8002beea8002b6ea8002d6ea900a1
:1014ac00316ea80001428000f0ff2800008060002f
:1014bc0000d0a000004288000068a9002068a900a4
:1014cc000228a8000808a8002228a8002208a900c1
:1014dc002808a80041428000f0f82f00008060002e
:1014ec000050a000404288000143800080ff2f0084
:1014fc00008060000010a00000438800c3e8a80032
:10150c000080fa00000006000000fa002068a80025
:10151c000080fa00000006000000fa002068a90014
:10152c000080fa00000006000200fa000170ef00d3
:10153c00104c280054fe07008e0178001200200089
:10154c0051c7b30000cdb30080ff07009e40780068
:10155c0080c6b30080cf500005003a00d04e280062
:10156c0049fe070010c0b30001f0b70003003700bc
:10157c00d051280044fe07000170ef000080fa00f3
:10158c00000006000000fa00605328003efe070031
:10159c0012c0b300b1c6b30000cdb3009bff07006f
:1015ac0072c0b30091c1b30000cdb30097ff070028
:1015bc000041eb00a1c1b30000cdb30093ff0700c5
:1015cc000041eb00b1c1b30000cdb3008fff0700a9
:1015dc0002c1b300c1c1b30000cdb3008bff070043
:1015ec000041eb00a1c6b30000cdb30087ff07009c
:1015fc0042c1b30071c3b30000cdb30083ff070039
:10160c0012c0b30081c3b30000cdb3007fff07004d
:10161c0010c0b30000f0b700f05428001afe070009
:10162c000080fa00000006000600fa00889fbe0049
:10163c000f0478000f00780080047800e000200090
:10164c00000f78001e0078000001e9008e80e80091
:10165c00820878000000e8000000e8000000d100db
:10166c00800040000f007800818747000000e800f0
:10167c000000d10000004000e40047008008780022
:10168c006400470010007800800178001e0178008b
:10169c00b1c3b30000cdb3002cff070064004700ba
:1016ac0010007800104078000080fb00c800dd00be
:1016bc0064004700100078000000e800104078003b
:1016cc000080fb0001007000a080880064004700cf
:1016dc00100078000080e800104078000080fb00cb
:1016ec00c800dd0064004700100078006300400073
:1016fc00104078000080fb0001007000b080880072
:10170c00640047001000780064004000104078002e
:10171c000080fb00c800dd0064004700100078006a
:10172c0065004000104078000080fb000100700054
:10173c00c0808800640047001000780066004000fc
:10174c00104078000080fb00c800dd0064004700fa
:10175c001000780067004000104078000080fb000b
:10176c0001007000008188006400470010007800c0
:10177c0068004000104078000080fb00c800dd00cd
:10178c0064004700100078006900400010407800a9
:10179c000080fb0001007000d080880064004700ce
:1017ac00100078006a004000104078000080fb00b8
:1017bc00c800dd0064004700100078006b0040009a
:1017cc00104078000080fb0001007000e080880071
:1017dc0064004700100078006c0040001040780056
:1017ec000080fb00c800dd0064004700100078009a
:1017fc006d004000104078000080fb00010070007c
:10180c00f080880064004700100078009040780059
:10181c006000210001487800640047001000780047
:10182c000000e8009040780070002100014878002a
:10183c00640047001000780064004000904078007d
:10184c0080002100014878006400470010007800f7
:10185c00650040009040780090002100014878001d
:10186c006400470010007800680040009040780049
:10187c00a0002100014878006400470010007800a7
:10188c006900400090407800b000210001487800c9
:10189c0064004700100078006c0040009040780015
:1018ac00c000210001487800640047001000780057
:1018bc006d00400090407800d00021000148780075
:1018cc00400021001040780064fd0700500021000a
:1018dc001040780061fd0700600021001040780086
:1018ec005efd070070002100104078005bfd0700d2
:1018fc00800021001040780058fd07009000210066
:10190c001040780055fd0700a00021001040780021
:10191c0052fd0700b0002100104078004ffd070079
:10192c00c0002100104078004cfd0700d0002100c1
:10193c001040780049fd0700e000210010407800bd
:10194c0046fd0700f00021001040780043fd070021
:10195c00000121001040780040fd0700100121001b
:10196c00104078003dfd07000057280046fd070099
:10197c00f0002100104078008040e800f0002100c9
:10198c000148780089077800880778004f04be006a
:10199c000080fa00000006000000fa0070572800d2
:1019ac0039fd0700a08080004dfd070080592800fc
:1019bc0035fd0700b080800049fd070080592800e4
:1019cc0031fd0700c080800045fd070080592800cc
:1019dc002dfd0700d080800041fd070080592800b4
:1019ec0029fd0700e08080003dfd0700805928009c
:1019fc0025fd0700f080800039fd07008059280084
:101a0c0021fd07000081800035fd0700b05928003a
:101a1c001dfd07000080fa00000006000000fa001f
:101a2c00f059280018fd0700dffd0700d4fd070062
:101a3c00105d280014fd0700005e280012fd070051
:101a4c0001003700b8fe070001d0bf000004e00021
:101a5c00fcff320000d0bf000004e00004003a009c
:101a6c00c8fe07000010250051222000520007007c
:101a7c00f060280004fd07000080fa00000006005a
:101a8c000000fa0000542a00e12a20004a00070056
:101a9c0001003700a4fe070001d0bf000004e000e5
:101aac00fcff320000542a00e12a2000420007000b
:101abc0000d0bf000004e00001003a00b1fe0700b6
:101acc000080fa00000006000000fa00702eef0003
:101adc00720ea900722ea90072eea8000000eb0095
:101aec0051052000b1468800a10a2000b1468800ab
:101afc0000688800d16c8000f00f2c000080600022
:101b0c000080a000d06c88000080200051052000cf
:101b1c00b1468800a10a2000b14688000068880000
:101b2c001d0ea9001d2ea9001f6ea8000080fa0032
:101b3c00000006000000fa00b5efa9000080fa00d2
:101b4c00000006000000fa00faff070090fc0700f6
:101b5c00ddff0700a9fc070010622800cafc070083
:101b6c0070652800c8fc070085fd07003bfe0700d8
:081b7c00c3ff0700ffff370063
:020000040000fa
:101b84000410000010000000820000002402000085
:101b94000000000000000000000000000d0a00002a
:101ba40000000000141000000e000000800000007f
:101bb400001000000400000080000000000000008d
:020000040000fa
:101bc400f03fb1000180b10006003500ee030900ca
:101bd40000000000403fb1000180b100fbff3d0068
:101be4001000b000203fb000020035000080090062
:081bf4000000000000000600e3
:020000040000fa
:041bfc00ffffff00e8
:020000040000fa
:02000004000af0
:04fe0000ffffff0001
:020000040000fa
:02000004000af0
:04fe2000ffffff00e1
:020000040000fa
:02000004000af0
:04fe3000fbffff00d5
:020000040000fa
:02000004000af0
:04fe3800bdf7ff0013
:020000040000fa
:02000004000af0
:04fe40007f7fff00c1
:020000040000fa
:02000004000af0
:04fe4800ffffff00b9
:020000040000fa
:02000004000af0
:04fe5000deffff00d2
:020000040000fa
:02000004000af0
:04fe5800ffffff00a9
:020000040000fa
:02000004000af0
:04fe6000ffffff00a1
:020000040000fa
:02000004000af0
:04fe6800ffffff0099
:020000040000fa
:02000004000af0
:04fe7000ffffff0091
:020000040000fa
:02000004000af0
:04fe7800ffffff0089
:020000040000fa
:02000004000af0
:04fe8000fffcff0084
:020000040000fa
:02000004000af0
:04fe8800ffffff0079
:020000040000fa
:02000004000af0
:04fe9000ffffff0071
:020000040000fa
:02000004000af0
:04fe9800ffffff0069
:020000040000fa
:02000004000af0
:04fea000ffffff0061
:020000040000fa
:02000004000af0
:04fea800ffffff0059
:020000040000fa
:02000004000af0
:04feb000ffffff0051
:020000040000fa
:02000004000af0
:04fec000ffffff0041
:020000040000fa
:02000004000af0
:04fed000ffffff0031
:020000040000fa
:02000004000af0
:04fee000ffffff0021
:020000040000fa
:02000004000af0
:04fef000ffffff0011
:020000040000fa
:02000004000af0
:04ff0000ffffff0000
:020000040000fa
:02000004000af0
:04ff0800bfffff0038
:020000040000fa
:02000004000af0
:04ff1000f4d3ff0027
:020000040000fa
:02000004000af0
:04ff1800ffffff00e8
:020000040000fa
:02000004000af0
:04ff2000feffff00e1
:020000040000fa
:02000004000af0
:04ff2800ffffff00d8
:020000040000fa
:02000004000af0
:04ff3000ffffff00d0
:020000040000fa
:02000004000af0
:04ff3800ffffff00c8
:020000040000fa
:02000004000af0
:04ff4000ffffff00c0
:020000040000fa
:02000004000af0
:04ff4800ffffff00b8
:020000040000fa
:02000004000af0
:04ff5000ffffff00b0
:020000040000fa
:02000004000af0
:04ff5800ffffff00a8
:020000040000fa
:02000004000af0
:04fff800ffffff0008
:00000001FF
