:020000040000fa
:080000000002040000000000f2
:020000040000fa
:04000800d20300001f
:020000040000fa
:04000c00d20300001b
:020000040000fa
:04001000d203000017
:020000040000fa
:04001400d203000013
:020000040000fa
:04001800d20300000f
:020000040000fa
:04001c00d20300000b
:020000040000fa
:04002000d203000007
:020000040000fa
:04002400d203000003
:020000040000fa
:04002800d2030000ff
:020000040000fa
:04002c00d2030000fb
:020000040000fa
:04003000d2030000f7
:020000040000fa
:04003400d2030000f3
:020000040000fa
:04003800d2030000ef
:020000040000fa
:04003c00d2030000eb
:020000040000fa
:04004000d2030000e7
:020000040000fa
:04004400d2030000e3
:020000040000fa
:04004800d2030000df
:020000040000fa
:04004c00d2030000db
:020000040000fa
:04005000d2030000d7
:020000040000fa
:04005400d2030000d3
:020000040000fa
:04005800d2030000cf
:020000040000fa
:04005c00d2030000cb
:020000040000fa
:04006000d2030000c7
:020000040000fa
:04006400d2030000c3
:020000040000fa
:04006800d2030000bf
:020000040000fa
:04006c00d2030000bb
:020000040000fa
:04007000d2030000b7
:020000040000fa
:04007400d2030000b3
:020000040000fa
:04007800d2030000af
:020000040000fa
:04007c00d2030000ab
:020000040000fa
:04008000d2030000a7
:020000040000fa
:04008400d2030000a3
:020000040000fa
:04008800d20300009f
:020000040000fa
:04008c00d20300009b
:020000040000fa
:04009000d203000097
:020000040000fa
:04009400d203000093
:020000040000fa
:04009800d20300008f
:020000040000fa
:04009c00d20300008b
:020000040000fa
:0400a000d203000087
:020000040000fa
:0400a400d203000083
:020000040000fa
:0400a800d20300007f
:020000040000fa
:0400ac00d20300007b
:020000040000fa
:0400b000d203000077
:020000040000fa
:0400b400d203000073
:020000040000fa
:0400b800d20300006f
:020000040000fa
:0400bc00d20300006b
:020000040000fa
:0400c000d203000067
:020000040000fa
:0400c400d203000063
:020000040000fa
:0400c800d20300005f
:020000040000fa
:0400cc00d20300005b
:020000040000fa
:0400d000d203000057
:020000040000fa
:0400d400d203000053
:020000040000fa
:0400d800d20300004f
:020000040000fa
:0400dc00d20300004b
:020000040000fa
:0400e000d203000047
:020000040000fa
:0400e400d203000043
:020000040000fa
:0400e800d20300003f
:020000040000fa
:0400ec00d20300003b
:020000040000fa
:0400f000d203000037
:020000040000fa
:0400f400d203000033
:020000040000fa
:0400f800d20300002f
:020000040000fa
:0400fc00d20300002b
:020000040000fa
:04010000d203000026
:020000040000fa
:04010400d203000022
:020000040000fa
:04010800d20300001e
:020000040000fa
:04010c00d20300001a
:020000040000fa
:04011000d203000016
:020000040000fa
:04011400d203000012
:020000040000fa
:04011800d20300000e
:020000040000fa
:04011c00d20300000a
:020000040000fa
:04012000d203000006
:020000040000fa
:04012400d203000002
:020000040000fa
:04012800d2030000fe
:020000040000fa
:04012c00d2030000fa
:020000040000fa
:04013000d2030000f6
:020000040000fa
:04013400d2030000f2
:020000040000fa
:04013800d2030000ee
:020000040000fa
:04013c00d2030000ea
:020000040000fa
:04014000d2030000e6
:020000040000fa
:04014400d2030000e2
:020000040000fa
:04014800d2030000de
:020000040000fa
:04014c00d2030000da
:020000040000fa
:04015000d2030000d6
:020000040000fa
:04015400d2030000d2
:020000040000fa
:04015800960300000a
:020000040000fa
:04015c00d2030000ca
:020000040000fa
:04016000d2030000c6
:020000040000fa
:04016400d2030000c2
:020000040000fa
:04016800d2030000be
:020000040000fa
:04016c00d2030000ba
:020000040000fa
:04017000d2030000b6
:020000040000fa
:04017400d2030000b2
:020000040000fa
:04017800d2030000ae
:020000040000fa
:04017c00d2030000aa
:020000040000fa
:04018000d2030000a6
:020000040000fa
:04018400d2030000a2
:020000040000fa
:04018800d20300009e
:020000040000fa
:04018c00d20300009a
:020000040000fa
:04019000d203000096
:020000040000fa
:04019400d203000092
:020000040000fa
:04019800d20300008e
:020000040000fa
:04019c00d20300008a
:020000040000fa
:0401a000d203000086
:020000040000fa
:0401a400d203000082
:020000040000fa
:0401a800d20300007e
:020000040000fa
:0401ac00d20300007a
:020000040000fa
:0401b000d203000076
:020000040000fa
:0401b400d203000072
:020000040000fa
:0401b800d20300006e
:020000040000fa
:0401bc00d20300006a
:020000040000fa
:0401c000d203000066
:020000040000fa
:0401c400d203000062
:020000040000fa
:0401c800d20300005e
:020000040000fa
:0401cc00d20300005a
:020000040000fa
:0401d000d203000056
:020000040000fa
:0401d400d203000052
:020000040000fa
:0401d800d20300004e
:020000040000fa
:0401dc00d20300004a
:020000040000fa
:0401e000d203000046
:020000040000fa
:0401e400d203000042
:020000040000fa
:0401e800d20300003e
:020000040000fa
:0401ec00d20300003a
:020000040000fa
:0401f000d203000036
:020000040000fa
:0401f400d203000032
:020000040000fa
:0401f800d20300002e
:020000040000fa
:0401fc00d20300002a
:020000040000fa
:04020000d203000025
:020000040000fa
:04020400d203000021
:020000040000fa
:04020800d20300001d
:020000040000fa
:04020c00d203000019
:020000040000fa
:04021000d203000015
:020000040000fa
:04021400d203000011
:020000040000fa
:04021800d20300000d
:020000040000fa
:04021c00d203000009
:020000040000fa
:04022000d203000005
:020000040000fa
:04022400d203000001
:020000040000fa
:04022800d2030000fd
:020000040000fa
:04022c00d2030000f9
:020000040000fa
:04023000d2030000f5
:020000040000fa
:04023400d2030000f1
:020000040000fa
:04023800d2030000ed
:020000040000fa
:04023c00d2030000e9
:020000040000fa
:04024000d2030000e5
:020000040000fa
:04024400d2030000e1
:020000040000fa
:04024800d2030000dd
:020000040000fa
:04024c00d2030000d9
:020000040000fa
:04025000d2030000d5
:020000040000fa
:04025400d2030000d1
:020000040000fa
:04025800d2030000cd
:020000040000fa
:04025c00d2030000c9
:020000040000fa
:04026000d2030000c5
:020000040000fa
:04026400d2030000c1
:020000040000fa
:04026800d2030000bd
:020000040000fa
:04026c00d2030000b9
:020000040000fa
:04027000d2030000b5
:020000040000fa
:04027400d2030000b1
:020000040000fa
:04027800d2030000ad
:020000040000fa
:04027c00d2030000a9
:020000040000fa
:04028000d2030000a5
:020000040000fa
:04028400d2030000a1
:020000040000fa
:04028800d20300009d
:020000040000fa
:04028c00d203000099
:020000040000fa
:04029000d203000095
:020000040000fa
:04029400d203000091
:020000040000fa
:04029800d20300008d
:020000040000fa
:04029c00d203000089
:020000040000fa
:0402a000d203000085
:020000040000fa
:0402a400d203000081
:020000040000fa
:0402a800d20300007d
:020000040000fa
:0402ac00d203000079
:020000040000fa
:0402b000d203000075
:020000040000fa
:0402b400d203000071
:020000040000fa
:0402b800d20300006d
:020000040000fa
:0402bc00d203000069
:020000040000fa
:0402c000d203000065
:020000040000fa
:0402c400d203000061
:020000040000fa
:0402c800d20300005d
:020000040000fa
:0402cc00d203000059
:020000040000fa
:0402d000d203000055
:020000040000fa
:0402d400d203000051
:020000040000fa
:0402d800d20300004d
:020000040000fa
:0402dc00d203000049
:020000040000fa
:0402e000d203000045
:020000040000fa
:0402e400d203000041
:020000040000fa
:0402e800d20300003d
:020000040000fa
:0402ec00d203000039
:020000040000fa
:0402f000d203000035
:020000040000fa
:0402f400d203000031
:020000040000fa
:0402f800d20300002d
:020000040000fa
:0402fc00d203000029
:020000040000fa
:04030000d203000024
:020000040000fa
:04030400d203000020
:020000040000fa
:04030800d20300001c
:020000040000fa
:04030c00d203000018
:020000040000fa
:04031000d203000014
:020000040000fa
:04031400d203000010
:020000040000fa
:04031800d20300000c
:020000040000fa
:04031c00d203000008
:020000040000fa
:04032000d203000004
:020000040000fa
:100400000f0021000eff27000e01880000002000d1
:100410000000e000020032000001200020028800fd
:1004200014000700e10007000000e00003003a00ac
:100430000000200001002000020037000000200022
:1004400001002000810f70004220ae000f00070065
:10045000000020000000e0004220ae00000002008a
:1004600000000000b4040200000000000040da00b8
:100470000000fe00a00120000000e00002003200a9
:10048000002020009001880000000600a1028800e2
:10049000800478000000eb001f003700e284440075
:1004a00054a0b4009905ba00e284440054a0b400fa
:1004b0009906ba00e284440054a0b4000006eb00a0
:1004c000476fde00fd07b200ae018800636ce100fb
:1004d00003003a000ad801000000eb000e003700cc
:1004e000606ce10008003a00004deb000a05e800ee
:1004f000020039003420ec000af0a0008b05e9006e
:10050000f9ff3e00040037006168e100010032009d
:100510000086eb000b00070019c7ba001905ba00e6
:100520000e04e00003003a000a00e000dbff3a009e
:1005300000000600fe07b200ae0288008a047800c0
:10054000f5ff37000cd0a300e20f4d001c003b006c
:1005500089027800354dba000a05e800020039002a
:100560003420ec000af0a0008b05e9000f003200f7
:10057000254dba000a05e800020039003420ec00dd
:100580000af0a0008b05e900080032000c00e00032
:100590000600320015cdba000a05e8000200390055
:1005a0003420ec000af0a0008b05e9008984e80003
:1005b00054a0b4000b00e000e2ff3a000000060087
:1005c0009902ba00055d78008b05e900f7ff32005b
:1005d000c82ade00055d78008b05e900f3ff3200d4
:1005e0000c00e000f1ff320019ddba00eeff370029
:1005f0006100e10001003200100005005400f80025
:1006000050102000a002880000f927001000ba0056
:100610005400f9000700260000f0a6008703d1006f
:100620000703780001c4fe000003eb000120200056
:1006300091018800014c2800111303008703e90091
:10064000fdff3a0000f0a7000000050000f0a00048
:1006500080c4fe0086037800f3ff37000408200002
:10066000010037000002eb006100e10001003200f0
:10067000100005003200f8003400f8008102780014
:10068000930188003200be000100e0000c0032003f
:100690000470a70000f0a00032037800c733de002a
:1006a000848343004220af008703e800a70188004d
:1006b000f607b2007f30e100040032002000200085
:1006c0003400f9003200f900000006008100e90062
:1006d0000500e00003003a00018009003210030029
:1006e000e8ff37000180090032900300d561ae00b9
:1006f000e4ff370030002000f1ff370050052000f4
:10070000b00e8800a00a2000b00e8800d3e1a80037
:100710000000060050052000b00e8800a00a20004e
:10072000b00e8800d3e1a900000006003600f800f2
:10073000809fbe00829fbe00849fbe00869fbe0039
:100740000000fa00c3e8a900a07380006100600007
:100750000000e00005003a00760ea800762ea90001
:10076000803d28006a00070004003700760ea900cb
:10077000762ea800503e28006500070086eea900ee
:100780000988a900c3e8a8000080fa004f03be0052
:100790004f02be004f01be004f00be003600f90000
:1007a000004006000040da000000fe0000000500e6
:020000040000fa
:1007b0004c45000044310000206900007320000017
:1007c0004f4e00000d0a0000004c000045440000a0
:1007d0003220000069730000204f00004e0d000021
:0407e0000a0000000b
:020000040000fa
:1007e4000000fa00702eef00720ea900722ea9000c
:1007f40072eea8000000eb0051052000b14688000d
:10080400a10a2000b146880000688800d16c8000ed
:10081400f00f2c00008060000080a000d06c8800e5
:100824000080200051052000b1468800a10a200064
:10083400b1468800006888000080fa0000000600c5
:100844000000fa00c1e8a9007feea8007f6ea800ae
:1008540080eea90084eea8002988a8003143800016
:1008640080ff2f00008060000000a000304388005b
:100874000988a900c3e8a8000080fa000000060067
:100884000400fa003b62a90038e2a800d1118000fc
:10089400f09f2f0000806000d0118800000120002c
:1008a40001002000008fbe001e00780000128800a6
:1008b4001e00be004008de00000078001012880010
:1008c400c111800000ff2f0000806000c01188006b
:1008d40038a2a80039e2a8000080fa00000006004f
:1008e4000200fa00004f780000000000f0118000c0
:1008f400700060000000e000fcff3a001e00fb00f6
:10090400401288000080fa00000006000400fa008b
:100914008e80e800800878000000eb00000f78006b
:10092400070037009e0078000e80e8001000780071
:100934000100400010407800e9ff07001e0fe800a6
:100944009e0078000e80e80010007800010040004e
:10095400104078000004e000f2ff3a000080fa0042
:10096400000006000000fa00b5efa9009cff070094
:0c097400c3ff0700b2ff0700ffff3700c1
:020000040000fa
:04098000ffffff0076
:020000040000fa
:02000004000af0
:04fe0000ffffff0001
:020000040000fa
:02000004000af0
:04fe2000ffffff00e1
:020000040000fa
:02000004000af0
:04fe30007affff0056
:020000040000fa
:02000004000af0
:04fe3800bdf6ff0014
:020000040000fa
:02000004000af0
:04fe4000ff7fff0041
:020000040000fa
:02000004000af0
:04fe4800ffffff00b9
:020000040000fa
:02000004000af0
:04fe5000dfffff00d1
:020000040000fa
:02000004000af0
:04fe5800ffffff00a9
:020000040000fa
:02000004000af0
:04fe6000ffffff00a1
:020000040000fa
:02000004000af0
:04fe6800ffffff0099
:020000040000fa
:02000004000af0
:04fe7000ffffff0091
:020000040000fa
:02000004000af0
:04fe7800ffffff0089
:020000040000fa
:02000004000af0
:04fe8000fffcff0084
:020000040000fa
:02000004000af0
:04fe8800ffffff0079
:020000040000fa
:02000004000af0
:04fe9000ffffff0071
:020000040000fa
:02000004000af0
:04fe9800ffffff0069
:020000040000fa
:02000004000af0
:04fea000ffffff0061
:020000040000fa
:02000004000af0
:04fea800ffffff0059
:020000040000fa
:02000004000af0
:04feb000ffffff0051
:020000040000fa
:02000004000af0
:04fec000ffffff0041
:020000040000fa
:02000004000af0
:04fed000ffffff0031
:020000040000fa
:02000004000af0
:04fee000ffffff0021
:020000040000fa
:02000004000af0
:04fef000ffffff0011
:020000040000fa
:02000004000af0
:04ff0000ffffff0000
:020000040000fa
:02000004000af0
:04ff0800bfffff0038
:020000040000fa
:02000004000af0
:04ff1000f4d3ff0027
:020000040000fa
:02000004000af0
:04ff1800ffffff00e8
:020000040000fa
:02000004000af0
:04ff2000ffffff00e0
:020000040000fa
:02000004000af0
:04ff2800ffffff00d8
:020000040000fa
:02000004000af0
:04ff3000ffffff00d0
:020000040000fa
:02000004000af0
:04ff3800ffffff00c8
:020000040000fa
:02000004000af0
:04ff4000ffffff00c0
:020000040000fa
:02000004000af0
:04ff4800ffffff00b8
:020000040000fa
:02000004000af0
:04ff5000ffffff00b0
:020000040000fa
:02000004000af0
:04ff5800ffffff00a8
:020000040000fa
:02000004000af0
:04fff800ffffff0008
:00000001FF
