:020000040000fa
:080000000002040000000000f2
:020000040000fa
:04000800cc03000025
:020000040000fa
:04000c00cc03000021
:020000040000fa
:04001000cc0300001d
:020000040000fa
:04001400cc03000019
:020000040000fa
:04001800cc03000015
:020000040000fa
:04001c00cc03000011
:020000040000fa
:04002000cc0300000d
:020000040000fa
:04002400cc03000009
:020000040000fa
:04002800cc03000005
:020000040000fa
:04002c00cc03000001
:020000040000fa
:04003000cc030000fd
:020000040000fa
:04003400cc030000f9
:020000040000fa
:04003800cc030000f5
:020000040000fa
:04003c00cc030000f1
:020000040000fa
:04004000cc030000ed
:020000040000fa
:04004400cc030000e9
:020000040000fa
:04004800cc030000e5
:020000040000fa
:04004c00cc030000e1
:020000040000fa
:04005000cc030000dd
:020000040000fa
:04005400cc030000d9
:020000040000fa
:04005800cc030000d5
:020000040000fa
:04005c00cc030000d1
:020000040000fa
:04006000cc030000cd
:020000040000fa
:04006400cc030000c9
:020000040000fa
:04006800cc030000c5
:020000040000fa
:04006c00cc030000c1
:020000040000fa
:04007000cc030000bd
:020000040000fa
:04007400cc030000b9
:020000040000fa
:04007800cc030000b5
:020000040000fa
:04007c00cc030000b1
:020000040000fa
:04008000cc030000ad
:020000040000fa
:04008400cc030000a9
:020000040000fa
:04008800cc030000a5
:020000040000fa
:04008c00cc030000a1
:020000040000fa
:04009000cc0300009d
:020000040000fa
:04009400cc03000099
:020000040000fa
:04009800cc03000095
:020000040000fa
:04009c00cc03000091
:020000040000fa
:0400a000cc0300008d
:020000040000fa
:0400a400cc03000089
:020000040000fa
:0400a800cc03000085
:020000040000fa
:0400ac00cc03000081
:020000040000fa
:0400b000cc0300007d
:020000040000fa
:0400b400cc03000079
:020000040000fa
:0400b800cc03000075
:020000040000fa
:0400bc00cc03000071
:020000040000fa
:0400c000cc0300006d
:020000040000fa
:0400c400cc03000069
:020000040000fa
:0400c800cc03000065
:020000040000fa
:0400cc00cc03000061
:020000040000fa
:0400d000cc0300005d
:020000040000fa
:0400d400cc03000059
:020000040000fa
:0400d800cc03000055
:020000040000fa
:0400dc00cc03000051
:020000040000fa
:0400e000cc0300004d
:020000040000fa
:0400e400cc03000049
:020000040000fa
:0400e800cc03000045
:020000040000fa
:0400ec00cc03000041
:020000040000fa
:0400f000cc0300003d
:020000040000fa
:0400f400cc03000039
:020000040000fa
:0400f800cc03000035
:020000040000fa
:0400fc00cc03000031
:020000040000fa
:04010000cc0300002c
:020000040000fa
:04010400cc03000028
:020000040000fa
:04010800cc03000024
:020000040000fa
:04010c00cc03000020
:020000040000fa
:04011000cc0300001c
:020000040000fa
:04011400cc03000018
:020000040000fa
:04011800cc03000014
:020000040000fa
:04011c00cc03000010
:020000040000fa
:04012000cc0300000c
:020000040000fa
:04012400cc03000008
:020000040000fa
:04012800cc03000004
:020000040000fa
:04012c00cc03000000
:020000040000fa
:04013000cc030000fc
:020000040000fa
:04013400cc030000f8
:020000040000fa
:04013800cc030000f4
:020000040000fa
:04013c00cc030000f0
:020000040000fa
:04014000cc030000ec
:020000040000fa
:04014400cc030000e8
:020000040000fa
:04014800cc030000e4
:020000040000fa
:04014c00cc030000e0
:020000040000fa
:04015000cc030000dc
:020000040000fa
:04015400cc030000d8
:020000040000fa
:04015800960300000a
:020000040000fa
:04015c00cc030000d0
:020000040000fa
:04016000cc030000cc
:020000040000fa
:04016400cc030000c8
:020000040000fa
:04016800cc030000c4
:020000040000fa
:04016c00cc030000c0
:020000040000fa
:04017000cc030000bc
:020000040000fa
:04017400cc030000b8
:020000040000fa
:04017800cc030000b4
:020000040000fa
:04017c00cc030000b0
:020000040000fa
:04018000cc030000ac
:020000040000fa
:04018400cc030000a8
:020000040000fa
:04018800cc030000a4
:020000040000fa
:04018c00cc030000a0
:020000040000fa
:04019000cc0300009c
:020000040000fa
:04019400cc03000098
:020000040000fa
:04019800cc03000094
:020000040000fa
:04019c00cc03000090
:020000040000fa
:0401a000cc0300008c
:020000040000fa
:0401a400cc03000088
:020000040000fa
:0401a800cc03000084
:020000040000fa
:0401ac00cc03000080
:020000040000fa
:0401b000cc0300007c
:020000040000fa
:0401b400cc03000078
:020000040000fa
:0401b800cc03000074
:020000040000fa
:0401bc00cc03000070
:020000040000fa
:0401c000cc0300006c
:020000040000fa
:0401c400cc03000068
:020000040000fa
:0401c800cc03000064
:020000040000fa
:0401cc00cc03000060
:020000040000fa
:0401d000cc0300005c
:020000040000fa
:0401d400cc03000058
:020000040000fa
:0401d800cc03000054
:020000040000fa
:0401dc00cc03000050
:020000040000fa
:0401e000cc0300004c
:020000040000fa
:0401e400cc03000048
:020000040000fa
:0401e800cc03000044
:020000040000fa
:0401ec00cc03000040
:020000040000fa
:0401f000cc0300003c
:020000040000fa
:0401f400cc03000038
:020000040000fa
:0401f800cc03000034
:020000040000fa
:0401fc00cc03000030
:020000040000fa
:04020000cc0300002b
:020000040000fa
:04020400cc03000027
:020000040000fa
:04020800cc03000023
:020000040000fa
:04020c00cc0300001f
:020000040000fa
:04021000cc0300001b
:020000040000fa
:04021400cc03000017
:020000040000fa
:04021800cc03000013
:020000040000fa
:04021c00cc0300000f
:020000040000fa
:04022000cc0300000b
:020000040000fa
:04022400cc03000007
:020000040000fa
:04022800cc03000003
:020000040000fa
:04022c00cc030000ff
:020000040000fa
:04023000cc030000fb
:020000040000fa
:04023400cc030000f7
:020000040000fa
:04023800cc030000f3
:020000040000fa
:04023c00cc030000ef
:020000040000fa
:04024000cc030000eb
:020000040000fa
:04024400cc030000e7
:020000040000fa
:04024800cc030000e3
:020000040000fa
:04024c00cc030000df
:020000040000fa
:04025000cc030000db
:020000040000fa
:04025400cc030000d7
:020000040000fa
:04025800cc030000d3
:020000040000fa
:04025c00cc030000cf
:020000040000fa
:04026000cc030000cb
:020000040000fa
:04026400cc030000c7
:020000040000fa
:04026800cc030000c3
:020000040000fa
:04026c00cc030000bf
:020000040000fa
:04027000cc030000bb
:020000040000fa
:04027400cc030000b7
:020000040000fa
:04027800cc030000b3
:020000040000fa
:04027c00cc030000af
:020000040000fa
:04028000cc030000ab
:020000040000fa
:04028400cc030000a7
:020000040000fa
:04028800cc030000a3
:020000040000fa
:04028c00cc0300009f
:020000040000fa
:04029000cc0300009b
:020000040000fa
:04029400cc03000097
:020000040000fa
:04029800cc03000093
:020000040000fa
:04029c00cc0300008f
:020000040000fa
:0402a000cc0300008b
:020000040000fa
:0402a400cc03000087
:020000040000fa
:0402a800cc03000083
:020000040000fa
:0402ac00cc0300007f
:020000040000fa
:0402b000cc0300007b
:020000040000fa
:0402b400cc03000077
:020000040000fa
:0402b800cc03000073
:020000040000fa
:0402bc00cc0300006f
:020000040000fa
:0402c000cc0300006b
:020000040000fa
:0402c400cc03000067
:020000040000fa
:0402c800cc03000063
:020000040000fa
:0402cc00cc0300005f
:020000040000fa
:0402d000cc0300005b
:020000040000fa
:0402d400cc03000057
:020000040000fa
:0402d800cc03000053
:020000040000fa
:0402dc00cc0300004f
:020000040000fa
:0402e000cc0300004b
:020000040000fa
:0402e400cc03000047
:020000040000fa
:0402e800cc03000043
:020000040000fa
:0402ec00cc0300003f
:020000040000fa
:0402f000cc0300003b
:020000040000fa
:0402f400cc03000037
:020000040000fa
:0402f800cc03000033
:020000040000fa
:0402fc00cc0300002f
:020000040000fa
:04030000cc0300002a
:020000040000fa
:04030400cc03000026
:020000040000fa
:04030800cc03000022
:020000040000fa
:04030c00cc0300001e
:020000040000fa
:04031000cc0300001a
:020000040000fa
:04031400cc03000016
:020000040000fa
:04031800cc03000012
:020000040000fa
:04031c00cc0300000e
:020000040000fa
:04032000cc0300000a
:020000040000fa
:10040000ef0021000eff27000e01880000002000f1
:100410000000e000020032000001200020028800fd
:1004200014000700de0007000000e00003003a00af
:10043000c0822000010020000200370000002000e0
:1004400001002000810f70004220ae000f00070065
:10045000000020000000e0004220ae00000002008a
:100460000000000000080200000000000040da0068
:100470000000fe00200720000000e0000200320023
:10048000002020009001880000000600a1028800e2
:10049000800478000000eb001f003700e284440075
:1004a00054a0b4009905ba00e284440054a0b400fa
:1004b0009906ba00e284440054a0b4000006eb00a0
:1004c000476fde00fd07b200ae018800636ce100fb
:1004d00003003a000ad801000000eb000e003700cc
:1004e000606ce10008003a00004deb000a05e800ee
:1004f000020039003420ec000af0a0008b05e9006e
:10050000f9ff3e00040037006168e100010032009d
:100510000086eb000b00070019c7ba001905ba00e6
:100520000e04e00003003a000a00e000dbff3a009e
:1005300000000600fe07b200ae0288008a047800c0
:10054000f5ff37000cd0a300e20f4d001c003b006c
:1005500089027800354dba000a05e800020039002a
:100560003420ec000af0a0008b05e9000f003200f7
:10057000254dba000a05e800020039003420ec00dd
:100580000af0a0008b05e900080032000c00e00032
:100590000600320015cdba000a05e8000200390055
:1005a0003420ec000af0a0008b05e9008984e80003
:1005b00054a0b4000b00e000e2ff3a000000060087
:1005c0009902ba00055d78008b05e900f7ff32005b
:1005d000c82ade00055d78008b05e900f3ff3200d4
:1005e0000c00e000f1ff320019ddba00eeff370029
:1005f0006100e10001003200100005005400f80025
:1006000050102000a002880000f927001000ba0056
:100610005400f9000700260000f0a6008703d1006f
:100620000703780001c4fe000003eb000120200056
:100630009101880041832800111303008703e9001a
:10064000fdff3a0000f0a7000000050000f0a00048
:1006500080c4fe0086037800f3ff37000408200002
:10066000010037000002eb006100e10001003200f0
:10067000100005003200f8003400f8008102780014
:10068000930188003200be000100e0000c0032003f
:100690000470a70000f0a00032037800c733de002a
:1006a000848343004220af008703e800a70188004d
:1006b000f607b2007f30e100040032002000200085
:1006c0003400f9003200f900000006008100e90062
:1006d0000500e00003003a00018009003210030029
:1006e000e8ff37000180090032900300d561ae00b9
:1006f000e4ff370030002000f1ff370050052000f4
:10070000b00e8800a00a2000b00e8800d3e1a80037
:100710000000060050052000b00e8800a00a20004e
:10072000b00e8800d3e1a900000006003600f800f2
:10073000809fbe00829fbe00849fbe00869fbe0039
:100740000000fa00c3e8a900a07380006100600007
:100750000000e00003003a00760ea800762ea90003
:1007600002003700760ea900762ea8005a01070075
:1007700086eea9000988a900c3e8a8000080fa0055
:100780004f03be004f02be004f01be004f00be002f
:100790003600f900004006000040da000000fe00cc
:0407a0000000050050
:020000040000fa
:1007a40049320000434f00005620000077610000ea
:1007b400726e0000696e0000672e00002042000087
:1007c4007974000065200000636c00006173000010
:1007d400682000007265000063650000697600000f
:1007e400696e0000672000004932000043000000e9
:1007f40045550000524500004b41000021210000f6
:1008040020570000484f00005f4100004d5f00008a
:1008140049200000726500006769000073740000dd
:1008240065720000207700006f7200006b650000a5
:1008340064200000617300002065000078700000ef
:100844006563000074650000642000000a00000075
:100854004a6100006d65000073200000426f0000d3
:100864006e640000203a000020540000696d00000e
:1008740065200000746f000020630000727900009e
:040884000000000070
:020000040000fa
:100888000000fa00a1052000b0210a00880f00002e
:10089800317c800000fc2f00008060000000a00078
:1008a800307c8800517c8000f0f82f0000806000c8
:1008b8000050a000507c8800517c800080ff2f00f1
:1008c800008060000000a000507c8800000000004c
:1008d800217c800000022000008060000000e00011
:1008e800fbff32000080fa00000006000400fa0056
:1008f8003b62a90038e2a800d1118000f09f2f00c8
:1009080000806000d01188006018200001002000dd
:10091800008fbe001e007800001288001e00be0076
:100928004008de000000780010128800c111800025
:1009380000ff2f0000806000c011880038a2a800c6
:1009480039e2a8000080fa00000006000200fa0060
:10095800004f780000000000f01180007000600077
:100968000000e000fcff3a001e00fb004012880077
:100978000080fa00000006000400fa008e80e800fb
:10098800800878000000eb00000f780007003700af
:100998009e0078000e80e8001000780001004000fa
:1009a80010407800e9ff07001e0fe8009e0078005d
:1009b8000e80e80010007800010040001040780028
:1009c8000004e000f2ff3a000080fa000000060090
:1009d8000000fa000142a900300d200080108800b4
:1009e80001e2a800a0052000010020008a010700fc
:1009f8000080fa00000006000000fa002a00070044
:100a08000002a800000000000010800061006000e3
:100a18000000e000fcff3a000080fa000000060039
:100a28000000fa00200007000022a80000000000d3
:100a380000108000620060000000e000fcff3a0047
:100a48000080fa00000006000000fa001600070007
:100a58000042a8000080fa00000006000000fa002a
:100a68001100070000a2a9000082a8000080fa0077
:100a7800000006000000fa000b00070000a2a80012
:100a88000082a8000080fa00000006000200fa00b8
:100a9800004f7800040007001e00fb00a01088002b
:100aa8000080fa00000006000000fa0000000000c4
:100ab80000108000610060000000e000fcff3a00c8
:100ac80000108000620060000000e000f8ff3a00bb
:100ad80000108000640060000000e000f4ff3a00ad
:100ae80000108000680060000000e000f0ff3a009d
:100af80000108000700060000000e000ecff3a0089
:100b08002110800000002800008060000000e00044
:100b1800e7ff3a00211080000000240000806000f8
:100b28000000e000e2ff3a000080fa000000060042
:100b38000000fa00dcff07000062a80000000000c7
:100b480000108000680060000000e000fcff3a0030
:100b58002110800000042000008060000000e000f8
:100b68000300320004c2a900203d280082ff0700cc
:100b7800c0108000004078000080fa0000000600e5
:100b88000800fa00881f78000e82e800004a780002
:100b980063004700014878006400470002087800b5
:100ba80066004700030878000000eb00000f78009b
:100bb80091ff07000e80e80010407800b3ff07009f
:100bc8006300470010407800b0ff070094ff07005b
:100bd8000e80e800104078000004a000abff07007a
:100be8000d0037009e00780066004700100078006e
:100bf80001044000ceff0700004c78001e0fe800fb
:100c080064004700100078009e007800808f500034
:100c18000100320091ff07006400470010007800cf
:100c28009e007800808f5000eeff350091ff07008e
:100c380085ff07004f0478000080fa0000000600d6
:100c48000400fa00004f78000e00e8000148780020
:100c58000e80e8000248780067ff07001e40780011
:100c68008aff07000e00e8001040780087ff0700a1
:100c78000e80e8001040780084ff070072ff07002c
:100c88000080fa00000006000000fa00c3e8a9008e
:100c9800c1e8a8007feea8007f6ea80080eea9003a
:100ca80084eea8002988a8003143800080ff2f0027
:100cb800008060000000a000304388000988a90077
:100cc8002228a900c3e8a8000080fa000000060056
:100cd8000200fa008e0178001200200051c7b3000c
:100ce80000cdb300a6ff07009e40780080c6b30081
:100cf80080cf500003003a00a03f28001eff0700e5
:100d080002003700a04228001bff07000080fa00fd
:100d1800000006000000fa0012c0b300b1c6b3001c
:100d280000cdb300c6ff070072c0b30091c1b30085
:100d380000cdb300c2ff07000041eb00a1c1b30022
:100d480000cdb300beff07000041eb00b1c1b30006
:100d580000cdb300baff070002c1b300c1c1b300a0
:100d680000cdb300b6ff07000041eb00a1c6b300f9
:100d780000cdb300b2ff070082c1b30071c3b30056
:100d880000cdb300aeff070012c0b30081c3b300ab
:100d980000cdb300aaff07000080fa00000006009b
:100da8000600fa00889fbe000f0478000f00780044
:100db80080047800e0002000000f78001e00780012
:100dc8000001e9008e80e800820878000000e80051
:100dd8000000e8000000d100800040000f0078000b
:100de800818747000000e8000000d10000004000b3
:100df800e40047008008780064004700100078008d
:100e0800800178001e017800b1c3b30000cdb300a3
:100e18005bff07006400470010007800104078006e
:100e28000080fb00c800dd00640047001000780067
:100e38000000e800104078000080fb00010070000e
:100e48000080880064004700100078000080e800f7
:100e5800104078000080fb00c800dd0064004700f7
:100e68001000780063004000104078000080fb000c
:100e780001007000108088006400470010007800ae
:100e880064004000104078000080fb00c800dd00ce
:100e980064004700100078006500400010407800aa
:100ea8000080fb000100700020808800640047007b
:100eb8001000780066004000104078000080fb00b9
:100ec800c800dd006400470010007800670040009b
:100ed800104078000080fb000100700060808800ee
:100ee8006400470010007800680040001040780057
:100ef8000080fb00c800dd00640047001000780097
:100f080069004000104078000080fb00010070007c
:100f18003080880064004700100078006a004000b4
:100f2800104078000080fb00c800dd006400470026
:100f3800100078006b004000104078000080fb0033
:100f480001007000408088006400470010007800ad
:100f58006c004000104078000080fb00c800dd00f5
:100f680064004700100078006d00400010407800d1
:100f78000080fb000100700050808800890778001d
:100f8800880778004f04be000080fa0000000600c1
:100f98000000fa00702eef00720ea900722ea90050
:100fa80072eea8000000eb0051052000b146880051
:100fb800a10a2000b146880000688800d16c800032
:100fc800f00f2c00008060000080a000d06c88002a
:100fd8000080200051052000b1468800a10a2000a9
:100fe800b1468800006888001d0ea9001d2ea900c2
:100ff8000080fa00000006000000fa00b5efa90022
:101008001ffe0700e2ff070038fe070070fe07001a
:081018001dff0700ffff370078
:020000040000fa
:10102000f03fb1000180b10006003500ee03090079
:1010300000000000403fb1000180b100fbff3d0017
:101040001000b000203fb000020035000080090011
:08105000000000000000060092
:020000040000fa
:10105800001000000e0000008000000000000000ea
:020000040000fa
:04106800ffffff0087
:020000040000fa
:02000004000af0
:04fe0000ffffff0001
:020000040000fa
:02000004000af0
:04fe2000ffffff00e1
:020000040000fa
:02000004000af0
:04fe3000fbffff00d5
:020000040000fa
:02000004000af0
:04fe3800bdf7ff0013
:020000040000fa
:02000004000af0
:04fe40007f7fff00c1
:020000040000fa
:02000004000af0
:04fe4800ffffff00b9
:020000040000fa
:02000004000af0
:04fe5000dfffff00d1
:020000040000fa
:02000004000af0
:04fe5800ffffff00a9
:020000040000fa
:02000004000af0
:04fe6000ffffff00a1
:020000040000fa
:02000004000af0
:04fe6800ffffff0099
:020000040000fa
:02000004000af0
:04fe7000ffffff0091
:020000040000fa
:02000004000af0
:04fe7800ffffff0089
:020000040000fa
:02000004000af0
:04fe8000fffcff0084
:020000040000fa
:02000004000af0
:04fe8800ffffff0079
:020000040000fa
:02000004000af0
:04fe9000ffffff0071
:020000040000fa
:02000004000af0
:04fe9800ffffff0069
:020000040000fa
:02000004000af0
:04fea000ffffff0061
:020000040000fa
:02000004000af0
:04fea800ffffff0059
:020000040000fa
:02000004000af0
:04feb000ffffff0051
:020000040000fa
:02000004000af0
:04fec000ffffff0041
:020000040000fa
:02000004000af0
:04fed000ffffff0031
:020000040000fa
:02000004000af0
:04fee000ffffff0021
:020000040000fa
:02000004000af0
:04fef000ffffff0011
:020000040000fa
:02000004000af0
:04ff0000ffffff0000
:020000040000fa
:02000004000af0
:04ff0800bfffff0038
:020000040000fa
:02000004000af0
:04ff1000f4d3ff0027
:020000040000fa
:02000004000af0
:04ff1800ffffff00e8
:020000040000fa
:02000004000af0
:04ff2000ffffff00e0
:020000040000fa
:02000004000af0
:04ff2800ffffff00d8
:020000040000fa
:02000004000af0
:04ff3000ffffff00d0
:020000040000fa
:02000004000af0
:04ff3800ffffff00c8
:020000040000fa
:02000004000af0
:04ff4000ffffff00c0
:020000040000fa
:02000004000af0
:04ff4800ffffff00b8
:020000040000fa
:02000004000af0
:04ff5000ffffff00b0
:020000040000fa
:02000004000af0
:04ff5800ffffff00a8
:020000040000fa
:02000004000af0
:04fff800ffffff0008
:00000001FF
