:020000040000fa
:080000000002040000000000f2
:020000040000fa
:04000800760400007a
:020000040000fa
:04000c007604000076
:020000040000fa
:040010007604000072
:020000040000fa
:04001400760400006e
:020000040000fa
:04001800760400006a
:020000040000fa
:04001c007604000066
:020000040000fa
:040020007604000062
:020000040000fa
:04002400760400005e
:020000040000fa
:04002800760400005a
:020000040000fa
:04002c007604000056
:020000040000fa
:040030007604000052
:020000040000fa
:04003400ce030000f7
:020000040000fa
:04003800760400004a
:020000040000fa
:04003c007604000046
:020000040000fa
:040040007604000042
:020000040000fa
:04004400760400003e
:020000040000fa
:04004800760400003a
:020000040000fa
:04004c007604000036
:020000040000fa
:040050007604000032
:020000040000fa
:04005400760400002e
:020000040000fa
:04005800760400002a
:020000040000fa
:04005c007604000026
:020000040000fa
:040060007604000022
:020000040000fa
:04006400760400001e
:020000040000fa
:04006800760400001a
:020000040000fa
:04006c00100400007c
:020000040000fa
:040070007604000012
:020000040000fa
:04007400760400000e
:020000040000fa
:04007800760400000a
:020000040000fa
:04007c007604000006
:020000040000fa
:040080007604000002
:020000040000fa
:0400840076040000fe
:020000040000fa
:0400880076040000fa
:020000040000fa
:04008c0076040000f6
:020000040000fa
:0400900076040000f2
:020000040000fa
:0400940076040000ee
:020000040000fa
:0400980076040000ea
:020000040000fa
:04009c0076040000e6
:020000040000fa
:0400a00076040000e2
:020000040000fa
:0400a40076040000de
:020000040000fa
:0400a80076040000da
:020000040000fa
:0400ac0076040000d6
:020000040000fa
:0400b00076040000d2
:020000040000fa
:0400b40076040000ce
:020000040000fa
:0400b80076040000ca
:020000040000fa
:0400bc0076040000c6
:020000040000fa
:0400c00076040000c2
:020000040000fa
:0400c40076040000be
:020000040000fa
:0400c80076040000ba
:020000040000fa
:0400cc0076040000b6
:020000040000fa
:0400d00076040000b2
:020000040000fa
:0400d40076040000ae
:020000040000fa
:0400d80076040000aa
:020000040000fa
:0400dc0076040000a6
:020000040000fa
:0400e00076040000a2
:020000040000fa
:0400e400760400009e
:020000040000fa
:0400e800760400009a
:020000040000fa
:0400ec007604000096
:020000040000fa
:0400f0007604000092
:020000040000fa
:0400f400760400008e
:020000040000fa
:0400f800760400008a
:020000040000fa
:0400fc007604000086
:020000040000fa
:040100007604000081
:020000040000fa
:04010400760400007d
:020000040000fa
:040108007604000079
:020000040000fa
:04010c007604000075
:020000040000fa
:040110007604000071
:020000040000fa
:04011400760400006d
:020000040000fa
:040118007604000069
:020000040000fa
:04011c007604000065
:020000040000fa
:040120007604000061
:020000040000fa
:04012400760400005d
:020000040000fa
:04012800f2030000de
:020000040000fa
:04012c007604000055
:020000040000fa
:040130007604000051
:020000040000fa
:04013400760400004d
:020000040000fa
:040138007604000049
:020000040000fa
:04013c007604000045
:020000040000fa
:040140007604000041
:020000040000fa
:04014400760400003d
:020000040000fa
:040148007604000039
:020000040000fa
:04014c007604000035
:020000040000fa
:040150007604000031
:020000040000fa
:04015400760400002d
:020000040000fa
:04015800960300000a
:020000040000fa
:04015c007604000025
:020000040000fa
:040160007604000021
:020000040000fa
:04016400760400001d
:020000040000fa
:040168007604000019
:020000040000fa
:04016c007604000015
:020000040000fa
:040170007604000011
:020000040000fa
:04017400760400000d
:020000040000fa
:040178007604000009
:020000040000fa
:04017c007604000005
:020000040000fa
:040180007604000001
:020000040000fa
:0401840076040000fd
:020000040000fa
:0401880076040000f9
:020000040000fa
:04018c0076040000f5
:020000040000fa
:0401900076040000f1
:020000040000fa
:0401940076040000ed
:020000040000fa
:0401980076040000e9
:020000040000fa
:04019c0076040000e5
:020000040000fa
:0401a00076040000e1
:020000040000fa
:0401a40076040000dd
:020000040000fa
:0401a80076040000d9
:020000040000fa
:0401ac0076040000d5
:020000040000fa
:0401b00076040000d1
:020000040000fa
:0401b40076040000cd
:020000040000fa
:0401b80076040000c9
:020000040000fa
:0401bc0076040000c5
:020000040000fa
:0401c00076040000c1
:020000040000fa
:0401c40076040000bd
:020000040000fa
:0401c80076040000b9
:020000040000fa
:0401cc0076040000b5
:020000040000fa
:0401d00076040000b1
:020000040000fa
:0401d40076040000ad
:020000040000fa
:0401d80076040000a9
:020000040000fa
:0401dc0076040000a5
:020000040000fa
:0401e00076040000a1
:020000040000fa
:0401e400760400009d
:020000040000fa
:0401e8007604000099
:020000040000fa
:0401ec007604000095
:020000040000fa
:0401f0007604000091
:020000040000fa
:0401f400760400008d
:020000040000fa
:0401f8007604000089
:020000040000fa
:0401fc007604000085
:020000040000fa
:040200007604000080
:020000040000fa
:04020400760400007c
:020000040000fa
:040208007604000078
:020000040000fa
:04020c007604000074
:020000040000fa
:040210007604000070
:020000040000fa
:04021400760400006c
:020000040000fa
:040218007604000068
:020000040000fa
:04021c007604000064
:020000040000fa
:040220007604000060
:020000040000fa
:04022400760400005c
:020000040000fa
:040228007604000058
:020000040000fa
:04022c007604000054
:020000040000fa
:040230007604000050
:020000040000fa
:04023400760400004c
:020000040000fa
:040238007604000048
:020000040000fa
:04023c007604000044
:020000040000fa
:040240007604000040
:020000040000fa
:04024400760400003c
:020000040000fa
:040248007604000038
:020000040000fa
:04024c007604000034
:020000040000fa
:040250007604000030
:020000040000fa
:04025400760400002c
:020000040000fa
:040258007604000028
:020000040000fa
:04025c007604000024
:020000040000fa
:040260007604000020
:020000040000fa
:04026400760400001c
:020000040000fa
:040268007604000018
:020000040000fa
:04026c007604000014
:020000040000fa
:040270007604000010
:020000040000fa
:04027400760400000c
:020000040000fa
:040278007604000008
:020000040000fa
:04027c007604000004
:020000040000fa
:040280007604000000
:020000040000fa
:0402840076040000fc
:020000040000fa
:0402880076040000f8
:020000040000fa
:04028c0076040000f4
:020000040000fa
:0402900076040000f0
:020000040000fa
:0402940076040000ec
:020000040000fa
:0402980076040000e8
:020000040000fa
:04029c0076040000e4
:020000040000fa
:0402a00076040000e0
:020000040000fa
:0402a40076040000dc
:020000040000fa
:0402a80076040000d8
:020000040000fa
:0402ac0076040000d4
:020000040000fa
:0402b00076040000d0
:020000040000fa
:0402b40076040000cc
:020000040000fa
:0402b80076040000c8
:020000040000fa
:0402bc0076040000c4
:020000040000fa
:0402c00076040000c0
:020000040000fa
:0402c40076040000bc
:020000040000fa
:0402c80076040000b8
:020000040000fa
:0402cc0076040000b4
:020000040000fa
:0402d00076040000b0
:020000040000fa
:0402d40076040000ac
:020000040000fa
:0402d80076040000a8
:020000040000fa
:0402dc0076040000a4
:020000040000fa
:0402e00076040000a0
:020000040000fa
:0402e400760400009c
:020000040000fa
:0402e8007604000098
:020000040000fa
:0402ec007604000094
:020000040000fa
:0402f0007604000090
:020000040000fa
:0402f400760400008c
:020000040000fa
:0402f8007604000088
:020000040000fa
:0402fc007604000084
:020000040000fa
:04030000760400007f
:020000040000fa
:04030400760400007b
:020000040000fa
:040308007604000077
:020000040000fa
:04030c007604000073
:020000040000fa
:04031000760400006f
:020000040000fa
:04031400760400006b
:020000040000fa
:040318007604000067
:020000040000fa
:04031c007604000063
:020000040000fa
:04032000760400005f
:020000040000fa
:100400002f0121000eff27000e01880000002000b0
:100410000000e000020032000001200020028800fd
:1004200014000700330107000000e00003003a0059
:1004300080c92000010020000200370000002000d9
:1004400001002000810f70004220ae000f00070065
:10045000000020000000e0004220ae00000002008a
:1004600000000000540c0200000000000040da0010
:100470000000fe00c02420000000e0000200320066
:10048000002020009001880000000600a1028800e2
:10049000800478000000eb001f003700e284440075
:1004a00054a0b4009905ba00e284440054a0b400fa
:1004b0009906ba00e284440054a0b4000006eb00a0
:1004c000476fde00fd07b200ae018800636ce100fb
:1004d00003003a000ad801000000eb000e003700cc
:1004e000606ce10008003a00004deb000a05e800ee
:1004f000020039003420ec000af0a0008b05e9006e
:10050000f9ff3e00040037006168e100010032009d
:100510000086eb000b00070019c7ba001905ba00e6
:100520000e04e00003003a000a00e000dbff3a009e
:1005300000000600fe07b200ae0288008a047800c0
:10054000f5ff37000cd0a300e20f4d001c003b006c
:1005500089027800354dba000a05e800020039002a
:100560003420ec000af0a0008b05e9000f003200f7
:10057000254dba000a05e800020039003420ec00dd
:100580000af0a0008b05e900080032000c00e00032
:100590000600320015cdba000a05e8000200390055
:1005a0003420ec000af0a0008b05e9008984e80003
:1005b00054a0b4000b00e000e2ff3a000000060087
:1005c0009902ba00055d78008b05e900f7ff32005b
:1005d000c82ade00055d78008b05e900f3ff3200d4
:1005e0000c00e000f1ff320019ddba00eeff370029
:1005f0006100e10001003200100005005400f80025
:1006000050102000a002880000f927001000ba0056
:100610005400f9000700260000f0a6008703d1006f
:100620000703780001c4fe000003eb000120200056
:100630009101880061ca2800111303008703e900b3
:10064000fdff3a0000f0a7000000050000f0a00048
:1006500080c4fe0086037800f3ff37000408200002
:10066000010037000002eb006100e10001003200f0
:10067000100005003200f8003400f8008102780014
:10068000930188003200be000100e0000c0032003f
:100690000470a70000f0a00032037800c733de002a
:1006a000848343004220af008703e800a70188004d
:1006b000f607b2007f30e100040032002000200085
:1006c0003400f9003200f900000006008100e90062
:1006d0000500e00003003a00018009003210030029
:1006e000e8ff37000180090032900300d561ae00b9
:1006f000e4ff370030002000f1ff370050052000f4
:10070000b00e8800a00a2000b00e8800d3e1a80037
:100710000000060050052000b00e8800a00a20004e
:10072000b00e8800d3e1a900000006003600f800f2
:10073000809fbe00829fbe00849fbe00869fbe0039
:100740000000fa00c3e8a900a07380006100600007
:100750000000e00004003a00760ea800762ea90002
:100760002203070003003700760ea900762ea800aa
:100770002203070086eea9000988a900c3e8a800a3
:100780000080fa004f03be004f02be004f01be00c2
:100790004f00be003600f900004006003600f800a9
:1007a000809fbe00829fbe00849fbe00869fbe00c9
:1007b0000000fa005503070010c0b30002f0b700b4
:1007c000336ea9000068a9000080fa004f03be0044
:1007d0004f02be004f01be004f00be003600f900c0
:1007e000004006003600f800809fbe00829fbe00d9
:1007f000849fbe00869fbe000000fa00e003070051
:100800000808a9000080fa004f03be004f02be0096
:100810004f01be004f00be003600f9000040060048
:100820003600f800809fbe00829fbe00849fbe00fd
:10083000869fbe000000fa00211080000008200002
:10084000008060000000e0000a003a0021108000f3
:1008500000042000008060000000e00005003a0075
:100860002110800000402000008060000000e000b7
:100870001600320021108000000820000080600077
:100880000000e00003003200606828007e010700dd
:1008900004e2a90021108000000420000080600014
:1008a0000000e00003003200b06a28007601070073
:1008b00004c2a900211080000040200000806000d8
:1008c0000000e00001003200ad0307000228a9008b
:1008d0000080fa004f03be004f02be004f01be0071
:1008e0004f00be003600f900004006000040da006c
:0808f0000000fe0000000500fd
:020000040000fa
:1008f800414300004b200000776100007320000096
:100908006e6f0000742000007265000063650000cf
:100918006976000065640000206300006f720000c3
:1009280072650000637400006c79000020660000a6
:10093800726f00006d200000536c000061760000ab
:10094800650a000000530000656e0000646900003d
:100958006e670000206400006174000061200000e0
:10096800746f0000207300006c6100007665000061
:100978002e2e00002e0a000000520000756e0000a6
:100988006e6900006e670000206300006f6d000054
:100998006d7500006e6900006361000074690000f5
:1009a8006f6e000020740000657300007420000062
:1009b8002864000073700000696300002d4d00007a
:1009c800505500003630000035300000290a00007c
:1009d8000045000055520000454b00004121000031
:1009e80021200000574800004f5f0000414d0000e3
:1009f8005f4900002072000065670000697300000d
:100a08007465000072200000776f0000726b0000b0
:100a18006564000020610000732000006578000014
:100a2800706500006374000065640000200a00001f
:100a3800004a0000616d000065730000204200005c
:100a48006f6e0000642000003a2000005469000026
:100a58006d650000207400006f20000063720000c4
:100a680079000000436f00006e66000069670000af
:100a780075720000696e0000672000004d5000008c
:100a88005536000030350000302e00002e2e0000b4
:100a98002e0a0000004d00005055000036300000be
:100aa80035300000207300007563000063650000a6
:100ab80073730000667500006c6c000079200000fc
:100ac800636f00006e6600006967000075720000c1
:100ad800656400000a0000004163000063650000cf
:100ae8006c5b0000782c0000792c00007a5d000017
:100af8002d470000797200006f5b0000782c000021
:100b0800792c00007a5d00002d540000656d00000e
:100b1800703a0000202000000020000020000000a3
:100b2800202000000a000000427500007320000029
:100b3800436f00006c6c000069730000696f00006f
:100b48006e200000446500007465000063740000b6
:100b5800206200006974000028420000434c000035
:100b6800292e000020520000657300007461000007
:100b780072740000696e00006720000049320000ae
:100b8800432e00002e2e00000a00000069320000eb
:100b98006320000072650000737400006172000039
:100ba80074650000640a00000054000065730000ca
:100bb800746900006e670000206100006e64000028
:100bc8002063000068650000636b0000696e000028
:100bd80067200000636f00006e6600006967000010
:100be8007572000061740000696f00006e200000db
:100bf8006f660000204d00005055000036300000a0
:100c0800353000000a0000004d5000005536000045
:100c18003035000030200000696e0000206f0000b1
:100c280072640000657200000a0000000a0d0000ee
:100c38002d2d00002d2d00002d2d00002d2d000044
:100c48002d2d00002d2d00002d2d00002d2d000034
:100c58002d2d00002d2d00002d2d00002d2d000024
:100c68002d2d00002d2d00002d2d00002d2d000014
:100c78002d2d00002d2d00002d2d00002d2d000004
:100c88002d2d00002d2d00002d2d00002d2d0000f4
:100c98002d0a00000d0000000a0d000020200000b1
:100ca800202000002020000020200000202000003c
:100cb8002020000020200000535400004152000072
:100cc800544900004e4700002044000045560000eb
:100cd8004943000045210000212100002121000096
:100ce80021200000202000002020000020200000fb
:100cf800202000002020000020200000200a000002
:100d08000d000000577200006974000065200000a3
:100d1800436f00006c6c000069730000696f00008d
:100d28006e200000446500007465000063740000d4
:100d38002042000069740000207700006173000001
:100d480020730000657400000a0d000000520000c6
:100d5800656300006569000076650000204f0000ab
:100d680076650000726600006c6f00007720000056
:100d7800466c0000616700002042000069740000b2
:080d88000a0d0000000000004c
:020000040000fa
:100d90000000fa00a1052000b0210a00880f000021
:100da000317c800000fc2f00008060000000a0006b
:100db000307c8800517c8000f0f82f0000806000bb
:100dc0000050a000507c8800517c800080ff2f00e4
:100dd000008060000000a000507c8800000000003f
:100de000217c800000022000008060000000e00004
:100df000fbff32000080fa00000006000400fa0049
:100e00003b62a90038e2a800d1118000f09f2f00ba
:100e100000806000d0118800c00220000100200086
:100e2000008fbe001e007800001288001e00be0069
:100e30004008de000000780010128800c111800018
:100e400000ff2f0000806000c011880038a2a800b9
:100e500039e2a8000080fa00000006000200fa0053
:100e6000004f780000000000f0118000700060006a
:100e70000000e000fcff3a001e00fb00401288006a
:100e80000080fa00000006000400fa008e80e800ee
:100e9000800878000000eb00000f780007003700a2
:100ea0009e0078000e80e8001000780001004000ed
:100eb00010407800e9ff07001e0fe8009e00780050
:100ec0000e80e8001000780001004000104078001b
:100ed0000004e000f2ff3a000080fa000000060083
:100ee0001400fa00f000470080087800100020008d
:100ef000000f78007000470010007800cf00de007f
:100f00000e80e800010878006100200064004700be
:100f10000108780068004700020009000018eb0093
:100f20000058eb000e80e800100078000000e000a0
:100f30000500320070004700100078008000ea00d1
:100f4000700047000108780070004700100078002a
:100f50000000e00023003a00640047001000780021
:100f60001e0050006800400001c3b30000004700ad
:100f7000014878001e0fe8001a003700640047009f
:100f8000100078001e005000100f9800f00047007d
:100f900011017800a10020008101780005000900fe
:100fa0000301d800814078000143b0001e09900081
:100fb00068004100000047000148780070004700c9
:100fc00010017800706626000090b900c288de002b
:100fd0004f90de00808050007000470001087800cc
:100fe0001e0fe80070004700100078000000e000cd
:100ff000e2ff3c000e80e800100078000000e000f6
:101000000700320064004700100078001e00500006
:1010100068004000d1c2b3000000470001487800da
:1010200064004700900078001e00780000805000a7
:101030008e80e80091007800010050000000e80078
:10104000e800470080804000660047000108780003
:1010500066004700100078008bff07000080fa0050
:10106000000006000000fa000142a900300d200037
:101070008010880001e2a800a005200001002000e7
:101080001d0207000080fa00000006000000fa00c0
:1010900001e2a900a00520000100200016020700bf
:1010a0000080fa00000006000000fa003700070088
:1010b0000002a8000080fa00000006000000fa000c
:1010c000320007000022a8000080fa00000006009d
:1010d0000000fa002d0007000042a8000080fa007e
:1010e000000006000000fa002800070000a2a90086
:1010f0000082a8000080fa00000006000000fa004c
:101100002200070000a2a8000082a8000080fa00c8
:10111000000006000200fa00004f78001b000700e4
:101120001e00fb00a01088000000000021108000bd
:1011300000002400008060000000e0000500320094
:101140002110800000402000008060000000e000ce
:10115000f6ff3200211080000000280000806000af
:101160000000e00007003200211080000040200055
:10117000008060000000e00002003a00c047280044
:1011800041ff07000080fa00000006000000fa009e
:101190000000000000108000610060000000e0001e
:1011a000fcff3a0000108000620060000000e000d8
:1011b000f8ff3a0000108000640060000000e000ca
:1011c000f4ff3a0000108000680060000000e000ba
:1011d000f0ff3a0000108000700060000000e000a6
:1011e000ecff3a0021108000000024000080600025
:1011f0000000e000e7ff3a000080fa00000006006f
:101200000000fa00e1ff07000062a80000000000f3
:1012100000108000680060000000e000fcff3a0061
:10122000c0108000004078000080fa000000060036
:101230000800fa00881f78000e82e800004a780053
:101240006300470001487800640047000208780006
:1012500066004700030878000000eb00000f7800ec
:1012600091ff07000e80e80010407800a9ff0700fa
:101270006300470010407800a6ff07008fff0700bb
:101280000e80e800104078000004a000a1ff0700d5
:101290000d0037009e0078006600470010007800bf
:1012a00001044000d6ff0700004c78001e0fe80044
:1012b00064004700100078009e007800808f500086
:1012c0000100320087ff070064004700100078002b
:1012d0009e007800808f5000eeff350087ff0700ea
:1012e0007bff07004f0478000080fa000000060032
:1012f0000400fa00004f78000e00e8000148780072
:101300000e80e80002487800704a2800defe0700e0
:1013100065ff07001e4078007eff07000e00e80012
:10132000104078007bff07000e80e8001040780036
:1013300078ff070066ff07000080fa000000060043
:101340000000fa00c3e8a900c1e8a8007feea800e9
:101350007f6ea80080eea90084eea80031438000d3
:1013600080ff2f00008060000000a0003043880054
:101370000988a9002988a8002beea8002b6ea800d8
:101380002d6ea900316ea80001428000f0ff2800f8
:101390000080600000d0a000004288000068a90022
:1013a0002068a9000228a8000808a8002228a80090
:1013b0002208a9002808a80041428000f0f82f0068
:1013c000008060000050a00040428800014380007f
:1013d00080ff2f00008060000010a0000043880004
:1013e000c3e8a8000080fa00000006000000fa0030
:1013f0002068a8000080fa00000006000000fa0043
:101400002068a9000080fa00000006000200fa002f
:101410000170ef00104c28009bfe07008e01780041
:101420001200200051c7b30000cdb30080ff0700b9
:101430009e40780080c6b30080cf500005003a007f
:10144000d04e280090fe070010c0b30001f0b70096
:1014500003003700d05128008bfe07000170ef0019
:101460000080fa00000006000000fa006053280027
:1014700085fe070012c0b300b1c6b30000cdb300b3
:101480009bff070072c0b30091c1b30000cdb30051
:1014900097ff07000041eb00a1c1b30000cdb300ee
:1014a00093ff07000041eb00b1c1b30000cdb300d2
:1014b0008fff070002c1b300c1c1b30000cdb3006c
:1014c0008bff07000041eb00a1c6b30000cdb300c5
:1014d00087ff070042c1b30071c3b30000cdb30062
:1014e00083ff070012c0b30081c3b30000cdb30077
:1014f0007fff070010c0b30000f0b700f0542800d1
:1015000061fe07000080fa00000006000600fa00f5
:10151000889fbe000f0478000f00780080047800d8
:10152000e0002000000f78001e0078000001e900b4
:101530008e80e800820878000000e8000000e800e3
:101540000000d100800040000f0078008187470034
:101550000000e8000000d10000004000e400470067
:10156000800878006400470010007800800178004f
:101570001e017800b1c3b30000cdb3002cff0700fb
:101580006400470010007800104078000080fb00e5
:10159000c800dd0064004700100078000000e8008b
:1015a000104078000080fb0001007000208088005f
:1015b00064004700100078000080e80010407800c8
:1015c0000080fb00c800dd006400470010007800c8
:1015d00063004000104078000080fb0001007000b4
:1015e00030808800640047001000780064004000ec
:1015f000104078000080fb00c800dd006400470058
:101600001000780065004000104078000080fb006a
:1016100001007000408088006400470010007800de
:1016200066004000104078000080fb00c800dd002c
:101630006400470010007800670040001040780008
:101640000080fb000100700080808800640047007b
:101650001000780068004000104078000080fb0017
:10166000c800dd00640047001000780069004000f9
:10167000104078000080fb0001007000508088005e
:1016800064004700100078006a00400010407800b5
:101690000080fb00c800dd006400470010007800f7
:1016a0006b004000104078000080fb0001007000db
:1016b0006080880064004700100078006c004000e3
:1016c000104078000080fb00c800dd006400470087
:1016d000100078006d004000104078000080fb0092
:1016e0000100700070808800890778008807780002
:1016f0004f04be000080fa00000006000000fa005f
:1017000000572800e0fd070020808000f4fd07005e
:1017100010592800dcfd070030808000f0fd070034
:1017200010592800d8fd070040808000ecfd07001c
:1017300010592800d4fd070050808000e8fd070004
:1017400010592800d0fd070060808000e4fd0700ec
:1017500010592800ccfd070070808000e0fd0700d4
:1017600010592800c8fd070080808000dcfd0700bc
:1017700040592800c4fd07000080fa000000060060
:101780000000fa0080592800bffd07003ffe070057
:1017900034fe0700a05c2800bbfd0700905d280018
:1017a000b9fd07000100370018ff070001d0bf0096
:1017b0000004e000fcff320000d0bf000004e000a5
:1017c00004003a0028ff07000010250051222000e5
:1017d0004900070080602800abfd07000080fa0088
:1017e000000006000000fa0000542a00e12a200050
:1017f000410007000100370004ff070001d0bf00cf
:101800000004e000fcff320000542a00e12a20001e
:101810003900070000d0bf000004e00001003a00da
:1018200011ff07000080fa00000006000000fa0027
:10183000702eef00720ea900722ea90072eea800a1
:101840000000eb0051052000b1468800a10a2000ed
:10185000b146880000688800d16c8000f00f2c0031
:10186000008060000080a000d06c88000080200014
:1018700051052000b1468800a10a2000b146880029
:10188000006888001d0ea9001d2ea9001f6ea8006b
:101890000080fa00000006000000fa00b5efa90081
:1018a0000080fa00000006000000fa00faff0700be
:1018b00037fd0700ddff070050fd0700a06128008d
:1018c00071fd0700006528006ffd0700e5fd0700ba
:1018d0009bfe0700c3ff0700010037000000000067
:1018e00002d0bf000004e000fcff320083ff0700cd
:0818f0000270ef00faff37005f
:020000040000fa
:1018f800f03fb1000180b10006003500ee03090099
:1019080000000000403fb1000180b100fbff3d0036
:101918001000b000203fb000020035000080090030
:081928000000000000000600b1
:020000040000fa
:10193000041000000e0000008000000000100000f5
:0c19400004000000800000000000000017
:020000040000fa
:04194c00ffffff009a
:020000040000fa
:02000004000af0
:04fe0000ffffff0001
:020000040000fa
:02000004000af0
:04fe2000ffffff00e1
:020000040000fa
:02000004000af0
:04fe3000fbffff00d5
:020000040000fa
:02000004000af0
:04fe3800bdf7ff0013
:020000040000fa
:02000004000af0
:04fe40007f7fff00c1
:020000040000fa
:02000004000af0
:04fe4800ffffff00b9
:020000040000fa
:02000004000af0
:04fe5000deffff00d2
:020000040000fa
:02000004000af0
:04fe5800ffffff00a9
:020000040000fa
:02000004000af0
:04fe6000ffffff00a1
:020000040000fa
:02000004000af0
:04fe6800ffffff0099
:020000040000fa
:02000004000af0
:04fe7000ffffff0091
:020000040000fa
:02000004000af0
:04fe7800ffffff0089
:020000040000fa
:02000004000af0
:04fe8000fffcff0084
:020000040000fa
:02000004000af0
:04fe8800ffffff0079
:020000040000fa
:02000004000af0
:04fe9000ffffff0071
:020000040000fa
:02000004000af0
:04fe9800ffffff0069
:020000040000fa
:02000004000af0
:04fea000ffffff0061
:020000040000fa
:02000004000af0
:04fea800ffffff0059
:020000040000fa
:02000004000af0
:04feb000ffffff0051
:020000040000fa
:02000004000af0
:04fec000ffffff0041
:020000040000fa
:02000004000af0
:04fed000ffffff0031
:020000040000fa
:02000004000af0
:04fee000ffffff0021
:020000040000fa
:02000004000af0
:04fef000ffffff0011
:020000040000fa
:02000004000af0
:04ff0000ffffff0000
:020000040000fa
:02000004000af0
:04ff0800bfffff0038
:020000040000fa
:02000004000af0
:04ff1000f4d3ff0027
:020000040000fa
:02000004000af0
:04ff1800ffffff00e8
:020000040000fa
:02000004000af0
:04ff2000feffff00e1
:020000040000fa
:02000004000af0
:04ff2800ffffff00d8
:020000040000fa
:02000004000af0
:04ff3000ffffff00d0
:020000040000fa
:02000004000af0
:04ff3800ffffff00c8
:020000040000fa
:02000004000af0
:04ff4000ffffff00c0
:020000040000fa
:02000004000af0
:04ff4800ffffff00b8
:020000040000fa
:02000004000af0
:04ff5000ffffff00b0
:020000040000fa
:02000004000af0
:04ff5800ffffff00a8
:020000040000fa
:02000004000af0
:04fff800ffffff0008
:00000001FF
