:020000040000fa
:080000000002040000000000f2
:020000040000fa
:04000800840400006c
:020000040000fa
:04000c008404000068
:020000040000fa
:040010008404000064
:020000040000fa
:040014008404000060
:020000040000fa
:04001800840400005c
:020000040000fa
:04001c008404000058
:020000040000fa
:040020008404000054
:020000040000fa
:040024008404000050
:020000040000fa
:04002800840400004c
:020000040000fa
:04002c008404000048
:020000040000fa
:040030008404000044
:020000040000fa
:04003400d4030000f1
:020000040000fa
:04003800840400003c
:020000040000fa
:04003c008404000038
:020000040000fa
:040040008404000034
:020000040000fa
:040044008404000030
:020000040000fa
:04004800840400002c
:020000040000fa
:04004c008404000028
:020000040000fa
:040050008404000024
:020000040000fa
:040054008404000020
:020000040000fa
:04005800840400001c
:020000040000fa
:04005c008404000018
:020000040000fa
:040060008404000014
:020000040000fa
:040064008404000010
:020000040000fa
:04006800840400000c
:020000040000fa
:04006c001e0400006e
:020000040000fa
:040070008404000004
:020000040000fa
:040074008404000000
:020000040000fa
:0400780084040000fc
:020000040000fa
:04007c0084040000f8
:020000040000fa
:0400800084040000f4
:020000040000fa
:0400840084040000f0
:020000040000fa
:0400880084040000ec
:020000040000fa
:04008c0084040000e8
:020000040000fa
:0400900084040000e4
:020000040000fa
:0400940084040000e0
:020000040000fa
:0400980084040000dc
:020000040000fa
:04009c0084040000d8
:020000040000fa
:0400a00084040000d4
:020000040000fa
:0400a40084040000d0
:020000040000fa
:0400a80084040000cc
:020000040000fa
:0400ac0084040000c8
:020000040000fa
:0400b00084040000c4
:020000040000fa
:0400b40084040000c0
:020000040000fa
:0400b80084040000bc
:020000040000fa
:0400bc0084040000b8
:020000040000fa
:0400c00084040000b4
:020000040000fa
:0400c40084040000b0
:020000040000fa
:0400c80084040000ac
:020000040000fa
:0400cc0084040000a8
:020000040000fa
:0400d00084040000a4
:020000040000fa
:0400d40084040000a0
:020000040000fa
:0400d800840400009c
:020000040000fa
:0400dc008404000098
:020000040000fa
:0400e0008404000094
:020000040000fa
:0400e4008404000090
:020000040000fa
:0400e800840400008c
:020000040000fa
:0400ec008404000088
:020000040000fa
:0400f0008404000084
:020000040000fa
:0400f4008404000080
:020000040000fa
:0400f800840400007c
:020000040000fa
:0400fc008404000078
:020000040000fa
:040100008404000073
:020000040000fa
:04010400840400006f
:020000040000fa
:04010800840400006b
:020000040000fa
:04010c008404000067
:020000040000fa
:040110008404000063
:020000040000fa
:04011400840400005f
:020000040000fa
:04011800840400005b
:020000040000fa
:04011c008404000057
:020000040000fa
:040120008404000053
:020000040000fa
:04012400840400004f
:020000040000fa
:0401280000040000cf
:020000040000fa
:04012c008404000047
:020000040000fa
:040130008404000043
:020000040000fa
:04013400840400003f
:020000040000fa
:04013800840400003b
:020000040000fa
:04013c008404000037
:020000040000fa
:040140008404000033
:020000040000fa
:04014400840400002f
:020000040000fa
:04014800840400002b
:020000040000fa
:04014c008404000027
:020000040000fa
:040150008404000023
:020000040000fa
:04015400840400001f
:020000040000fa
:04015800960300000a
:020000040000fa
:04015c008404000017
:020000040000fa
:040160008404000013
:020000040000fa
:04016400840400000f
:020000040000fa
:04016800840400000b
:020000040000fa
:04016c008404000007
:020000040000fa
:040170008404000003
:020000040000fa
:0401740084040000ff
:020000040000fa
:0401780084040000fb
:020000040000fa
:04017c0084040000f7
:020000040000fa
:0401800084040000f3
:020000040000fa
:0401840084040000ef
:020000040000fa
:0401880084040000eb
:020000040000fa
:04018c0084040000e7
:020000040000fa
:0401900084040000e3
:020000040000fa
:0401940084040000df
:020000040000fa
:0401980084040000db
:020000040000fa
:04019c0084040000d7
:020000040000fa
:0401a00084040000d3
:020000040000fa
:0401a40084040000cf
:020000040000fa
:0401a80084040000cb
:020000040000fa
:0401ac0084040000c7
:020000040000fa
:0401b00084040000c3
:020000040000fa
:0401b40084040000bf
:020000040000fa
:0401b80084040000bb
:020000040000fa
:0401bc0084040000b7
:020000040000fa
:0401c00084040000b3
:020000040000fa
:0401c40084040000af
:020000040000fa
:0401c80084040000ab
:020000040000fa
:0401cc0084040000a7
:020000040000fa
:0401d00084040000a3
:020000040000fa
:0401d400840400009f
:020000040000fa
:0401d800840400009b
:020000040000fa
:0401dc008404000097
:020000040000fa
:0401e0008404000093
:020000040000fa
:0401e400840400008f
:020000040000fa
:0401e800840400008b
:020000040000fa
:0401ec008404000087
:020000040000fa
:0401f0008404000083
:020000040000fa
:0401f400840400007f
:020000040000fa
:0401f800840400007b
:020000040000fa
:0401fc008404000077
:020000040000fa
:040200008404000072
:020000040000fa
:04020400840400006e
:020000040000fa
:04020800840400006a
:020000040000fa
:04020c008404000066
:020000040000fa
:040210008404000062
:020000040000fa
:04021400840400005e
:020000040000fa
:04021800840400005a
:020000040000fa
:04021c008404000056
:020000040000fa
:040220008404000052
:020000040000fa
:04022400840400004e
:020000040000fa
:04022800840400004a
:020000040000fa
:04022c008404000046
:020000040000fa
:040230008404000042
:020000040000fa
:04023400840400003e
:020000040000fa
:04023800840400003a
:020000040000fa
:04023c008404000036
:020000040000fa
:040240008404000032
:020000040000fa
:04024400840400002e
:020000040000fa
:04024800840400002a
:020000040000fa
:04024c008404000026
:020000040000fa
:040250008404000022
:020000040000fa
:04025400840400001e
:020000040000fa
:04025800840400001a
:020000040000fa
:04025c008404000016
:020000040000fa
:040260008404000012
:020000040000fa
:04026400840400000e
:020000040000fa
:04026800840400000a
:020000040000fa
:04026c008404000006
:020000040000fa
:040270008404000002
:020000040000fa
:0402740084040000fe
:020000040000fa
:0402780084040000fa
:020000040000fa
:04027c0084040000f6
:020000040000fa
:0402800084040000f2
:020000040000fa
:0402840084040000ee
:020000040000fa
:0402880084040000ea
:020000040000fa
:04028c0084040000e6
:020000040000fa
:0402900084040000e2
:020000040000fa
:0402940084040000de
:020000040000fa
:0402980084040000da
:020000040000fa
:04029c0084040000d6
:020000040000fa
:0402a00084040000d2
:020000040000fa
:0402a40084040000ce
:020000040000fa
:0402a80084040000ca
:020000040000fa
:0402ac0084040000c6
:020000040000fa
:0402b00084040000c2
:020000040000fa
:0402b40084040000be
:020000040000fa
:0402b80084040000ba
:020000040000fa
:0402bc0084040000b6
:020000040000fa
:0402c00084040000b2
:020000040000fa
:0402c40084040000ae
:020000040000fa
:0402c80084040000aa
:020000040000fa
:0402cc0084040000a6
:020000040000fa
:0402d00084040000a2
:020000040000fa
:0402d400840400009e
:020000040000fa
:0402d800840400009a
:020000040000fa
:0402dc008404000096
:020000040000fa
:0402e0008404000092
:020000040000fa
:0402e400840400008e
:020000040000fa
:0402e800840400008a
:020000040000fa
:0402ec008404000086
:020000040000fa
:0402f0008404000082
:020000040000fa
:0402f400840400007e
:020000040000fa
:0402f800840400007a
:020000040000fa
:0402fc008404000076
:020000040000fa
:040300008404000071
:020000040000fa
:04030400840400006d
:020000040000fa
:040308008404000069
:020000040000fa
:04030c008404000065
:020000040000fa
:040310008404000061
:020000040000fa
:04031400840400005d
:020000040000fa
:040318008404000059
:020000040000fa
:04031c008404000055
:020000040000fa
:040320008404000051
:020000040000fa
:10040000ef0421000eff27000e01880000002000ed
:100410000000e000020032000001200020028800fd
:10042000140007003a0107000000e00003003a0052
:10043000805721000100200002003700000020004a
:1004400001002000810f70004220ae000f00070065
:10045000000020000000e0004220ae00000002008a
:10046000000000002a150200000000000040da0031
:100470000000fe00602a20000000e00002003200c0
:10048000002020009001880000000600a1028800e2
:10049000800478000000eb001f003700e284440075
:1004a00054a0b4009905ba00e284440054a0b400fa
:1004b0009906ba00e284440054a0b4000006eb00a0
:1004c000476fde00fd07b200ae018800636ce100fb
:1004d00003003a000ad801000000eb000e003700cc
:1004e000606ce10008003a00004deb000a05e800ee
:1004f000020039003420ec000af0a0008b05e9006e
:10050000f9ff3e00040037006168e100010032009d
:100510000086eb000b00070019c7ba001905ba00e6
:100520000e04e00003003a000a00e000dbff3a009e
:1005300000000600fe07b200ae0288008a047800c0
:10054000f5ff37000cd0a300e20f4d001c003b006c
:1005500089027800354dba000a05e800020039002a
:100560003420ec000af0a0008b05e9000f003200f7
:10057000254dba000a05e800020039003420ec00dd
:100580000af0a0008b05e900080032000c00e00032
:100590000600320015cdba000a05e8000200390055
:1005a0003420ec000af0a0008b05e9008984e80003
:1005b00054a0b4000b00e000e2ff3a000000060087
:1005c0009902ba00055d78008b05e900f7ff32005b
:1005d000c82ade00055d78008b05e900f3ff3200d4
:1005e0000c00e000f1ff320019ddba00eeff370029
:1005f0006100e10001003200100005005400f80025
:1006000050102000a002880000f927001000ba0056
:100610005400f9000700260000f0a6008703d1006f
:100620000703780001c4fe000003eb000120200056
:1006300091018800c1582900111303008703e900c4
:10064000fdff3a0000f0a7000000050000f0a00048
:1006500080c4fe0086037800f3ff37000408200002
:10066000010037000002eb006100e10001003200f0
:10067000100005003200f8003400f8008102780014
:10068000930188003200be000100e0000c0032003f
:100690000470a70000f0a00032037800c733de002a
:1006a000848343004220af008703e800a70188004d
:1006b000f607b2007f30e100040032002000200085
:1006c0003400f9003200f900000006008100e90062
:1006d0000500e00003003a00018009003210030029
:1006e000e8ff37000180090032900300d561ae00b9
:1006f000e4ff370030002000f1ff370050052000f4
:10070000b00e8800a00a2000b00e8800d3e1a80037
:100710000000060050052000b00e8800a00a20004e
:10072000b00e8800d3e1a900000006003600f800f2
:10073000809fbe00829fbe00849fbe00869fbe0039
:100740000000fa00c3e8a900a07380006100600007
:100750000000e00006003a00760ea800762ea90000
:100760009406070010c0b30002f0b7000400370081
:10077000760ea900762ea800920607000270ef0000
:1007800086eea9000988a900c3e8a8000080fa0045
:100790004f03be004f02be004f01be004f00be001f
:1007a0003600f900004006003600f800809fbe00c9
:1007b000829fbe00849fbe00869fbe000000fa009c
:1007c000c406070010c0b30003f0b70002d0bf009a
:1007d0000004e00001003200e4070700336ea900c6
:1007e0000068a9000080fa004f03be004f02be005f
:1007f0004f01be004f00be003600f9000040060069
:100800003600f800809fbe00829fbe00849fbe001d
:10081000869fbe000000fa00a90707000808a9008b
:100820000080fa004f03be004f02be004f01be0021
:100830004f00be003600f900004006003600f80008
:10084000809fbe00829fbe00849fbe00869fbe0028
:100850000000fa00211080000008200000806000e5
:100860000000e0000a003a0021108000000420008f
:10087000008060000000e00005003a0021108000c8
:1008800000402000008060000000e0001600320000
:100890002110800000082000008060000000e000bf
:1008a00003003200a0d62800e904070004e2a900f2
:1008b0002110800000042000008060000000e000a3
:1008c00003003200f0d82800e104070004c2a900a8
:1008d0002110800000402000008060000000e00047
:1008e00001003200760707000228a9000080fa0004
:1008f0004f03be004f02be004f01be004f00be00be
:100900003600f900004006000040da000000fe005a
:10091000000005000001be00220007000470a700cf
:1009200003f0a1006509b100160032000d0035008a
:100930006828e10006003500f0ff2f00f1ff2700d6
:100940000300e00013003b00010028000000050048
:1009500000004000818048008502e900fcff3a0069
:1009600008003700f88f420002003c008000eb00d6
:10097000000005008100d1000080d3008502e8005e
:10098000fcff3a000300e00002003b0060001000a2
:10099000e0801800000006004f89de008201780028
:1009a000b5023700c70ade00f107b200f50fb2004a
:1009b00008003200e1cf4200020032000170a000c6
:1009c00024000500810f70000100320004080500ba
:1009d00044000500810f700002003a001400050079
:1009e0008502e9000000400081c04800fcff3b0098
:1009f0000170a0002400050007f8270007836100ac
:100a00000638e10004003a00f70720008783610000
:100a10008703710001003a0003f0a200889fbe0026
:100a20008a9fbe008c9fbe00470ade000480a100a2
:100a3000c71ade000580a1000700280007856000b6
:100a400087856100f70f20000720e1009e0032003b
:100a50000728e1009c003200010678000400e00055
:100a6000b4003200f7072000878060000170a0000a
:100a70000500e000c0003200f70720008781610018
:100a80000370a000050652000f003a000b50e10071
:100a90000b0032000308e10002003a000200e1000e
:100aa0007e003200020450008384580004003100ac
:100ab0000001fd008101fd008402fd008a05fd00aa
:100ac0006044b800210037000520e10005003d002a
:100ad0000001fd008101fd008402fd008a05fd008a
:100ae000050652007a60e100050035000170a100a2
:100af0004722dd00848070008a8070006300370028
:100b00006044b800ef02660007ff2f00070666008a
:100b10000500e00006003400f08312008714dd00b9
:100b20000511de00071bdd00060171008519de00de
:100b30007060e10005003500090478008204780047
:100b4000030178008001eb00700656000b50e100b5
:100b500003003a0002004000838048000400370090
:100b600060041400e0841c000200580083805800d8
:100b70000188a300060032008100d1000080d3006c
:100b80008984d3000884d3000402e80027003700da
:100b90000178a30025003a000100e00003003200c4
:100ba0008186cf00698656000a0037008c0020003d
:100bb0000000e00004003a00090078008804780092
:100bc0000004eb00700252008086cf000d06460044
:100bd0000c06e9007060e100060035008000780036
:100be00009007800880478000004eb0070065600c5
:100bf000700252000c00e0000c0034008c08dd0094
:100c0000f00316000703de00868070000c00dd0094
:100c1000074bde00060070008c4cdd000743de0051
:100c2000868474000c44dd000c0252006120e10057
:100c30002000350061016000070028008781640002
:100c4000f7ff270087836400070374000300e000b8
:100c50000600320082037300040032000000e80046
:100c6000e08048000188a3000e003a00f70f200042
:100c70000720e1004a003d000170a1004722dd008d
:100c8000810072008a8070000000be004f06be0026
:100c90004f05be004f04be00000006006000b80013
:100ca000faff37008100d1000080d3000402e80081
:100cb000eeff370004017800890174001b01070072
:100cc0008a807000f1ff37004201070007027800b8
:100cd0000001fd008101fd003e0107008702780050
:100ce000850372000778a300040032000001fd00b4
:100cf0008101fd0051010700e4ff37008503620018
:100d00000768a300080032000b50e1000300320026
:100d1000f0ff2f00f1ff2700dcff37000001fd008e
:100d20008101fd00d9ff37000468a300d7ff32001e
:100d3000faff3700f8ff2700888360000b003a00b5
:100d40000000e00009003a0083036400828373001e
:100d5000020032000200be00ccff37000b50e10061
:100d6000ceff3a000200be00c8ff3700140020008a
:100d7000810064003eff3700f8ff27008883610090
:100d800004003a000200e00002003a008c00780003
:100d9000beff3700150020008301640039ff3700d3
:100da00001f827000000200081007500b7ff370020
:100db000889fbe008a9fbe008c9fbe001b00200043
:100dc0000202be00058668000600280006066600ce
:100dd0004709de00f20fb200820032000243e80051
:100de00080003200c729de00f30fb2007d00320020
:100df0000343e8007b003200f107b2000170a0005d
:100e0000f507b2000570a000c708dd004903de0049
:100e1000868070004700dd00c72add004923de0020
:100e2000868272004722dd00030551000403500052
:100e30008583580003003100000040008180480095
:100e40000a05e9008c1f78008a9fbe00040050004c
:100e5000858058000402420085824a00000040005c
:100e6000818048000005eb000004be006033b8003c
:100e70000406be000d48e1005600310005000900df
:100e80004dccd8000c01b8000d02b800848141009f
:100e900060824a008283530003045c0084845c0007
:100ea00060055d000a00e00025003a00800578003a
:100eb0000d40e1004900310088007800070078000b
:100ec000050009004d88d8000c01b8000d02b800db
:100ed0008481410060824a006003110083835b00cb
:100ee00004045c00e0845c000900e00021003a009a
:100ef0004f01be000300e0002b003200e301600060
:100f0000070673008c8171000100320064007000dc
:100f10004200de004e5edd000c007000c258de00b4
:100f200001e0a000ce000700cf01780081807100b1
:100f30004f06be004f05be004f04be000000060075
:100f40008c8343000d044c00e0844c0060054d0090
:100f50000000e9000a00e000d4ff32008c83430067
:100f60000d044c00e0844c0060054d000000e900d9
:100f7000ceff37000c0343008d834b0060044c0010
:100f8000e0844c000000e9000900e000d8ff3200d6
:100f90000c0343008d834b0060044c00e0844c0044
:100fa0000000e900d2ff37004200de004e5edd00a7
:100fb0000c007000c258de0001e0a000cf017800f4
:100fc0000300e000daff320060001000e08018004b
:100fd000d7ff3700f0ff2f00aaff3700f0ff2f00e8
:100fe000b9ff37000404be007a00070087067800c6
:100ff0000004fd008104fd00760007000783660001
:101000000678a300030032000960a7000800be00b4
:101010002c0037000d78a300020032000800be004b
:10102000280037000778a30026003a0001f0a1004d
:1010300009f0a1000668a30003003200f1ff2700b9
:10104000f0ff2f00baff37000d68a3000300320045
:101050000800be008c807000b5ff37000768a30051
:1010600007003a000648a30003003200f1ff270002
:10107000f0ff2f00aeff37000d48a3000300320041
:101080006000b8008c807000a9ff37000748a300fb
:101090000400320001f82700000020008c8070005e
:1010a000a3ff3700c10007000004fd008104fd001c
:1010b00002057800bd0007000802be008a01780022
:1010c00059ff37000160a000120220003280880022
:1010d00097ff37000100e000120032000500e00039
:1010e00010003200889fbe008a9fbe008c9fbe0009
:1010f0000006eb0001f8a3000300320060001000be
:10110000e08018000cf0a00005f8a30003003200f6
:1011100060021200e0821a000cf0a2008005eb00d1
:1011200041ff37006000b800020005000100e00048
:1011300026003200610111007810e10023003c001c
:101140006022b8007010e1000400350080027800d1
:10115000010078008000eb00700151000200e00007
:101160000900340070031100062add00822ade0027
:101170008603dd00878272000200de00860bdd0040
:10118000070070008208de0084817100f4ff2700f0
:10119000048262008481710004002800848262005d
:1011a0006102600005f0a6000000060004827100e4
:1011b000070032000000e800e08048000000060060
:1011c0000002be006000b800efff37006000b8000a
:1011d000000006002700200001f0a70017002000f3
:1011e000470bde00f60fb200040032000643e800b1
:1011f0000a0032004702b300000006000103780035
:10120000f607b2000603700002003a000703b300bd
:10121000000006008702b30000000600010378000a
:10122000f607b20006037000020032000770a0004b
:10123000000006000760a000000006000478a3007c
:10124000040032000578a300030032000168a30007
:1012500001003a000200be000160a000000006008c
:1012600081017000270032008002eb0001f8a3002a
:101270000300320060001000e0801800150020001c
:10128000f40720000202420020003400f70320008f
:1012900087036000060420000003630002082000aa
:1012a000000161004700de00c909dd000080710017
:1012b000c708de000600e000080032008703710066
:1012c000060032001000b0000180b0000188a300c9
:1012d00002003200c108de000402e800f107b2009b
:1012e000f30f20000320e10003003d004722dd0052
:1012f000810072002900370001f827000000eb0090
:10130000260037006000b8000000060068021200e6
:101310007f20e100020034006000b8001f003700a9
:101320006011b8007020e1000400350080017800f1
:10133000010078008000eb00700252000400e00021
:1013400009003400f00312000719dd008419de00e3
:101350000703dd00868171000400de00070bdd005d
:10136000060070008408de00f7ff27008383630017
:1013700087037100060028000303630007003200a2
:101380000700e00003003a00610160000281730081
:10139000020032001000b0000180b0000500a6007d
:1013a0000000060001f0a000000006004f0ade0069
:1013b0004709de00f107b200f20fb2000b00320065
:1013c000f207b1000170a000c708dd00c901de000e
:1013d000838070004700dd000400a60000000600c6
:1013e00060001000e080180000000600810f70000f
:1013f00001003a00000006008182cf000500e000f5
:1014000010003e008082cf00ee8242007028e10092
:101410000400390007003e00800078000000eb0067
:101420000e003700708312008600de000500dd002c
:101430000a003700708352008600dd000000eb00d8
:1014400006003700e28252008508dd00708312003a
:101450000603de00868070000500dd007507b00021
:101460000501ea000400a60000000600600010006c
:10147000e080180000000600881f78000304780050
:101480000300e00007003d0060001000e08018004d
:1014900060011900e081190002003b0001f02d00fd
:1014a000030037000400070008f0a70001f0a000c7
:1014b0004f04780000000600889fbe008a9fbe008f
:1014c0000082700004027100048271002600320064
:1014d0000004be000200be006011b8006b092000cd
:1014e000950220000182cf000a0039000541b100b9
:1014f0000082cf00070039000541b1000982cf000a
:10150000040039000541b1000882cf000100390014
:101510000541b10005425200120032000a003b00b2
:1015200082817100610164008100d1000080d300dc
:101530008984d3000884d3008b05e8000442e800c6
:10154000f7ff3a00070037000804440089844c0084
:1015500000004800818048008b05e9000442e90052
:10156000f9ff3a00030007004f05be004f04be001c
:101570000000060081002000618055000b003d0046
:101580000b00200061fe2f000100e1001d0034006f
:1015900082817100610164008904d1000884d30054
:1015a0000000e800faff3a007100200061006400ca
:1015b0000300700002006000090032006104440072
:1015c000e0844c000988a500050032008b05e80086
:1015d0006808e10002003a008904d1000884d300c1
:1015e000f20f20000258e10005003d00c75ddd005c
:1015f000f907b20089807500080078000000060035
:0c1600000bf827008b00780000000500ac
:020000040000fa
:10160c00414300004b200000776100007320000074
:10161c006e6f0000742000007265000063650000ae
:10162c006976000065640000206300006f720000a2
:10163c0072650000637400006c7900002066000085
:10164c00726f00006d200000536c0000617600008a
:10165c00650a000000530000656e0000646900001c
:10166c006e670000206400006174000061200000bf
:10167c00746f0000207300006c6100007665000040
:10168c002e2e00002e0a000000520000756e000085
:10169c006e6900006e670000206300006f6d000033
:1016ac006d7500006e6900006361000074690000d4
:1016bc006f6e000020740000657300007420000041
:1016cc002864000073700000696300002d4d000059
:1016dc00505500003630000035300000290a00005b
:1016ec000045000055520000454b00004121000010
:1016fc0021200000574800004f5f0000414d0000c2
:10170c005f490000207200006567000069730000eb
:10171c007465000072200000776f0000726b00008f
:10172c0065640000206100007320000065780000f3
:10173c00706500006374000065640000200a0000fe
:10174c00004a0000616d000065730000204200003b
:10175c006f6e0000642000003a2000005469000005
:10176c006d650000207400006f20000063720000a3
:10177c0079000000436f00006e660000696700008e
:10178c0075720000696e0000672000004d5000006b
:10179c005536000030350000302e00002e2e000093
:1017ac002e0a0000004d000050550000363000009d
:1017bc003530000020730000756300006365000085
:1017cc0073730000667500006c6c000079200000db
:1017dc00636f00006e6600006967000075720000a0
:1017ec00656400000a000000524100005720000010
:1017fc002d2d00003e2000004163000063650000b9
:10180c006c5b0000782c0000792c00007a5d0000e5
:10181c002d470000797200006f5b0000782c0000ef
:10182c00792c00007a5d00002d540000656d0000dd
:10183c00703a000020200000002000002000000072
:10184c00202000000a0000004f4600004620000047
:10185c002d2d00003e200000416300006365000058
:10186c006c5b0000782c0000792c00007a5d000085
:10187c002d470000797200006f5b0000782c00008f
:10188c00792c00007a5d00002d540000656d00007d
:10189c00703a00002020000000430000414c000082
:1018ac00202d00002d3e000020410000636300004d
:1018bc00656c00005b7800002c7900002c7a00002d
:1018cc005d2d000047790000726f00005b7800000e
:1018dc002c7900002c7a00005d2d0000546500006e
:1018ec006d7000003a2000002000000042750000de
:1018fc0073200000436f00006c6c000069730000e3
:10190c00696f00006e2000004465000074650000e3
:10191c00637400002062000069740000284200001b
:10192c00434c0000292e000020520000657300007b
:10193c007461000072740000696e00006720000082
:10194c0049320000432e00002e2e00000a00000039
:10195c00693200006320000072650000737400009f
:10196c006172000074650000640a000000540000fd
:10197c0065730000746900006e6700002061000050
:10198c006e6400002063000068650000636b00005b
:10199c00696e000067200000636f00006e66000037
:1019ac00696700007572000061740000696f0000c7
:1019bc006e2000006f660000204d000050550000a6
:1019cc0036300000353000000a0000004d50000099
:1019dc00553600003035000030200000696e0000e4
:1019ec00206f000072640000657200000a000000a5
:1019fc000a0d00002d2d00002d2d00002d2d0000b6
:101a0c002d2d00002d2d00002d2d00002d2d000062
:101a1c002d2d00002d2d00002d2d00002d2d000052
:101a2c002d2d00002d2d00002d2d00002d2d000042
:101a3c002d2d00002d2d00002d2d00002d2d000032
:101a4c002d2d00002d2d00002d2d00002d2d000022
:101a5c002d2d00002d0a00000d0000000a0d0000c5
:101a6c00202000002020000020200000202000006a
:101a7c0020200000202000002020000053540000f3
:101a8c0041520000544900004e4700002044000021
:101a9c00455600004943000045210000212100006b
:101aac002121000021200000202000002020000027
:101abc00202000002020000020200000202000001a
:101acc00200a00000d00000057720000697400002d
:101adc0065200000436f00006c6c0000697300000f
:101aec00696f00006e200000446500007465000002
:101afc00637400002042000069740000207700002d
:101b0c006173000020730000657400000a0d000072
:101b1c0000520000656300006569000076650000f6
:101b2c00204f000076650000726600006c6f0000ac
:101b3c0077200000466c0000616700002042000026
:0c1b4c00697400000a0d00000000000099
:020000040000fa
:101b58000000fa00a1052000b0210a00880f00004b
:101b6800317c800000fc2f00008060000000a00095
:101b7800307c8800517c8000f0f82f0000806000e5
:101b88000050a000507c8800517c800080ff2f000e
:101b9800008060000000a000507c88000000000069
:101ba800217c800000022000008060000000e0002e
:101bb800fbff32000080fa00000006000400fa0073
:101bc8003b62a90038e2a800d1118000f09f2f00e5
:101bd80000806000d0118800c002200001002000b1
:101be800008fbe001e007800001288001e00be0094
:101bf8004008de000000780010128800c111800043
:101c080000ff2f0000806000c011880038a2a800e3
:101c180039e2a8000080fa00000006000200fa007d
:101c2800004f780000000000f01180007000600094
:101c38000000e000fcff3a001e00fb004012880094
:101c48000080fa00000006000400fa008e80e80018
:101c5800800878000000eb00000f780007003700cc
:101c68009e0078000e80e800100078000100400017
:101c780010407800e9ff07001e0fe8009e0078007a
:101c88000e80e80010007800010040001040780045
:101c98000004e000f2ff3a000080fa0000000600ad
:101ca8001400fa00f00047008008780010002000b7
:101cb800000f78007000470010007800cf00de00a9
:101cc8000e80e800010878006100200064004700e9
:101cd8000108780068004700020009000018eb00be
:101ce8000058eb000e80e800100078000000e000cb
:101cf8000500320070004700100078008000ea00fc
:101d08007000470001087800700047001000780054
:101d18000000e00023003a0064004700100078004b
:101d28001e0050006800400001c3b30000004700d7
:101d3800014878001e0fe8001a00370064004700c9
:101d4800100078001e005000100f9800f0004700a7
:101d580011017800a1002000810178000500090028
:101d68000301d800814078000143b0001e099000ab
:101d780068004100000047000148780070004700f3
:101d880010017800706626000090b900c288de0055
:101d98004f90de00808050007000470001087800f6
:101da8001e0fe80070004700100078000000e000f7
:101db800e2ff3c000e80e800100078000000e00020
:101dc8000700320064004700100078001e00500031
:101dd80068004000d1c2b300000047000148780005
:101de80064004700900078001e00780000805000d2
:101df8008e80e80091007800010050000000e800a3
:101e0800e80047008080400066004700010878002d
:101e180066004700100078008bff07000080fa007a
:101e2800000006000000fa000142a900300d200061
:101e38008010880001e2a800a00520000100200011
:101e48001b0307000080fa00000006000000fa00eb
:101e580001e2a900a00520000100200014030700ea
:101e68000080fa00000006000000fa0037000700b2
:101e78000002a8000080fa00000006000000fa0036
:101e8800320007000022a8000080fa0000000600c7
:101e98000000fa002d0007000042a8000080fa00a8
:101ea800000006000000fa002800070000a2a900b0
:101eb8000082a8000080fa00000006000000fa0076
:101ec8002200070000a2a8000082a8000080fa00f3
:101ed800000006000200fa00004f78001b0007000f
:101ee8001e00fb00a01088000000000021108000e8
:101ef80000002400008060000000e00005003200bf
:101f08002110800000402000008060000000e000f8
:101f1800f6ff3200211080000000280000806000d9
:101f28000000e0000700320021108000004020007f
:101f3800008060000000e00002003a0060b0280065
:101f480041ff07000080fa00000006000000fa00c8
:101f58000000000000108000610060000000e00048
:101f6800fcff3a0000108000620060000000e00002
:101f7800f8ff3a0000108000640060000000e000f4
:101f8800f4ff3a0000108000680060000000e000e4
:101f9800f0ff3a0000108000700060000000e000d0
:101fa800ecff3a002110800000002400008060004f
:101fb8000000e000e7ff3a000080fa000000060099
:101fc8000000fa00e1ff07000062a800000000001e
:101fd80000108000680060000000e000fcff3a008c
:101fe800c0108000004078000080fa000000060061
:101ff8000800fa00881f78000e82e800004a78007e
:102008006300470001487800640047000208780030
:1020180066004700030878000000eb00000f780016
:1020280091ff07000e80e80010407800a9ff070024
:102038006300470010407800a6ff07008fff0700e5
:102048000e80e800104078000004a000a1ff0700ff
:102058000d0037009e0078006600470010007800e9
:1020680001044000d6ff0700004c78001e0fe8006e
:1020780064004700100078009e007800808f5000b0
:102088000100320087ff0700640047001000780055
:102098009e007800808f5000eeff350087ff070014
:1020a8007bff07004f0478000080fa00000006005c
:1020b8000400fa00004f78000e00e800014878009c
:1020c8000e80e8000248780010b32800defe070002
:1020d80065ff07001e4078007eff07000e00e8003d
:1020e800104078007bff07000e80e8001040780061
:1020f80078ff070066ff07000080fa00000006006e
:102108000000fa00c3e8a900c1e8a8007feea80013
:102118007f6ea80080eea90084eea80031438000fd
:1021280080ff2f00008060000000a000304388007e
:102138000988a9002988a8002beea8002b6ea80002
:102148002d6ea900316ea80001428000f0ff280022
:102158000080600000d0a000004288000068a9004c
:102168002068a9000228a8000808a8002228a800ba
:102178002208a9002808a80041428000f0f82f0092
:10218800008060000050a0004042880001438000a9
:1021980080ff2f00008060000010a000004388002e
:1021a800c3e8a8000080fa00000006000000fa005a
:1021b8002068a8000080fa00000006000000fa006d
:1021c8002068a9000080fa00000006000200fa005a
:1021d8000170ef00b0b428009bfe07008e01780064
:1021e8001200200051c7b30000cdb30080ff0700e4
:1021f8009e40780080c6b30080cf500005003a00aa
:1022080070b7280090fe070010c0b30001f0b700b7
:102218000300370070ba28008bfe07000170ef003a
:102228000080fa00000006000000fa0000bc280048
:1022380085fe070012c0b300b1c6b30000cdb300dd
:102248009bff070072c0b30091c1b30000cdb3007b
:1022580097ff07000041eb00a1c1b30000cdb30018
:1022680093ff07000041eb00b1c1b30000cdb300fc
:102278008fff07000041eb00c1c1b30000cdb300e0
:102288008bff07000041eb00a1c6b30000cdb300ef
:1022980087ff070042c1b30071c3b30000cdb3008c
:1022a80083ff070012c0b30081c3b30000cdb300a1
:1022b8007fff070010c0b30000f0b70090bd2800f2
:1022c80061fe07000080fa00000006000600fa0020
:1022d800889fbe000f0478000f0078008004780003
:1022e800e0002000000f78001e0078000001e900df
:1022f8008e80e800820878000000e8000000e8000e
:102308000000d100800040000f007800818747005e
:102318000000e8000000d10000004000e400470091
:102328008008780064004700100078008001780079
:102338001e017800b1c3b30000cdb3002cff070025
:102348006400470010007800104078000080fb000f
:10235800c800dd0064004700100078000000e800b5
:10236800104078000080fb00010070004080880069
:1023780064004700100078000080e80010407800f2
:102388000080fb00c800dd006400470010007800f2
:1023980063004000104078000080fb0001007000de
:1023a80050808800640047001000780064004000f6
:1023b800104078000080fb00c800dd006400470082
:1023c8001000780065004000104078000080fb0095
:1023d80001007000608088006400470010007800e9
:1023e80066004000104078000080fb00c800dd0057
:1023f8006400470010007800670040001040780033
:102408000080fb0001007000a08088006400470085
:102418001000780068004000104078000080fb0041
:10242800c800dd0064004700100078006900400023
:10243800104078000080fb00010070007080880068
:1024480064004700100078006a00400010407800df
:102458000080fb00c800dd00640047001000780021
:102468006b004000104078000080fb000100700005
:102478008080880064004700100078006c004000ed
:10248800104078000080fb00c800dd0064004700b1
:10249800100078006d004000104078000080fb00bc
:1024a80001007000908088004180800000828000d8
:1024b80000805000b0808800518080001082800029
:1024c80000805000c08088006180800020828000e9
:1024d80000805000d0808800a18080006082800049
:1024e8000080500010818800718080003082800058
:1024f80000805000e0808800818080004082800059
:1025080000805000f0808800918080005082800018
:1025180000805000008188008907780088077800cb
:102528004f04be000080fa00000006000000fa0018
:10253800a0bf2800c4fd070040808000d8fd070028
:1025480030c22800c0fd070050808000d4fd07007d
:1025580030c22800bcfd070060808000d0fd070065
:1025680030c22800b8fd070070808000ccfd07004d
:1025780030c22800b4fd070080808000c8fd070035
:1025880030c22800b0fd070090808000c4fd07001d
:1025980030c22800acfd0700a0808000c0fd070005
:1025a80060c22800a8fd07000080fa0000000600ad
:1025b8000000fa00a0c22800a3fd070000828000e6
:1025c800b7fd070030c228009ffd07001082800079
:1025d800b3fd070030c228009bfd07002082800061
:1025e800affd070030c2280097fd07003082800049
:1025f800abfd070030c2280093fd07004082800031
:10260800a7fd070030c228008ffd07005082800018
:10261800a3fd070030c228008bfd07006082800000
:102628009ffd070060c2280087fd07000080fa00b0
:10263800000006000000fa0030c5280082fd0700ef
:10264800b080800096fd070030c228007efd07009c
:10265800c080800092fd070030c228007afd070084
:10266800d08080008efd070030c2280076fd07006c
:10267800e08080008afd070030c2280072fd070054
:10268800f080800086fd070030c228006efd07003c
:102698000081800082fd070030c228006afd070023
:1026a800108180007efd070060c2280066fd0700db
:1026b8000080fa00000006000000fa00c0c72800e9
:1026c80061fd0700e1fd0700d6fd0700e0ca28000c
:1026d8005dfd0700d0cb28005bfd07000100370037
:1026e800bafe070001d0bf000004e000fcff320082
:1026f80000d0bf000004e00004003a00cafe070052
:102708000010250051222000e9000700c0ce280053
:102718004dfd07000080fa00000006000000fa00e6
:1027280000542a00e12a2000e100070001003700d8
:10273800a6fe070001d0bf000004e000fcff320045
:1027480000542a00e12a2000d900070000d0bf0069
:102758000004e00001003a00b3fe07000080fa0020
:10276800000006000000fa0021808000703e200072
:10277800808f50003e003c00228180003381800021
:1027880040808000cf80de00020040008380480047
:102798002081880031818800428180005381800037
:1027a80050808000cf80de00020040008380480017
:1027b8004081880051818800628180007381800097
:1027c8006180800000002c0000804000cf80de0087
:1027d8000200400083804800608188007181880081
:1027e800e2818000f3818000a0808000cf80de003d
:1027f8000200400083804800e0818800f181880061
:10280800828180009381800070808000cf80de000c
:102818000200400083804800808188009181880000
:10282800a2818000b381800080808000cf80de009c
:102838000200400083804800a0818800b1818800a0
:10284800c2818000d381800090808000cf80de002c
:102858000200400083804800c0818800d181880040
:10286800208080000000e8002080880056003700a3
:10287800208180003181800045f807000200200097
:10288800a347240048f907000200200003f02300b2
:1028980060f807001df80700000078000082880033
:1028a800408180005181800039f807000200200033
:1028b800a34724003cf907000200200003f023008e
:1028c80054f8070011f8070000007800108288000b
:1028d80060818000718180002df8070002002000cf
:1028e800a347240030f907000200200003f023006a
:1028f80048f8070005f807000000780020828800e3
:10290800e0818000f181800021f8070002002000aa
:10291800a347240024f907000200200003f0230045
:102928003cf80700f9f7070000007800608288008b
:10293800808180009181800015f807000200200046
:10294800a347240018f907000200200003f0230021
:1029580030f80700edf707000000780030828800a3
:10296800a0818000b181800009f8070002002000e2
:10297800a34724000cf907000200200003f02300fd
:1029880024f80700e1f7070000007800408288007b
:10299800c0818000d1818000fdf70700020020007f
:1029a800a347240000f907000200200003f02300d9
:1029b80018f80700d5f70700000078005082880053
:1029c8000270ef000430ef000080fa0000000600fb
:1029d8000000fa00702eef00720ea900722ea900f6
:1029e80072eea8000000eb0051052000b1468800f7
:1029f800a10a2000b146880000688800d16c8000d8
:102a0800f00f2c00008060000080a000d06c8800cf
:102a18000080200051052000b1468800a10a20004e
:102a2800b1468800006888001d0ea9001d2ea90067
:102a38001f6ea8000080fa00000006000000fa00df
:102a4800b5efa9000080fa00000006000000fa00b7
:102a5800faff07003efc0700ddff070057fc0700f0
:102a6800e0cf280078fc070040d3280076fc070058
:102a7800ecfc0700a2fd070028ff07000300370051
:102a880000000000010037000000000003d0bf0074
:102a98000004e000faff320002d0bf000004e000aa
:102aa800f9ff3a00e3fe07000370ef00f7ff370075
:020000040000fa
:102ab800f03fb1000180b10006003500ee030900c7
:102ac80000000000403fb1000180b100fbff3d0065
:102ad8001000b000203fb00002003500008009005f
:082ae8000000000000000600e0
:020000040000fa
:102af00008100000460000008000000000100000e8
:102b00000600000080000000061000000200000027
:082b100080000000000000003d
:020000040000fa
:042b1800ffffff00bc
:020000040000fa
:02000004000af0
:04fe0000ffffff0001
:020000040000fa
:02000004000af0
:04fe2000ffffff00e1
:020000040000fa
:02000004000af0
:04fe3000fbffff00d5
:020000040000fa
:02000004000af0
:04fe3800bdf7ff0013
:020000040000fa
:02000004000af0
:04fe40007f7fff00c1
:020000040000fa
:02000004000af0
:04fe4800ffffff00b9
:020000040000fa
:02000004000af0
:04fe5000deffff00d2
:020000040000fa
:02000004000af0
:04fe5800ffffff00a9
:020000040000fa
:02000004000af0
:04fe6000ffffff00a1
:020000040000fa
:02000004000af0
:04fe6800ffffff0099
:020000040000fa
:02000004000af0
:04fe7000ffffff0091
:020000040000fa
:02000004000af0
:04fe7800ffffff0089
:020000040000fa
:02000004000af0
:04fe8000fffcff0084
:020000040000fa
:02000004000af0
:04fe8800ffffff0079
:020000040000fa
:02000004000af0
:04fe9000ffffff0071
:020000040000fa
:02000004000af0
:04fe9800ffffff0069
:020000040000fa
:02000004000af0
:04fea000ffffff0061
:020000040000fa
:02000004000af0
:04fea800ffffff0059
:020000040000fa
:02000004000af0
:04feb000ffffff0051
:020000040000fa
:02000004000af0
:04fec000ffffff0041
:020000040000fa
:02000004000af0
:04fed000ffffff0031
:020000040000fa
:02000004000af0
:04fee000ffffff0021
:020000040000fa
:02000004000af0
:04fef000ffffff0011
:020000040000fa
:02000004000af0
:04ff0000ffffff0000
:020000040000fa
:02000004000af0
:04ff0800bfffff0038
:020000040000fa
:02000004000af0
:04ff1000f4d3ff0027
:020000040000fa
:02000004000af0
:04ff1800ffffff00e8
:020000040000fa
:02000004000af0
:04ff2000feffff00e1
:020000040000fa
:02000004000af0
:04ff2800ffffff00d8
:020000040000fa
:02000004000af0
:04ff3000ffffff00d0
:020000040000fa
:02000004000af0
:04ff3800ffffff00c8
:020000040000fa
:02000004000af0
:04ff4000ffffff00c0
:020000040000fa
:02000004000af0
:04ff4800ffffff00b8
:020000040000fa
:02000004000af0
:04ff5000ffffff00b0
:020000040000fa
:02000004000af0
:04ff5800ffffff00a8
:020000040000fa
:02000004000af0
:04fff800ffffff0008
:00000001FF
